:1010000000020020351F0000D11E00008D1E0000D0
:10101000E11E0000F11E0000011F000000000000A2
:10102000000000000000000000000000711E000031
:10103000111F000000000000251E0000211F0000FD
:10104000FFD80000FDE80000FFD80000912200005A
:10105000AD220000FFD80000FFD80000FFD800003C
:10106000FFD8000035DD00003BDD0000FFD80000A8
:10107000FFD80000FFD80000FFD80000FFD8000014
:10108000FFD8000045DA0000FFD80000FFD80000BC
:10109000FFD80000FFD80000FFD80000FFD80000F4
:1010A000FFD80000FFD8000041DD000047DD000050
:1010B000FFD80000FFD80000000000000000000082
:1010C000FFD80000FFD80000FFD80000C9220000B0
:1010D000FFD80000FFD80000FFD80000BDE20000EC
:1010E000FFD80000FFD80000FFD80000000000007B
:1010F00000000000FFD8000000000000E522000012
:1011000000B50848A1B0082100F0B0FA064812F076
:1011100037FC064812F034FC8022694600200DF0AE
:1011200051FEF9E718030020684801008F480100CC
:1011300070B5064E064CA41BA4080025AC4200D195
:1011400070BD56F8253098470135F7E7207001004B
:101150004870010013B500200DF09AF8014608B957
:1011600000F006FD0A4C204610F036F9204611F03A
:101170005DF92046074911F01BFB074B0748009417
:1011800001224FF4806110F033F902B010BD00BFAE
:10119000880E002058070020AD48010058030020A9
:1011A0004FF080435722C3F81C25BFF34F8F0549EA
:1011B000054BCA6802F4E0621343CB60BFF34F8F64
:1011C00000BFFDE700ED00E00400FA0570470000F5
:1011D0002DE9F74304460E461746EFF3108872B622
:1011E0000568C5B9DFF88C90051DD4E90331A26804
:1011F0009A1A8A4222DC1E4A12883280581C62697E
:10120000E0600B4096E8030002EBC30383E80300B1
:1012100088F3108810E055F80C390360D1E900011B
:101220002B6983E8030028460C2100F0DFFA687977
:1012300088F3108800F01AFB012715E097B1D9F860
:1012400000000190092100F0D1FA019801462846DA
:1012500000F076FB88F3108800F052FBEFF3108863
:1012600072B6C2E788F31088384603B0BDE8F08351
:101270007C1000208010002070B50B4604461046FC
:10128000EFF3108672B6D4E902128A4219D0481CD4
:10129000A060206962696568014002EBC10103C971
:1012A00083E803000DB355F80C39636028460C2120
:1012B00000F09CFA687986F3108800F0D7FA0120D4
:1012C00012E078B10A4A156809212B61284600F01E
:1012D0008DFA2946204600F033FB86F3108800F093
:1012E0000FFBECE786F3108870BD86F31088E6E705
:1012F00080100020F8B50446EFF3108672B6344F24
:101300003A68536A002B5CD0D2E90630984258D034
:10131000581C9061106A034039B9516929B9591CA8
:1013200003D186F310881846F8BD002B4DDB516AB7
:1013300001EBC30103C984E8030055696DB355F897
:101340000C195161002B0DDBD2E907349169506A09
:10135000591A8C42A9BF591C4FF0FF332340D16169
:1013600000EBC3042B6993E8030084E803002B79A6
:10137000062B04D186F3108821E000F0F9FB00234E
:1013800028462B610C2100F031FA687986F3108829
:101390000E2814D800F06AFA11E0002BEADA0421D2
:1013A000104600F023FA86F310880A4B4FF0805263
:1013B0005A60BFF36F8F3B681B79042BDDD001238C
:1013C000B1E74FF0FF330029A7D01461B5E700BFA4
:1013D0008010002000ED00E00346D0E9072010B5A2
:1013E0009C69141BA04201DA002010BD541C02406D
:1013F000DC61F9D4586A00EBC20203C982E8030039
:101400001A896FEA42426FEA52421A81184600F086
:101410005BFB0120E9E7000008B50E4B53F82130D3
:10142000A3B11A79042A0BD103C81A6982E8030010
:1014300018460C2100F0DAF9074B0120186008BDAE
:1014400001461846BDE80840FFF7C6BF4FF0FF3021
:10145000F5E700BFCC100020841000202DE9F041FA
:101460001D46294B53F82140284B1B880380064614
:1014700090462CB985F310884FF0FF30BDE8F0811D
:101480002379042B36D0224B014620461F68FFF7F4
:10149000A3FF78B185F310883B79062B02D01D4B52
:1014A0001B682BB11C4B4FF080525A60BFF36F8FFB
:1014B0000120E3E7B8F1000F02D185F31088DDE7E2
:1014C0003B793E61062B0CBF06210521384600F012
:1014D0008DF904F11400394600F032FA23896FEADD
:1014E00043436FEA53432381204600F0EDFA85F32E
:1014F0001088D7E7D0E90001236983E803000C21B5
:10150000204600F073F9F2E7CC1000207C10002098
:10151000801000208410002000ED00E010B501468E
:10152000EFF3108472B6054B1B880380044B1868D8
:10153000FFF752FF84F3108810BD00BF7C1000201D
:101540008010002021230380FFF766BFEFF305839F
:10155000DBB20BB1FFF7F6BF064B1B881BB29942FB
:1015600001D1FFF7DBBFEFF3108372B60122FFF763
:1015700075BF00BF7C10002010B4EFF3058212F09D
:10158000FF0203D05DF8044BFFF7DCBF074B1B885D
:101590001BB2994203D15DF8044BFFF7BFBFEFF3D5
:1015A000108372B65DF8044BFFF758BF7C10002023
:1015B000114B1B881BB29A42F7B506460C461546DE
:1015C00001D100F0D5FAEFF31083019372B60B4A04
:1015D00017680621384600F009F996E80300019BD8
:1015E0003C61012284E803002946204603B0BDE89F
:1015F000F040FFF733BF00BF7C10002080100020B8
:1016000038B5EFF3108572B60F4BB0F9002053F8E0
:1016100022400CB900F0ACFA2379062B04D085F3F4
:1016200010884FF0FF3038BD03C9236983E80300F9
:1016300020460C2100F0DAF8607985F3108800F07C
:1016400015F90120EFE700BFCC1000200021FFF7C3
:1016500051BE0121FFF74EBE034B1B68586A10B103
:10166000D3E90630C01A70478010002008B5064B39
:101670004A1E1B681140586201D000F079FAC3E994
:1016800006111A6208BD00BF80100020F8B504469C
:101690000D46EFF3108772B603683BB94FF0FF3386
:1016A000036087F3108801252846F8BD11B987F338
:1016B0001088F9E70F4B1E680EB900F059FA0321A4
:1016C000304600F093F8236801330DD106F10C0386
:1016D00023600023F36087F31088074B4FF080529C
:1016E0005A60BFF36F8FDFE73146204600F028F9DC
:1016F000F1E700BF8010002000ED00E070B5054666
:10170000EFF3108672B6046814B986F3108870BDC2
:10171000631C02D100230360F7E754F80C3903601F
:101720000C21204600F062F82B6813B94FF0FF330C
:101730002B60607986F31088BDE8704000F096B8A1
:1017400008B503790B2B04BF0C230371836A1A6855
:10175000934208D0B0F90610034812F075F8034917
:101760000D2000F041FA08BDB3480100E248010035
:1017700070B5184C184E2368356843BB15B1284620
:10178000FFF7DEFF00F07CFB2368002BFAD000207F
:10179000124B00221A602368114AB3FA83F352F8FD
:1017A00023301C680C3C0B23AC4223710DD008B1D4
:1017B000FFF7C6FF0B4BA16AB4F906201A801F3150
:1017C000094A3460022000F0ABFA204670BD28467A
:1017D000DEE700BF78100020801000208410002079
:1017E0008C1000207C100020080006160A2930B555
:1017F00003791AD90A2B14D842791A4B53F822507C
:1018000000F10C047DB12D68C56053F822502C60A6
:1018100043F82240144C4FF00043D3402268134356
:101820002360017130BDC460F2E70A2BF9D9457914
:101830000C4C54F825303BB11A6893420BBF00237F
:10184000126844F825301A60427954F82230002B8F
:10185000E7D1054C4FF0004323FA02F2236823EA54
:101860000203DDE78C100020781000200B4B1B6872
:101870001A790A2A02D95B7983420DD9EFF30583DD
:10188000DBB21BB1064B01221A607047054B4FF0CB
:1018900080525A60BFF36F8F704700BF80100020E6
:1018A0008410002000ED00E008B5EFF3108372B65D
:1018B000084B094A1B88094C1BB2002142F823102F
:1018C000074A20681368013B1360FFF78FFF216010
:1018D00000F092FA7C100020CC1000208010002034
:1018E00088100020431E9BB21F2B05D8034B53F8D2
:1018F000200010B1C06A704700207047CC10002053
:10190000EFF3108072B60B4B1B681A790A2A07D9BD
:101910005A79094B53F8221011B1096843F8221083
:1019200080F31088054B4FF080525A60BFF36F8FE1
:10193000704700BF801000208C10002000ED00E0F8
:1019400038B50B790A2B01D900F012F94C7901F165
:101950000C020346006818B110F8075CA542F8D9DC
:10196000C8601A6038BD031F53F8042F9A42FBD099
:10197000181A70470F2A2DE9F84F05468946174671
:10198000984633D810F003031DBFC3F10402043B93
:101990005B180B46A3F1340318BFAD1823F0030303
:1019A00018F0080F05EB030417D12D6003E0126057
:1019B0000432A242FBD3EFF3108B72B62549012209
:1019C00051F822600FFA82FA9EB10132212AF7D132
:1019D0008BF310886FF08A0A38E02A46E9E7022183
:1019E0002046FFF703FF8BF310882FE06FF0150AF6
:1019F0002CE041F822402A46DDE90A01A4F806A0BD
:101A000000F0ACF90C9B144AE3624FF0FF33C4E9D9
:101A1000083613682060013318F0010FC4E903662B
:101A2000C4E90566A562C4F8309067712671E66165
:101A30001360D4D10C212046FFF7D8FE18F0040F14
:101A4000D1D18BF310883846FFF710FF5046BDE820
:101A5000F88F00BFCC1000208810002008B5034B81
:101A600053F8200008B900F083F808BD5C49010074
:101A700010B50346EFF3108472B6028902EA010042
:101A800022EA01021A8184F3108810BD0C4B10B5B4
:101A90001B68EFF3108472B61A8910420DD11861D9
:101AA00007211846FFF7A2FE84F31088054B4FF07C
:101AB00080525A60BFF36F8F10BD84F31088FBE72C
:101AC0008010002000ED00E010B50379048A072B98
:101AD00003D0082B0CD0002408E003891C4005D05B
:101AE0000C21FFF783FE054B01221A60204610BD32
:101AF000038934EA0303EED10124F1E784100020C6
:101B000013B5064B01901C68FFF7C0FF01992046F2
:101B100002B0BDE81040FFF7ABBF00BF801000204F
:101B200010B5EFF3108472B6038902791943072ABE
:101B3000038A018104D0082A13D084F310880FE0AF
:101B40001942FAD00C21FFF751FE074B01221A600F
:101B500084F31088054B4FF080525A60BFF36F8FAB
:101B600010BD8B43E9D1EDE78410002000ED00E0CB
:101B700008B57146034811F067FE0349032000F0E1
:101B800033F800BFAC4901009A49010008B5FFF7DE
:101B9000CFFA034811F0F4FEFFF7B2FA002008BDB7
:101BA000B04901001FB5EFF3108372B6074B0293E3
:101BB00000230193064B009307220C234FF4C061CE
:101BC0000448FFF7D7FE00F017F900BFFE490100F7
:101BD0008D1B00005011002008B50CF0AFFFBDE8D0
:101BE000084010F037BC704708B50D4B1A680C461A
:101BF0007AB901221A60FFF7F6FF2146094811F071
:101C000023FE0CF0B1FF0A2011F036FE064811F059
:101C1000B7FEEFF3108372B600F092F8FFF7C0FA48
:101C200050170020034A01001F4A010070B50D46FD
:101C300000210446FFF72AFD0D4E70B9BFF35B8FFC
:101C4000E288BFF35B8F338812B21BB29A4204D092
:101C50006DB901212046FFF719FD3388BFF35B8F73
:101C6000E380BFF35B8FA3880133A380012070BDA5
:101C70007C1000200021FFF7D9BF000008B50F4BF2
:101C8000BFF35B8FC188BFF35B8F1B8809B21BB2A8
:101C9000994201D0FFF76CFF8388002BFAD0013BFB
:101CA0009BB2838043B9BFF35B8FC380BFF35B8F6D
:101CB000BDE80840FFF722BD08BD00BF7C10002032
:101CC0000C4B0D4A10B540219A600C4CE02283F871
:101CD0002220D9770022A0180132302A80F8001380
:101CE000F9D11A6942F010021A615A6942F400727D
:101CF0005A6110BD00ED00E00010000000E100E0BE
:101D0000064BD3F8942042F00502C3F894205A6A97
:101D100042F480325A620020704700BF00ED00E0BC
:101D2000064B21F01F0142F00102C3F89800C3F8EE
:101D30009C100020C3F8A020704700BF00ED00E019
:101D400008B5EFF30581C1F3080119B10248103954
:101D500011F07AFD00BE08BD2C4A01001A4422F0A1
:101D6000030210B54FF0773442F8044C540758BFC3
:101D70004FF08834A2F104035CBF42F8084CA2F192
:101D800008034FF0807243E902020D4A43F80C2C1D
:101D90000020032243E9052043F8201C01220224ED
:101DA000194643E907246FF0020241F8242D0B2263
:101DB00041F8042D013A032AFAD1A3F1440010BDE1
:101DC000A91800000548064A064B0168914201D156
:101DD000984201D3181A70470430F6E7000000203B
:101DE000FEE7FEE700020020EFF3088070470000E6
:101DF00000487047000000200023E1EE103AEFF3A6
:101E0000148323F0040383F31488BFF36F8FEFF37D
:101E1000108362B6024B4FF080525A60BFF36F8F4F
:101E200000ED00E0114910B50C6872B6FFF7A0FC98
:101E300062B6A04208BF10BD2146BDE8104049B1BE
:101E4000EFF309821EF0100F08BF22ED108A22E97D
:101E5000F04F0A600068B0E8F04F1EF0100F08BFA6
:101E6000B0EC108A80F309887047000080100020D1
:101E7000024B4FF080525A60704700BF00ED00E007
:101E800030BF62B6BFF36F8F72B670470D4B0E4A0C
:101E90000E496846904203D8984201D9002102E0D9
:101EA00009468D46012104207246024202D1EFF319
:101EB000088001E0EFF309802DE9F00F6B4600F098
:101EC0008FF800BF5801002000000420000200200D
:101ED00008B502490620FFF787FE00BF3B4A010014
:101EE00008B502490520FFF77FFE00BF474A010001
:101EF00008B502490820FFF777FE00BF5A4A0100E3
:101F000008B502490920FFF76FFE00BF6C4A0100C7
:101F100008B502490A20FFF767FE00BF804A0100AA
:101F200008B502490B20FFF75FFE00BF924A01008F
:101F300070477047204AD2F8883043F4700310B5D8
:101F4000C2F88830FFF7F4FF6A461C4B1C491C4658
:101F500093422DD31B4B1C48DA1C121AC11E22F0CF
:101F600003028B4238BF0022184911F076FB184B50
:101F70001848DA1C121AC11E22F00302994288BFC7
:101F80000022002111F077FB24B1134A13490120EC
:101F9000FFF7C6FEFFF7B4FEFFF7CBFF00F03AF9FC
:101FA000FFF714F911F022FBBDE81040FFF7FABD6E
:101FB00043F8041BCCE700BF00ED00E00000002068
:101FC000FEE7FEE714030020000200207470010009
:101FD0007C61002018030020080006161F00002066
:101FE0002DE9F04F2DED068B89B090460493594BA7
:101FF0009A6B08EE102A5A6BD3F828A008EE902AA4
:10200000DA6A09EE102A1A6BDB6B0AEE103A524BB1
:1020100009EE902A1A68514B9A420446894602D02A
:102020004F4811F0ADFCB9F1000F64D04D4811F0EC
:10203000A7FC00252E464C4811F0A2FC51464B4807
:1020400011F002FC19EE101A494811F0FDFB19EECF
:10205000901A484811F0F8FB1AEE101A464811F091
:10206000F3FB1AF4004F04D018EE101A434811F095
:10207000EBFB1AF0800F04D018EE901A404811F0D4
:10208000E3FB404811F07CFC3F48414611F0DCFB8B
:10209000B9F1000F2BD118F0080F54D03B4B198821
:1020A00009B208460391FFF71DFC03990246384820
:1020B00011F0CAFB374811F063FC3146364811F085
:1020C000C3FB6946354BC91A03D53548494211F05F
:1020D000BBFB049E20468268C36801698C46416947
:1020E0008E46AD46314691E8F00F416800682D49B3
:1020F0000720FFF779FDD4E90230D4E90012E7693F
:10210000039020690591D4E905B60AEE900AB80556
:102110002548CDE9062354BF04F1200504F1240528
:1021200011F02EFC039B059900932048DDE906235E
:1021300011F08AFB1AEE901A009733465A461C4853
:1021400011F082FB77E7217F1A48103911F07CFBF0
:10215000B0E700BF00ED00E000000020FEE7FEE772
:10216000A04A0100B64A01007B4B0100844B0100EC
:10217000944B0100A44B0100B44B0100C44B01007F
:10218000D44B0100E44B0100E94B01007C1000201E
:10219000FB4B01003A4C01006B4C01005801002040
:1021A000934C0100C04C0100E54A0100004B0100C6
:1021B0003D4B0100144C0100BFF34F8F0549064B06
:1021C000CA6802F4E0621343CB60BFF34F8F00BFD5
:1021D000FDE700BF00ED00E00400FA054FF070439A
:1021E00093F8E02F062A12D1D3F8E40F10F00F0075
:1021F0000DD1D3F8E82F02F0F002302A08D1D3F83D
:10220000EC3F13F0F00F0CBF0120002070470020BE
:102210007047000008B5FFF7E1FF30B1134AD2F86C
:10222000FC3023F08073C2F8FC30FFF7D7FF20B1F9
:102230004FF080430322C3F8A025FFF7CFFF30B152
:102240004FF080430022C3F80C21C3F8102100F0A6
:1022500057F8074B0122C3F84025FFF731FDFFF780
:10226000BBFCBDE808400CF05FBC00BF00ED00E027
:1022700000E00140044B1B682BB1044B4FF080522F
:102280005A60BFF36F8F70478410002000ED00E0AC
:1022900008B5044A044B10681B689847BDE808401D
:1022A000FFF7E8BF641700205417002008B5044A60
:1022B000044B50685B689847BDE80840FFF7DABFF9
:1022C000641700205417002008B5044A044B906896
:1022D0009B689847BDE80840FFF7CCBF6417002013
:1022E0005417002008B5044A044BD068DB689847AF
:1022F000BDE80840FFF7BEBF641700205417002058
:1023000070470000EFF3108172B6094A1368013379
:10231000012B136009D14FF080420020C2F8000168
:102320001360D2F80031002BFBD081F31088704786
:1023300074170020094A08B513680BB9FFF718FC99
:10234000EFF3108172B61368013B13601BB94FF0B5
:10235000804301225A6081F3108808BD7417002061
:102360004FF08043D3F8182412F4803214D1C3F80C
:102370001825C3F8042101229A60D3F80421002A09
:10238000FBD00022C3F80C2101221A614FF08042D9
:10239000D2F80C31002BFBD0704708B5C8210020C3
:1023A0000CF084FC643808BD70B505460C46FFF798
:1023B000F4FF4FF47A7605FB00F3744393FBF6F3D6
:1023C00003EB4500844205D2FFF7E7FF604390FB33
:1023D000F6F0204470BD000008B5084943880A782B
:1023E0005BBA9BB2934207D10549043011F025F93D
:1023F000B0FA80F0400908BD0020FCE70002002090
:102400007918002038B50B4615460649064A096872
:102410001268044600F066FD29462046BDE83840B3
:1024200000F06ABD886E01008818002038B50B46A0
:1024300015460649064A09681268044600F052FD2E
:1024400029462046BDE8384000F056BD846E0100A4
:102450008818002008B5144800F053FD134800F018
:1024600050FD134800F04DFD124B1B78012B03D09B
:10247000022B0DD0ABB908BD4FF47A7100200CF0DF
:1024800015FC0D4902460848BDE80840FFF7CEBFDD
:102490004FF47A7100200CF009FC08490246044808
:1024A000F2E7FFF765FB00BF041C0020C418002002
:1024B0008C180020781800205802002028020020E4
:1024C0004269013201D010F061BB83685B68184734
:1024D0001FB5064A0023CDE9022001A9044A054898
:1024E000019309F0CAFC05B05DF804FBE019002077
:1024F00030020020681B002073B5084E084D0024F0
:10250000CDE9004400234FF480723146284609F09B
:1025100082FC0028F4DA02B070BD00BFE018002091
:10252000681B0020094B10B51868094CFFF7C8FF5D
:1025300023681844074B1860074800F0E2FC226843
:1025400006490548BDE81040FFF75CBF886E0100F2
:10255000201C0020C0180020C418002020020020E9
:1025600008B5084B1868FFF7ABFF0A23B0FBF3F080
:10257000054B1A68131AB3F5803F28BF831A98B227
:1025800008BD00BF846E0100281C0020002310B588
:1025900008220370837002234270C3700446FFF761
:1025A000DFFF40BAA080062010BD00002DE9F041F9
:1025B000444C207006460CF055FB434A434B20F038
:1025C0007F401060020C6270020AA270E07018680E
:1025D000FFF776FF0A23B0FBF3F03D4B3D4918604F
:1025E0003D4B1D78012262714FF000086ABAE2800B
:1025F00084F804802A4604F1080011F02EF840F611
:102600004203F340DB0705F108050FD4334904F812
:10261000058091F885706019022343707BBA43806E
:102620003A46043011F019F804373D44631900228A
:1026300006210B2E625559709A7036D1D9705221ED
:102640001A7159719A7120211A725322D9715A72D2
:102650000A35234B1E682C44C5F5807876B31F7D60
:1026600057B31D22002104F1100011F004F80023DB
:102670001A222374A37419236274E374277729221E
:1026800036BA19216660161D00236170B04551BA33
:102690002370618023726372A372E3722373637386
:1026A000A373E3730AD2FFF763FA02211A7152226D
:1026B000D9705A710635CCE70C22E1E7A819BDE8BC
:1026C000F08100BFE0190020241C0020846E01006E
:1026D000281C00207918002000020020E01A0020A9
:1026E000A818002003292DE9F041884616465DD937
:1026F00082784378120242EA0342C3781A432D4B90
:102700001B689A4252D1A1F1040C0021031D0C4612
:102710000F460846BCF1000F2BD1002846D0002FF1
:1027200044D011B18B88002B40D1FFF755FE002813
:102730003CD004B12479204D95F885301BB195F833
:102740008430A34212D21D4B1D494246184610F058
:1027500084FF06B130607A88174852BAD2B2391D68
:1027600085F8852010F079FF85F884402046BDE883
:10277000F081C4451AD81A8852BA92B2072A11D0E9
:102780000CD8012A10D0022A08BF1F465D886DBAF6
:10279000ADB20435ACEB050C2B44BBE70D2A08BFEA
:1027A0001946F3E71C46F1E71846EFE74FF0FF3014
:1027B000DDE700BF241C0020E01A0020781700206D
:1027C000E01800202DE9F04FC31E87B08046082B8B
:1027D00000F2D580DFE813F0C301D3000900150033
:1027E000D300D300D300D3007C01A94B1D68A94BB3
:1027F0001868FFF765FE2D1A00274FF4167A0A2491
:10280000B2E1A5490A7D31F8040B00F059FD0546F7
:102810000028F1D1A1499BE175B9204651460592A6
:10282000FFF7C2FD059A0446CFB95846FFF7AEFE42
:102830003046FFF74DFE73E10592FFF791FE049BD2
:10284000059A9842E9D9002A04DD99F80030072B4F
:1028500000F07A81B8F1060F40F09180DAE7039B2F
:102860000133D9B2B9420391DFD3ECE799F80230D2
:1028700099F801101B0243EA014399F803100B4336
:10288000874909688B4240F062810024171F854BFD
:10289000BC46A146264625462046BCF1000F3DD148
:1028A000002800F05481002D00F05181FFF794FDC5
:1028B000002800F04C817C4B1B78022B0ED06B88DB
:1028C0007A495BBA91F885209BB2934240F03F81F0
:1028D000281D10F0B2FE002840F03981B9F1000F38
:1028E00004D0D9F80430724A1BBA1360B8F10B0F48
:1028F0000BD1ACB3626812BAB2F5167F38BF4FF491
:1029000016726C496C48FFF77DFD1EB1B388002B31
:1029100040F01D81634DDFF880812EE06245C0F0FC
:102920001681198849BA89B20D2913D00CD801290A
:1029300012D0022908BF1D46598849BA89B204310C
:10294000ACEB010C0B44A8E7202907D0532908BFA2
:102950009946F1E71E46EFE71846EDE71C46EBE720
:10296000564ACEE72B88B3F5C85F00F08D806B88A0
:102970005BBA9BB20433FF1A1D44002FF2D107B09B
:10298000BDE8F08F6B68D8F800201BBA9342EED1F7
:10299000A9F10C0905F110064A465446002A4ED109
:1029A000AA6813BA0AB3E9680ABAF1B1DFF8FC9071
:1029B000D9F8801009B18B4217D8414E316809B15E
:1029C0008A4212D8C9F880300133326008D03D48BD
:1029D00000F097FAD9F880203B493A48FFF712FDFA
:1029E0003368013301D0FFF79DFD002CBFD0227B5F
:1029F000D4F80890666888F814204FF0010A88F827
:102A000015A004F10D0158460AF081F8237B63B14B
:102A100036BA009698F814202C49B8F8000099FAB4
:102A200089F300F031FCDFF8A4B0B5F8029099FA10
:102A300099F91FFA89F9BAF1000FA3D097E79145E8
:102A4000C0F085803388B3F5D05F14D198F8153085
:102A5000C3B1BCB1317B98F8143099420BD15946BF
:102A600006F10D0003920AF032F898F81430039A38
:102A7000834298BF344673885BBA9BB20433D21A40
:102A80001E448BE73446F6E74FF0000ACBE700BF61
:102A9000C0180020886E0100A818002058020020ED
:102AA000241C0020E418002078180020E01A0020E0
:102AB00004020020280200208C1800208051010010
:102AC000201C0020041C002048020020AC1800201C
:102AD0002A4B1C88FFF761FC4FF47A756C43002782
:102AE00060434FF0530AB0FBF5F03D4604444046C6
:102AF000FFF75CFD224B03EB000B06465846FFF741
:102B000045FD0644FFF7F8FC3046FFF7E1FC0028DE
:102B1000FADD64236B430493DFF86890002303938A
:102B20000023CDE900334FF47A734FF480721549D6
:102B30001548634309F06FF9021E7FF76DAE99F8EF
:102B40000030072B7FF468AE032A3FF78FAE0F49A2
:102B50000F4B186807B0BDE8F04F00F074B90025BE
:102B60000A274FF01E0A0124FFF717FC4FF47A766C
:102B700074436043B0FBF6F00444B8E7040200205D
:102B8000E0190020E0180020681B002050020020FF
:102B9000881800200620FFF715BE0520FFF712BE9B
:102BA0000320FFF70FBE0B20FFF70CBE2DE9F04FFF
:102BB00085B000260396FFF7F0FB0028B8BF40421F
:102BC0004FF47A746043B0FBF4F004190120FFF76E
:102BD000EDFC5C4B03EB000805464046FFF7D6FCD6
:102BE0000544FFF789FC2846FFF772FCB04260DC21
:102BF000FEF7BEFF022B35D1FFF7B2FC0A2303FB21
:102C0000104403AA59464846FFF76CFD039B002B6E
:102C100018BF5E46FF2802D04B4B9C4233D9039B22
:102C200013B9CDF80C905E46002E18DD039D0022EE
:102C300031462846FFF756FD002834463FDAFFF7B5
:102C4000ACFB80EAE072A2EBE0724FF47A70424390
:102C50003E49B2FBF0F202443D48FFF7E7FB05B006
:102C6000BDE8F08F039F002FD9D14FF4616120465A
:102C7000FFF79AFB04464046FFF788FC2846FFF71B
:102C800027FC0028B4DD0023CDE900334FF47A732C
:102C9000304963434FF48072504609F0BCF8B0F1FC
:102CA000000BDFDD99F80030002FA3D1022BD9D122
:102CB000B5E7DFF8A090DFF8B0A00127E3E7264BE7
:102CC00026491868DFF8A480254E264F00F0BBF88F
:102CD00004352B88B3F5C85F22D16A686B88D8F8B1
:102CE000001012BA5BBA9BB28A42A3F10C0317D14F
:102CF00005F110001946D9B9AB681ABA83B1E96871
:102D00000BBA69B1D6F880108A4209D239688B4271
:102D100006D23B600133C6F8802001D0FFF702FCE9
:102D20006B885BBA9BB20433E41A1D44D1D196E799
:102D30008B4294D3428852BA92B20432891A104418
:102D4000D9E700BFE019002080EE360058020020CD
:102D5000041C0020E01800208818002050020020E9
:102D6000E01A0020201C0020681B0020A81800206A
:102D700008B543680BB9FEF7FBFE034B1860034B25
:102D80009982034B998208BD881800200802002010
:102D900030020020034B1A78824202D01870FFF7ED
:102DA00059BB704778180020014B1878704700BF56
:102DB0007818002010B50C4C0C49A08A00F00EFACF
:102DC0000B4BC0B218700B4B1B680BB9FEF7D0FE53
:102DD00048B10023214608481A4608F02BFFBDE8F9
:102DE0001040FFF737BB10BD080200207918002003
:102DF0000002002088180020681B0020802908B5E8
:102E000007D9FEF7B5FE10801920508011751846BD
:102E100008BD034A1368002BF5D06FF00B00F7E7ED
:102E2000A81800200AF0CAB90AF0DEB90368024601
:102E30003BB11868834219BF02681A60002313600F
:102E400070471846704708B500B109B9FEF790FE03
:102E5000EFF3108272B60B6833B903686BB11B686D
:102E60000B60036819600160406882F3108830B11C
:102E7000BDE808400121FEF753BE0960F3E708BD35
:102E800008B5EFF3108172B6FFF7D0FF81F3108819
:102E900008B10023036008BDF8B50D46044600B133
:102EA00009B9FEF765FEEFF3108772B600262146DA
:102EB0004B68002BF5D00846FFF7B8FF20B9013664
:102EC000B54201F10801F3D187F3108818B9012048
:102ED000FEF716FEE7E700230360F8BDD0E9050121
:102EE000FFF7B1BF01600349C0E90523C0E9031042
:102EF000704700BFDD2E00000A46011D00680FF07C
:102F00009BBE0146006810B104310FF07CBE7047D3
:102F100038B58569044685B10A4B186843690133A1
:102F20000CD00FF033FE23696A68C11A8A4226BFAB
:102F30009B181B1A00236B60206138BD83685B6897
:102F40009847F0E7846E01008369084A10B504468B
:102F500010682BB15A6821460FF06EFE206110BD3B
:102F60002146BDE810400FF04EBE00BF846E010048
:102F70008369002210B504465A60A06930B14368E5
:102F800023B90368A36163699847F6E72046BDE863
:102F90001040FFF7D9BF000070B505460C46EFF3AF
:102FA000108672B6FFF7B4FF05F118031A68EAB984
:102FB00022601A681AB151686068091A51601C6071
:102FC000AB69A34206D10D4B6268186829460FF021
:102FD00033FE286186F31088094B1B682BB1094B1F
:102FE0004FF080525A60BFF36F8F70BD61685068B8
:102FF0008142DDD3091A61601346D7E7846E010070
:103000008410002000ED00E070B504460D46EFF39B
:10301000108672B6FFF77CFFA26904F118012AB985
:103020002046FFF791FF86F3108870BD9542136824
:1030300002D011461A46F2E70B60002BF0D05A6816
:1030400069680A445A60EBE7034B4161C0E902300A
:1030500000238361704700BF712F000058B10378CF
:1030600043B1013810F8013F0BB901207047303BE4
:10307000092BF7D90020704738B1054B0A0901F038
:103080000F019A5C5B5C027043700220704700BFC6
:10309000D34C0100F8B50D465700064610B18C1808
:1030A000A54201D13846F8BD304615F8011BFFF79F
:1030B000E3FF0644F4E700000E4B994230B517D801
:1030C0000A2301221C468B420FD960B183180A25BE
:1030D000B1FBF5F405FB1410303003F8010D084680
:1030E00009282146F4D8104630BD63430132EAE78F
:1030F0000A22EAE7FFC99A3BFFF7DEBF90B1D9B1D8
:10310000002340EA0102D2070ED5C20710D5CA0734
:1031100010D581423EBF024608461146091AF6D133
:1031200000FA03F108467047400849080133E8E710
:103130004008EAE74908EAE70146F3E72DE9F843E2
:1031400007460D4614460AB9FEF712FD11462846F9
:10315000FFF7D4FFA042F7D8A8423BD8B4FBF0F960
:10316000B5FBF0F00026B0FA80FE4FF00048CEF13B
:10317000200528FA0EF834463346B446CEF15F0EE9
:10318000DB184CEB0C0110EA080F18BF43F00103E9
:103190004B4571F100028C464FEA44044FEA58084F
:1031A00011D3B3EB090361F1000C44F00104002CCE
:1031B0000CDA53EA0C0300D00134C5F120053C6061
:1031C0003D71BDE8F883002CF1D1013D0136764513
:1031D000D6D3EEE700252C46EFE7000073B50E4688
:1031E000002306F8043B03230D464B7028B904F076
:1031F00027FF044628B9FEF7BBFC00B204F02FFFFE
:10320000F7E708234FF40171B0F9A6010022CDE9D8
:1032100000310321334604F015FD021E4FF000017A
:1032200003DDA9701B23EB700FE094F8A531033B7D
:10323000082B1FD8DFE803F00C1E0C1E1E1E1E05F7
:103240000C001423A970EB700022D0B2043017E0F8
:1032500008234FF40172B4F9A6010221CDE900322E
:103260000022334604F0EEFC021E03DD0023AB70A7
:103270000123D8E7B4F9A611024810F0E5FA0020BE
:1032800002B070BDE34C01007FB500B2089E03910F
:103290001446029304F0E3FE029B03990096E2B207
:1032A000054605F0F9FB002808DB802C06D001213B
:1032B000284604B0BDE8704003F074BC04B070BD93
:1032C0002DE9F04389B000230093194B0646186896
:1032D000436901330F4690460FD00FF057FC054667
:1032E00000244FF47A7901AA6946304604F034F993
:1032F00038B9204609B0BDE8F08383685B68984719
:10330000EDE79DF814304345EDD1069B5B1BB3FB05
:10331000F9F3A342E7D9394601A809F0D8FB9DF893
:10332000143083429EBF069C641BB4FBF9F4DAE7B9
:10333000846E010010B50024204604F081FE04468E
:1033400040B104F06FFE0028F6D1B4F9A61102488E
:1033500010F07AFA204610BD334D010037B5FFF763
:10336000E9FF28B91B4810F00BFB002003B030BD6B
:10337000194BB0F8A6111B6868460024CDE900433C
:10338000FFF7F6FCFFF7D6FF0546D8B9114810F055
:10339000F7FA0120FFF7FEFCFFF70CFD012168465C
:1033A000FFF77AFD03460028DFD05B689847F5E712
:1033B00004F038FE30B1A54204D0B4F9A601402192
:1033C000FFF71CFD204604F03BFE04460028EFD129
:1033D000DFE700BF5F4D0100801000201FB5084BE4
:1033E000029300230193074B0093052208234FF417
:1033F00080610548FEF7BEFA05B05DF804FB00BF2A
:10340000844D01005D3300002C1C0020F8B50489B8
:1034100006460F46154600200DB1B54218D1328937
:103420007168002309F0F7FA04F13A030344B3F595
:10343000803F24BF013080B2796820443A300023B5
:103440002022083180B209F0E6FAC04380B2F8BD0C
:1034500023462A89696809F0DEFAAB682D681C44A6
:10346000A4B2D9E72DE9F8430E4681460321304640
:1034700006F09CF9044608B9FEF77AFB022106F033
:1034800095F907460028F7D0A368032B05D83046E6
:103490000021BDE8F84306F091B9014632462046C6
:1034A000D4F80480FFF7B2FF0028F0D198F800505C
:1034B000892D0FD8842D11D8802D16D098F80010A2
:1034C000334640F20122032004F0E8FB0028DED05E
:1034D000BDE8F8836335EDB2012DEFD8A3687968B4
:1034E0004246484602F0D6FEE8E72389796842461C
:1034F000484600F051F8E1E738B50D461446002182
:103500001A46032306F0B4FA28B1436800221D705E
:103510005C709A70DA7038BD10B5044660B190F9ED
:103520001030032B0BD10268FFF770FF50B16268B7
:1035300043BA5380002010BD6FF00D00FBE76FF021
:103540004C00F8E76FF00100F5E74269013201D065
:103550000FF01CBB83685B6818472DE9F041DDF86C
:103560001880154600220E461F46014608F1080342
:103570001046FFF7C1FF044650B1406876BA6DBAF5
:103580008680C58027B142463946083010F065F87C
:103590002046BDE8F081000073B506460C46002ABF
:1035A0003ED0072B3CD99188D088083B40BA49BA15
:1035B000009389B202F1080382B28120FFF7CDFFA8
:1035C000054668B3237EFF2B04F1080214BF04F103
:1035D0001801002100F067FC044610B90146284696
:1035E00009E000231A461946184605F0A1FD0546D4
:1035F00030B90146204602B0BDE8704006F0DEB8A2
:1036000043680EB1B6F9A6615E8006492C602B4670
:1036100040F20222022004F041FB01460028DED0E5
:1036200002B070BD0000FFFFF7B5099D0C461146C2
:103630001A464FF6FB739D4207464AD80095002371
:103640008020FFF78AFF002846D0224600214668E6
:1036500000F029FC044620B9214810F091F900251A
:103660002EE043689DF82020DA7167B100231A46E6
:103670001946184605F05CFD40B34368B7F8A6212B
:103680005A8004600446174B1868FFF75EFF032D4D
:1036900089BFB0600836043D0C3600239D42DAB283
:1036A00011D11149234640F20222022004F0F6FA19
:1036B0000028D4D16FF008050021204606F07EF8DE
:1036C000284603B0F0BDF2540133E7E76FF00B0575
:1036D000F2E76FF01505F3E76FF00B05F0E700BFB9
:1036E000924D01008C6E01000000FFFF2DE9F047B4
:1036F0009846224B0646186817460D46FFF725FFE9
:1037000002218146304606F051F8032182463046B8
:1037100006F04CF80446BAF1000F2AD048B3DAF8A4
:103720000400083003F0BDFD6468032D04F1080CAB
:103730001CD9A268043DA9EB02020C3425442146A1
:10374000E043A94202D14FF0FF3109E001310B18EB
:1037500011F8014CDBB29C42F3D0A1EB0C01013912
:1037600043463046BC46BDE8F04760476446002209
:10377000E4E76FF01500BDE8F08700BF8C6E010034
:10378000002106F01BB8000008B5044910220FF014
:1037900054FFB0FA80F0400908BD00BF2A50010074
:1037A00010B50A49082204460FF047FF48B12378B4
:1037B000FF2B08D1607800F00F00831E584258415B
:1037C00010BD0120FCE70020FAE700BF1A500100FD
:1037D00070B51E46CBB2002115460246084605F0DC
:1037E000A7FC044620B92846FFF7CAFF204670BD53
:1037F00043681E710560F9E738B50B680C4605464D
:1038000008B9FEF7B5F94A68B0F8A6115180002250
:103810004BB9B5F8E230934209D220467A21BDE88F
:10382000384005F0CBBF99681B680A44F0E728468A
:1038300004F0F8FB60B10B49234640F2022201205C
:1038400004F02CFA68B92046BDE83840FFF798BF6D
:10385000B5F9A60140F20222214604F014FA00282C
:10386000F1DD38BD0000FFFF2DE9F8430E46D1E938
:10387000001405460A4600232ABB5BBAA380A3793D
:10388000FF2B02D119BB3B23A371E37913B94DBBC5
:103890004023E37104F108073E49102238460FF037
:1038A000CCFE04F11809804678BB4846FFF76CFF50
:1038B0000246D0B11022414638460FF0DCFE01230B
:1038C000E37534464FE0906812680344D4E70B7CFC
:1038D000023BDBB2022BD6D82F4AD35CA371FF2B5D
:1038E000D3D1D0E795F8A431D3E74946284604F070
:1038F00042FD0028E5D0034600F1100253F8041BF6
:1039000047F8041B9342F9D1DBE7284604F0B2FBE9
:103910004846FFF739FF98B10024284604F0B1FB70
:10392000002CCED00321304605F040FF28B143687B
:103930001B7803F0FD03852BC3D06FF07C0022E0E1
:103940003946284604F003FD0028E5DB2844047DC1
:1039500004F01F04103C18BF0124DEE706F0A6F8AF
:1039600098B12060044694F91030022B02D12068EF
:103970000028F3D13146204605F007FF002807DA7A
:10398000831C08BF0020BDE8F8836FF00B00FAE746
:103990000020F8E74A500100B14D010010B50C4677
:1039A0000AB9012010BDFFF75FFF0028F9DA2046B1
:1039B000FFF7E6FE0020F5E72DE9F04390F910301F
:1039C000013389B00646884624D144680CB9FEF715
:1039D000CFF8B4F9020004F042FB054630462779DF
:1039E00006F064F807F03F07014628B9304609B0F1
:1039F000BDE8F043FFF7C4BE05F00AFF064696F99E
:103A00001030022B09D01621304609B0BDE8F04332
:103A100005F0D4BE00273D46F1E7706859491022F1
:103A200018300FF00AFE0028EDD0304606F03EF8C0
:103A300004460028DAD04668337EFF2B33D1002DB0
:103A400040F0828004F0FEFA002840F09480204686
:103A5000CDE7B8F1000F11D0204606F027F8064652
:103A60000028F4D001462846FFF7FEFE002806DABB
:103A7000B442ECD03046FFF783FEE8E7264600214B
:103A800008463B463246FFF7A3FE014610B12846E2
:103A9000FFF7B2FE284604F0D3FA05460028D8D135
:103AA00009B0BDE8F0831836304604F04FFD85427A
:103AB000814606D03046FFF773FE002818BF4FF04E
:103AC00000093046FFF760FE10B9B9F1000F15D0BC
:103AD000424621464846FFF761FF0028E0D02046D5
:103AE00005F0AFFE0028B2D12749234640F201225B
:103AF000022004F0D3F80028D2D1A8E701AB224677
:103B00002946304602F0DAFA0028C9DBBDF81C006D
:103B1000C0F3041004F0A3FA054600283FF457AFA1
:103B200042462146FFF73AFF0028B9D09DF81E1003
:103B30003B46224605A8FFF74BFE01460028AFD0C2
:103B40002846FFF759FEABE7014642462846FFF7F5
:103B500025FF0028A4D00021084647F04003224654
:103B6000FFF736FE014600289AD0284609B0BDE886
:103B7000F043FFF741BE411E204605F0F1FE47F03D
:103B8000400787E74A5001000000FFFF2DE9804809
:103B9000102289B00DEB020000210FF06CFDA64B46
:103BA000A6481B88DFF89892ADF81C300821CDF8A4
:103BB0001490FDF75BFD04A9022005F04FFD40F2D3
:103BC0000523ADF80A3040F2022A40F2012468468B
:103BD000FDF73FFDBDF80210B1F5017F09D8514551
:103BE00000F21581A1423BD05145F0D1019801214D
:103BF00004E1A1F59F43403B9AB2152AE7D8152B63
:103C0000E5D801A252F823F01F3E00001F3E00003D
:103C10001F3E00001F3E0000CF3B00001F3E000083
:103C20001F3E00001F3E00001F3E00001F3E000020
:103C3000CF3B00001F3E00001F3E00001F3E000063
:103C40001F3E00001F3E0000CF3B00001F3E000053
:103C50001F3E0000CF3B0000273E00002F3E00002B
:103C6000019D0DB9FDF784FF4FF0FF31284605F0A7
:103C70009DFD0646A8B14368002BF3D0B3F90200BE
:103C800004F0EDF980466B683BB1AA68272A04D995
:103C90001B7803F0F003602B05D02846FFF770FD7A
:103CA00093E78046EFE7284605F000FF044600282A
:103CB000F3D00222282105F01BFF0023237408B94A
:103CC0002046EBE74768FB790BB974216EE0B988B1
:103CD000BD7949BA89B209B93B2DF1D18442A368B3
:103CE00056D08B42204653D905F070FF07F1180BD0
:103CF0005846FFF749FD78B95846FFF751FD10B116
:103D0000B8F1000F56D1584604F020FC8046B0FAB6
:103D100080F04009002851D1292D72D03A2D72D05F
:103D2000112D0CBF0423002323742946022005F023
:103D300014FD002801DC3A2D67D10121204605F051
:103D40000FFE012694F91000234640F20122494655
:103D500003F0A4FF10B92046FFF712FD86B13A2DFB
:103D600003D10121204605F0FBFD234640F201224C
:103D70002946022003F092FF10B92046FFF700FD0C
:103D80003A2D7FF422AF21464046FFF76BFB1CE73C
:103D9000002283681A4490F91030022B02D0006888
:103DA0000028F6D1283A8A42A0D21621204605F0F2
:103DB00005FD0AE7584604F0C9FBA8E707F108002B
:103DC000FFF7EEFC00287FF47BAF5846FFF7E8FCD6
:103DD00000287FF475AFFB79013BDBB2FB71002B50
:103DE0003FF473AF1EB13146204605F011FD204669
:103DF00005F04BFD00283FF4E8AE0021FFF7DCFDA5
:103E0000E3E6022390E703238EE700269AE76FF0AC
:103E1000850302A968460393FDF7F2FBD5E60198F6
:103E200002F03AFFD1E6019802F08CF8CDE6019855
:103E3000002102F0C9F8C8E67C1000202C200020E8
:103E40000000FFFF1FB50A4CB4F9003063B9094AFE
:103E50000948CDE90132094B0093042208234FF4AD
:103E60007071FDF787FD2080B4F9000004B010BD2B
:103E70002C240020AC4D01006C2000208D3B000064
:103E800008B5022105F092FC60B143680BB9FDF75B
:103E90006FFE8268272AFAD91A7802F0F002602AA7
:103EA000F5D1184608BDF8B50C461746022328225E
:103EB000002105F0DDFD064608B3456805F1080060
:103EC000FCB1214604F1100351F8042B40F8042BF7
:103ED0009942F9D105F11800C7B13A4607F110032C
:103EE00052F8041B40F8041B9A42F9D160220023C7
:103EF0002A70FF226B70AB70EB70AA71EB713046C9
:103F0000F8BD102221460FF0B6FBE3E71022394638
:103F10000FF0B1FB012385F82730E7E7F8B5044639
:103F200015460E4609B90020F8BDD1F8E470FA0430
:103F3000F9D5194908220FF080FB38B12378FF2BFF
:103F4000F1D1637803F00F03022BECD1FB0704F1EE
:103F5000080105F1100201D4FDF70AFE96F8A5014B
:103F600008F0ECFF10F0FF00DDD0A8762B4604F13E
:103F7000100254F8041B43F8041B9442F9D1B6F91B
:103F8000A6311B0103F4F87343F4806343F0060386
:103F90002B830120C8E700BF1A5001002DE9F3412F
:103FA000064604F0D3FA0446002862D004F062F812
:103FB000B4F9A611002000F0FBFF0546002849D007
:103FC000006800F04DFD002844D02B68B4F9A6111C
:103FD000B3F86820C2F30412914201D0FDF7C8FD86
:103FE000083318463246214600F072FA3146204620
:103FF00004F0ADF9051EF1DB61190B7D03F01F0222
:10400000102A33D003F00702013A012A28D80133DD
:10401000D4F8D8600B75691C0901174B1748B3F920
:1040200000808F1D9C3121440191FEF7EDFF04EBD0
:1040300005100023C0E92B36274444F6CF73A0F8BF
:10404000B630C0F8B870A0F8B48001990B48FEF7FC
:10405000A3FF05E0002384F8DF30204602F0D2FD04
:10406000204602B0BDE8F04104F00BB84EF66026E1
:10407000D1E702B0BDE8F0812C2400207426002096
:104080002DE9F04385B0DDE90CE80F461E460446F5
:1040900008B9FDF76DFDD0F8E45015F4805F03D149
:1040A000042005B0BDE8F08393F80190B9F1020F48
:1040B000F6D192F800C0BCF1880F40F08180ED0786
:1040C000EED590F8002102AB00F1F80104F09AFE61
:1040D0000828E5D1DDE90202B168F3689A4208BF19
:1040E0008842DDD1B378012B45D0022B49D0002B7B
:1040F0003FD107F118012046F58804F028F9071E82
:10410000CEDB6DBAADB2012D04EB07021CBF4EF63B
:1041100060235D43137D314823F01F0307F1010144
:1041200043F010034FEA0111137501F106082C4BFF
:1041300001F19C01214418BFA5F56A45B3F900902F
:10414000019114BF603D47F23055A044FEF75CFF7B
:1041500004EB07140023C4E92B3544F6CF7301990F
:104160001E48A4F8B630C4F8B880A4F8B490FEF79E
:1041700013FFB07895E707F11801204604F06CFBB7
:10418000F7E7B4F9A61107F1080000F011FF0546A2
:1041900000283FF47EAF00F0D3FE002000F0F2FED6
:1041A00028B984F8DF00204602F02CFDE1E72B68F7
:1041B000002B3FF46EAF07F11800FFF7EFFED8E7D2
:1041C000AC077FF56DAFBCF1870F7FF469AFCDE928
:1041D0000CE805B0BDE8F04300F086B87426002076
:1041E0002C24002073B54378032B054603D000240C
:1041F000204602B070BD083001F002F904460028E4
:10420000F5D06B88AA885BBA52BA9BB243EA0243E4
:10421000EA8852BA92B242F21071002A08BF0A46E6
:104220004EF66025554302699A4209D30361114B4A
:1042300018684369013319D00EF0A8FC2844606166
:104240000D4B0E48B3F9006004F118010191FEF71F
:10425000DBFE0023C4E9063544F6CB730199074819
:10426000638464622684FEF797FEC1E783685B6817
:104270009847E3E7846E01002C2400207426002078
:1042800073B515468A784878402A8CBF03230223E9
:10429000984226D1CC88CB7864BA03F00F06A4B23A
:1042A000C3F30013009308312346304605F0BAFEED
:1042B0000DB9FDF75DFCF04305F1290200F00700A0
:1042C000F508012101FA00F0535DC0B23CB923EAC0
:1042D00000034EF660205355604302B070BD0343A7
:1042E000F7E74FF0FF30F8E72DE9F74F01F1080A43
:1042F000064688469146474910225046DDE90CB7EC
:104300001D460FF09AF9002800F08180BBF1000FE4
:104310007DD05FB197F86A30DB0707D50822A9186E
:1043200007F118000FF089F9002867D1EC88002CFC
:104330005FD05B464A464146304600F0F1F9B6F997
:10434000A611504600F052FC044600285DD000F152
:10435000180705F108080822414638460FF06DF9A4
:1043600028B1B4F8683003F4C063002B4BD1AB68BC
:10437000A361D8F804307B60ED88274B2748B3F958
:10438000007004F1580101916DBAFEF73DFE002363
:10439000A365ADB24EF660235D4344F6C973A4F83D
:1043A000623001991D48E5656466A4F86070FEF707
:1043B000F3FDB4F8683013F007030ED0062B0CD0D1
:1043C0000EB9FDF7D5FB154804F12801FEF71CFED8
:1043D00003222146304600F089F9B4F8683023F40E
:1043E000C06343F48063A4F86830002003B0BDE8E4
:1043F000F08F67B1384600F055FCF6E7B7F8683043
:1044000003F4C0631BB10120F0E70220EEE70420B3
:10441000ECE700BF4A5001002C2400207426002045
:1044200073B5069E1C460BB9FDF7A2FB0025CDE92E
:104430000065FFF725FEC31EDBB2012B0AD9E18818
:1044400049BA2B4604F1080289B202B0BDE87040B7
:1044500007F06EBA284602B070BD00002DE9F041A9
:104460001F460B4B144605460E460A48B3F900801A
:104470001146FEF7C9FD0023C4E900376681E560F7
:10448000A4F8088021460348BDE8F041FEF784BD4A
:104490002C2400207426002038B50446154699B116
:1044A00090F86C209A4205D01A46023120300FF065
:1044B000C4F858B9B4F86810B5F9A601C1F30411ED
:1044C000081A18BF012038BD0846FCE70120FAE7AA
:1044D0002DE9D041804685B016461F460C4609B9E5
:1044E000FDF746FBB1F9A611002000F061FD56B3BF
:1044F000D4F8E420D20426D528B30068B4F9A62164
:10450000B0F86830C3F304139A421CD1394608301E
:1045100008F0C7FAB8B1D4F8E430DB0710D594F846
:10452000002102AB04F1F801204604F06BFC0828DE
:1045300006D1002302AA0F21184607F0F9F918B98D
:1045400005B0BDE8D081002000903B4632462146B0
:10455000404603F0B9F9F3E770B50446B0F86800D7
:10456000C0F304100E4603F07AFD054608B9FDF7C6
:10457000FFFA03F07FFD16B1002384F86B3004F1DD
:104580000803184600222946FFF7A2FFD5F8D830C5
:1045900004F1280244F6C0712046FFF75FFF284669
:1045A00003F06FFD94F86B30013384F86B3070BD0D
:1045B0002DE9F043B0F8683013F0070585B00446E4
:1045C000884678D06A1E012A70D8C3F3041003F01D
:1045D00046FD44F6C1710746204601F01DF88146AC
:1045E0000FB9FDF7C5FA384603F044FDD7F8D86097
:1045F000B14555D9B8F1000F02D0002384F86B30D3
:10460000012D26D194F86B2040F2DC51023A4FF490
:10461000FA705FFA82F80AF049FBA0F5FA73B3F575
:104620007A7F8446DDD2B8F1110FDAD805FA08F2A4
:10463000A2FB0651A5FB000500234FF47A720CFB88
:1046400001510EF04FFC4EF66023984228BF1846E9
:10465000064640F2FF220023CDE900234FF080738D
:104660000293FF238DF80C30637D8DF80D30E38AC3
:10467000ADF80E3000226B46394604F10800FFF712
:1046800027FF334604F1280244F6C1712046FFF7A4
:10469000E5FE94F86B30122B9CBF013384F86B302D
:1046A000384605B0BDE8F04303F0EBBC05B0BDE80B
:1046B000F043FFF751BF05B0BDE8F08310B50446E5
:1046C000D0F8BC0000EB500140080AF0EFFA04F10A
:1046D0007802C4F8C000044B204644F6CE71BDE811
:1046E0001040FFF7BBBE00BF00DD6D00B1F86830C1
:1046F00023F00703134370B50446A1F868300D4654
:10470000164603F0B7FC34B1A36F23B1324605F16E
:104710000801032098472046BDE8704003F0B1BC73
:104720002DE9F84390469946054608B9FDF720FA69
:1047300001F10807B0F9A611384600F057FA04460F
:1047400028B190F86A3013F0010F08BF0024D5F8A3
:10475000E430DA07EAD595F8A501494608F018FCD7
:10476000061E25DB002C49D094F86C30B34207D1EB
:10477000324609F1020104F120000EF05EFF98B10B
:10478000D5F8E42041F20203934303D198F80030B6
:10479000852B09D0234804F12801FEF735FC0322BC
:1047A00021462846FFF7A2FF94F86A30DB0701D4C0
:1047B000BDE8F88398F80030862B18D1B4F868204B
:1047C00042F00802A4F86820D5F8E41041F2020291
:1047D0008A4301D1852BEBD084F86C60324609F115
:1047E000020104F12000BDE8F8430EF036BF872B2C
:1047F000EAD0B4F8682022F00802E3E7B5F9A61180
:104800000322384600F0A4FA04460028D0D098F8D5
:104810000030872BC8D1B4F8683023F00803A4F81F
:104820006830C1E774260020B0F8682002F0070362
:10483000022B10B504460BD0052B17D0012B06D147
:10484000B4F8683013F4C06F0AD01B0708D410BD49
:1048500090F86B30022B03D9BDE8104000F022BA6B
:1048600020460021BDE81040FFF7A2BE90F86B3053
:10487000022BE5D9C2F3041003F0F1FB012221461B
:10488000FFF734FFDCE738B50446B0F8680000F005
:104890000703042B12D0062B12D10325C0F30410FA
:1048A00003F0DDFB2A462146FFF720FF052D07D147
:1048B00020460121BDE83840FFF77ABE0525EDE727
:1048C00038BD70B505460C460622FFF70FFFD5F838
:1048D000D43004F12802204644F6C771BDE8704088
:1048E000FFF7BCBD2DE9F84F054616461F460C469E
:1048F00009B9FDF73DF90028FBD06BB1D0F8E430E1
:10490000D907F6D590F8A501394608F041FBB0F17A
:10491000000802DABDE8F88F9846B4F8689009F00C
:104920000709B9F1020F0FD096F800A0BAF1880F6D
:1049300002D133799A0607D443462A46394620469F
:10494000FFF7AAFD002851D067B384F86C80424677
:10495000B91C04F120000EF080FE3378882B02D1C0
:1049600033795B0621D43C4804F12801FEF74CFB67
:10497000032221462846FFF7B9FE3378882B0CD155
:104980003279900664D5B4F86830110654BF23F02C
:10499000080343F00803A4F86830DFF8C0B04FF014
:1049A000000A0EE084F86C70D7E721462846FFF72E
:1049B00088FFE2E7D9F80400092104F0FFFEC9F8F6
:1049C00004A0D4F80490B9F1000F1ED0D9F800303B
:1049D000636040F20222D9F80430C9F800A05946B9
:1049E000022003F05BF90028E9D1E3E7BAF1880F70
:1049F00090D1B9F1000F8DD033795B068AD521466D
:104A00002846BDE8F84FFFF75CBF3378882B81D18B
:104A100033795A063FF57EAFB4F8683003F00703E8
:104A2000062B7FF477AF43462A4639462046FFF7E8
:104A300033FD00283FF46EAF04F128010648FEF76D
:104A4000E3FA214628460322BDE8F84FFFF74EBEA1
:104A5000B9F1020FA1D196E7742600200000FFFFF4
:104A6000B0F8680000F007000138012894BF00206A
:104A700001207047CB08C943C25C01F00701012344
:104A800003FA01F10A4214BF18460020704730F9BA
:104A9000081FFCF757BD000008B5044910220EF0AE
:104AA000CCFDB0FA80F0400908BD00BF4A500100BB
:104AB00013B5044668B1083108460191FFF7ECFFD1
:104AC000019930B9204607F0ECFF00F0010002B078
:104AD00010BD0120F9E70000064A13683BB11868D1
:104AE000834219BF02681A6000231360704718469A
:104AF000704700BF7026002090F86A1011B970222C
:104B00000EF0B9BD704770B5044610460E46154606
:104B1000FFF7F2FF54B1234605F1080204F110013A
:104B200053F8040B42F8040B8B42F9D11F2E01D924
:104B3000FDF71EF8B5F8683023F4F87343EA061160
:104B4000A5F8681070BD000001490248FEF77CBA64
:104B50008F4A0000742600200148FDF78BB800BF83
:104B6000902600200148FDF789B800BF902600205C
:104B70002DE9F041124C06460F4604F5E068002589
:104B8000B4F86830C3F304139F4211D025B994F8E8
:104B90006A30002B08BF25467034A045F0D125B1FE
:104BA0002A4639463046FFF7AEFF2846BDE8F08179
:104BB00021463046FFF77CFF0028E7D02546EFE787
:104BC0009826002028B17030064B984203D300206D
:104BD00070470548F8E790F86A20002AF8D170304D
:104BE000F3E700BF982D0020982600202DE9F04122
:104BF0008846074608B9FCF7BBFF124C002625463D
:104C000094F86A3043B97036B6F5E06F04F1700479
:104C1000F6D10020BDE8F081B4F8683013F4F87FD5
:104C2000C3F3041204D0B8F1000F01D09045EAD1CB
:104C3000394604F1080007F034FF0028E3D0A81932
:104C4000E8E700BF9826002073B50446B0F8680076
:104C5000C0F3041003F003FAB4F86830D0F8D4605D
:104C60000E4823F0070343F00603A4F868300C4B0A
:104C700004F12801B3F900500191FEF7C5F90023B2
:104C8000019906486463C4E90A3644F6C77363862B
:104C9000258602B0BDE87040FEF77EB9742600207C
:104CA0002C240020F8B590F86A3023F00103044664
:104CB00080F86A3000F138012348FEF7A5F9224850
:104CC00004F12801FEF7A0F91F4804F14801FEF79E
:104CD0009BF91D4804F15801FEF796F96568002715
:104CE000A5B163682E689D4208D1666068682F6030
:104CF000762104F063FD6F603546F1E71A461B68C4
:104D0000002BF3D09D42F9D11660EFE70F490A68F6
:104D100022B113689C4206D1FFF7DEFE2046BDE8B3
:104D2000F840FFF7E9BE13461B681868844202D0BA
:104D30009A42F9D1F2E7002BF0D022681A600A6893
:104D4000944208BF0B60E9E774260020702600201B
:104D50002DE9F0470F46064608B9FCF709FF02F0B7
:104D600007052B1F022BF8D9FFF702FF0446002886
:104D70004BD1FFF7B1FE8246002863D0DFF8C89020
:104D8000804698F86A4034F001042DD1B8F86830B4
:104D900003F4C06383B94046FFF784FF42463946B7
:104DA0003046FFF7B0FEB8F868302B43A8F86830FB
:104DB000012388F86A304446D9F80030B3B11B6843
:104DC000C8F80030D9F80030C3F80080C9F8008076
:104DD000C4B9FFF781FE82458046D2D1D9F80030B0
:104DE0003BB9C8F800800BE00024E5E7C8F8008074
:104DF000ECE71B68C8F80030D9F80030C3F8008031
:104E0000C9F800802046BDE8F08790F86A30DA07DC
:104E10000AD4B0F8682022F007022A4343F00103C5
:104E2000A0F8682080F86A302368002BEAD1064B8E
:104E30001A682AB1126822601A6814601C60E1E7DF
:104E40002460FBE70446DDE770260020F8B50C4639
:104E5000054600B109B9FCF78BFE0A4600F10803CC
:104E600000F1180153F8040B42F8040B8B42F9D1FE
:104E7000B5F8687019492783082220460EF0DDFB3B
:104E800004F1100638B12378FF2B1DD1637803F0AD
:104E90000F03022B18D1C7F3041003F0E0F8002829
:104EA000D9D0D0F8E430D9040ED59A070CD4DB075A
:104EB00005F11001CFD590F8A501324608F03EF873
:104EC000002801DBA076F8BD95F86C20A27605F1EC
:104ED00020013046BDE8F8400EF0BFBB1A5001007B
:104EE000F8B5164C256807460E46ADB1B5F86830E2
:104EF000C3F30413994201D00020F8BD05F1080165
:104F000007F0CFFD0028F7D095F86A3043F008038A
:104F100085F86A302046F0E7FFF72AFE0246206057
:104F20000028E9D031463846FFF7EDFD226892F8B7
:104F30006A3043F0080382F86A30EBE75C24002013
:104F4000036810B504468BB1011D0C48FEF75CF8F0
:104F5000206890F86A3023F0080380F86A30FFF781
:104F6000CBFD1422002120460EF085FB044B1A686D
:104F7000A24204BF00221A6010BD00BF74260020A8
:104F8000982D002028B11430074A904203D3002006
:104F900070470648F8E703681BB193F86A30002BA6
:104FA000F6D11430F1E700BF702400205C2400200B
:104FB00010B520B10E4B1C682CB9002010E0002960
:104FC000F8D1FCF7D5FD29B1B4F86830C3F3041368
:104FD0009942F2D128B994F86A301B07F1D50448F8
:104FE00010BD04F1080107F05CFD0028E5D0F2E7F0
:104FF0005C24002010B5134C2168B9B10B68B3F8DC
:10500000683003F00703013B012B0DD80020FFF7A8
:10501000B9FF68B90846FFF7B5FF01B110B9002024
:10502000FFF7B0FF20600146084610BD0846EEE7D6
:105030000368B3F8683003F00703013B012BF1D894
:10504000E5E700BF982D002038B50C46054610B1A5
:10505000036803B109B9FCF78BFD1022002120463B
:105060000EF009FB124A12680023AA4284F820308D
:1050700009D12B68B3F8683003F00703013B012B1B
:1050800094BF0023012384F821302B6804F1100120
:1050900003F10802183352F8040B41F8040B9A424A
:1050A000F9D12B68B3F86830C3F30413638438BDB7
:1050B000982D00202DE9F84F05468A461F46914657
:1050C00032B11046FFF7E8FC10B97B1E7F2B01D9E7
:1050D000FCF74EFD354E0446834696F83520D6F84B
:1050E000008097422CD1B8F1000F5AD0B8F8682050
:1050F000C2F30412924528D141462846FFF7D8FC56
:1051000018B34946301D07F0E2FC87421DD84DB167
:1051100008F1080805F1100255F8041B48F8041BB3
:105120009542F9D14FEA8B13204AD25892F86A304F
:1051300043F0400382F86A3034462046BDE8F88FD9
:105140001CB9B8F1000F08BF34460BF1010BBBF1DD
:10515000080F06F14006C0D1002CEED0514628467B
:10516000FFF706FD0646206028B90146402220468A
:105170000EF081FAE0E7024651462846FFF7C3FCED
:105180002046FFB250F8042B92F86A3043F04003F7
:1051900082F86A3049463A4607F0B9FC84F835701F
:1051A000CBE7002C08BF3446CFE700BF70240020B7
:1051B00010B504460068C8B10D4B08229C4202D0CD
:1051C000196888420BD0013A03F14003F6D190F8F8
:1051D0006A3023F0400380F86A30FFF78DFC2046E8
:1051E0004022BDE8104000210EF045BA10BD00BFBE
:1051F0007024002028B14030064B984203D3002091
:1052000070470548F8E790F83420002AF8D140307C
:10521000F3E700BF7026002070240020054B984261
:1052200006D303F5007398422CBF0020012070477D
:10523000002070477024002038B5034610B1026882
:1052400002B109B9FCF794FC021D03F114040846ED
:1052500052F8045B40F8045BA242F9D193F8352080
:1052600081F82020002481F821401A68B2F86800F3
:10527000C0F30410488493F83430042B01F110007B
:1052800005D121461022BDE838400EF0F4B902F1F4
:1052900008030146183253F8040B41F8040B9342FB
:1052A000F9D138BD2DE9F04788461646074600B1CA
:1052B0000AB9FCF75DFC1F4D0024A14605F5007AF4
:1052C00095F834305BB13946281D07F000FC48459D
:1052D00005D995F8353083429CBF81462C46403530
:1052E0005545EDD134B194F83430042B1CD1E38E04
:1052F000DB0719D4FFF77EFE88B9ACB9204602F06F
:105300009FFE044618B96FF07100BDE8F087A36FE7
:10531000002BF3D04246394601209847EEE731464C
:10532000FFF792FE0020F0E731462046FFF784FFAA
:10533000F8E700BF7024002038B5044600F11401DE
:105340001148FDF761FE94F8343023F0040384F82B
:1053500034302046FFF72CFF0C49641AB4F5E07F87
:1053600011D80B4DA411214605F12800FFF782FB4F
:1053700048B184F007040121A14095F8284024EAAF
:10538000010485F8284038BD7426002070240020D0
:10539000302400202DE9F341044600F114011748A0
:1053A000FDF732FE2368B3F86800C0F3041002F082
:1053B00056FE0546E0B100F11606211D304694F870
:1053C0003580019107F083FB05F12607804501999F
:1053D00098BF94F83580384688BF002607F077FBE1
:1053E000804501D926B137463946284603F034FABC
:1053F000204602B0BDE8F041FFF79EBF74260020B2
:1054000038B5044608B9FCF7B3FB0B4907F049FB74
:1054100078B90948FFF740FB60B12346064C03F119
:10542000100518685968224603C20833AB42144677
:10543000F7D1014838BD00BF3024002070B558B303
:10544000174907F02EFB48B3164D174E002421468E
:105450003046FFF70FFBD8B90134082C05F14005A1
:10546000F5D10024114E254621463046FFF702FBB8
:1054700048B90134102CF7D1BDE8704008482C22FF
:1054800000210EF0F8B8E0B204F0AAFD0574F0E7D0
:105490002846FFF751FFDFE7FCF76AFB70BD00BF4E
:1054A000302400207024002058240020592400209B
:1054B00008B520B119B191F834305B0701D4FCF77D
:1054C00057FB084BC91AB1F5E07F0AD889110123AF
:1054D00081F0070103FA01F190F82830194380F8B0
:1054E000281008BD7024002070B539B10E4BCB1ABE
:1054F000B3F5E07F02D90024204670BD0A4E0C4669
:1055000000F128052046FFF775FE04460028F2D07A
:1055100094F834305B07F5D5A11B89112846FFF7B5
:10552000A9FA0028EED0E7E77024002038B538B19A
:1055300000F12C04074DAC4204D30024204638BDB2
:10554000054CF7E72046FFF7A7FA0028F6D02C34E1
:10555000F1E700BF5C240020302400202DE9F34156
:105560001F4613460A4601460020089EFFF7A2FD8B
:10557000054600283ED090F83430B74243F004038B
:1055800080F8343001D2FCF7F3FA07EA0604601C15
:1055900038D01E4B1868436901332FD00DF0F6FA4E
:1055A000711C04461DD01A4B1A48B3F9008005F14E
:1055B00014010191FDF728FD0023C5E9053644F6E5
:1055C000CC7301991348EB832D62A5F81C80FDF77D
:1055D000E3FCB21C05D03319013301D104B101360B
:1055E0002644FB1C10D83B19013308BF01373C444B
:1055F000C5E90E46284602B0BDE8F08183685B68C5
:105600009847CDE72646F3E73C46F1E7846E010074
:105610002C2400207426002010B50A4B9B690246FA
:10562000002013B94FF0FF3010BD5C6820445C8946
:105630008C4204D1002AF7D0DC689442F4D01B6875
:10564000EFE700BF74260020044B1868436901335C
:1056500001D00DF09BBA83685B681847846E010027
:1056600073B504460E46FFF7EFFF23680546B3F80F
:105670006800C0F3041002F0F2FCA26B531C1EBFC2
:10568000521B4FF47A73B2FBF3F2E36B591C1EBF4B
:105690004FF47A715B1BB3FBF1F3E18E11F001055E
:1056A00006D0D0F8E40010F4805F14BF00258025F8
:1056B000890748BF45F04005CDE9005694F83510FC
:1056C000201D02F0B5F802B070BD00002DE9F743CF
:1056D000D0F8E440B0F9A65114F4805480460E4648
:1056E00071D000273C464FF0010906EBD40393F834
:1056F0002920E34303F0070309FA03F31A4211D008
:10570000E0B204F06DFC034660B1428A417C007C4B
:10571000009706F024F9074620B90026304603B06A
:10572000BDE8F0830134102CDFD10024214630463F
:10573000FFF7DAFE0446B0B9D8F8E4309A0520D570
:1057400041F2020232EA03031BD1FFF77DFF1F4B38
:1057500003447361214630693B46324603B0BDE8DD
:10576000F04306F021B92368B3F86830C3F304139B
:105770009D42DBD13946FFF773FF07460028D5D19C
:10578000CBE77469FFF760FF4EF66021241AB4FB83
:10579000F1F4A1B2DFE794F834305B070CD523684D
:1057A000B3F86830C3F304139D4205D13146FFF7C7
:1057B00057FF06460028B0D02046FFF71BFD0446E1
:1057C0000028E8D1AAE72646F6E700BF0046C32333
:1057D000F7B51446D0F8E42041F20203934305469E
:1057E0000F4621D014BB2146FFF770FF00902346DF
:1057F0003A460021284602F0A1F911E094B9314659
:105800002846FFF763FF009023463A4600212846CA
:1058100002F094F93046FFF789FE06460028EDD1E4
:1058200003B0F0BD0020EEE70026F3E70020DDE73F
:1058300038B50546B0F86800C0F3041002F00FFC5C
:10584000044608B9FCF794F902F014FCD4F8E430EB
:105850005B0705D5002205F108012046FFF7B8FFD8
:105860002046BDE8384002F00CBC0000F7B5044605
:1058700002F000FC0CB9FCF77BF9D4F8E430DA0450
:105880004AD4284F284894F8DE60394609F00EFAC9
:1058900044F6C67105462046FFF7BEFEFC2E01D930
:1058A000B84203D8D4F8E4305B0735D5FC2E94BF5A
:1058B0000022012200212046FFF78AFFFFF7C4FEE5
:1058C00094F8DE30C4F8CC00022B1AD9FC2E1DD877
:1058D000164B1748B3F9006004F17C010191FDF704
:1058E00093FB0023C4E91F3544F6C67301991048A1
:1058F000A4F88630C4F88840A4F88460FDF74CFB17
:105900000AE0B5F57A5F28BF4FF47A550133DBB270
:1059100084F8DE30002BDBD1204603B0BDE8F04038
:1059200002F0AFBBC0270900700503002C24002043
:1059300074260020002280F8DE20D0F8E42042F017
:105940000402C0F8E420FFF791BF73B514460E4679
:105950000546FFF779FE0A30C4E90E000021204613
:10596000FFF77EFE0023009032461946284602F0DB
:10597000E5F802B070BD000010B50A4908220446DF
:105980000DF05BFE48B12378FF2B08D1607800F062
:105990000F00831E5842584110BD0120FCE7002033
:1059A000FAE700BF1A50010038B5044608460D4614
:1059B00002F0CCFD206060B102F05CFB206829465B
:1059C00002F0C5FC002804DB236803441B7D5B0751
:1059D00001D14FF0FF3038BD2DE9FF4105460E469D
:1059E00017460021102268460DF045FED5F8E43038
:1059F000D80739D595F8002102AB05F1F801284602
:105A000003F085FA00282FDB3A463146684607F056
:105A10007EF86946284602F09AFC041E27DA07231E
:105A20003A466946284602F0FFFD041E1CDB4FF093
:105A30000108D5F8E470F90416D53046FFF79CFF4D
:105A400030B12A19137D23F01F0343F0100313759F
:105A5000B8F1000F08D0BA0501D5BB0704D405EB97
:105A600004101630FEF79AFA04B0BDE8F0814FF04A
:105A70000008DEE770B50D4688B0044602F0ECFE83
:105A80002846FFF779FF002863D0D4F8E45015F0DA
:105A900001050BD094F8002104AB04F1F801204675
:105AA00003F035FA0028D4BF00250125204602F076
:105AB000E8FA02264FF40173CDE90063B4F9A601B8
:105AC0000DF10E030022052102F0BCF8002842DB94
:105AD000BDF80E1006A807F035FBBDF80E30B4F97E
:105AE000A601082B40F20322CDE9003218BF31464F
:105AF00006AB4FF0000208BF032102F0A3F8C64333
:105B0000F60F204602F0B6FA1EB3EDB1DDE904133C
:105B1000D4F81E00D4F822209A4208BF884204D14B
:105B200004F11601204602F097FEDDE90413D4F8D3
:105B30002E00D4F832209A4208BF884204D104F1E2
:105B40002601204602F088FE044940222046FFF745
:105B500043FF08B070BD0026D3E700BF1A50010014
:105B60002DE9F04389B001460446002503A80395BA
:105B7000FFF71AFF061E36DB40F2FF220023CDE9B5
:105B800004234FF080730693FF238DF81C30637B52
:105B90008DF81D30E389174A0399ADF81E30204671
:105BA00004ABFEF795FC711C039C134B1348B3F92F
:105BB0000080D4F8D89009018F1D9C3121440191B7
:105BC000FDF722FA04EB0610274444F6D273C0E92D
:105BD0002B59A0F8B630C0F8B870A0F8B48001997D
:105BE0000648FDF7D9F9039808B102F04AFA09B05E
:105BF000BDE8F0834A5001002C24002074260020C8
:105C000007B50023014601A80193FFF7CDFE031E4F
:105C1000019806DB03441A7D22F01F0242F01002B5
:105C20001A7508B102F02DFA03B05DF804FB00000C
:105C30002DE9F0411F460B4B144605460E460A4817
:105C4000B3F900801146FDF7DFF90023C4E90037FE
:105C50006681E560A4F8088021460348BDE8F0416C
:105C6000FDF79AB92C2400207426002010B50A49AB
:105C7000082204460DF0E1FC48B12378FF2B08D13F
:105C8000607800F00F00831E5842584110BD01207B
:105C9000FCE70020FAE700BF1A50010008B50449EC
:105CA00010220DF0CAFCB0FA80F0400908BD00BF18
:105CB0004A500100002103F081BD08B5FEF796FFB0
:105CC00028B190F86A3013F0010F08BF002008BD1A
:105CD0002DE9F74F0C9C0746904699460D46C9B1F1
:105CE00091F8A5310A2B15D14B4600F1100257F857
:105CF000041B43F8041B9742F9D1B5F8A6311B01E8
:105D0000A9F81830002389F81A300126304603B06C
:105D1000BDE8F08FECB12046FEF7A2FE0646C0B10A
:105D2000B4F8683003F00703032B0DD10422214699
:105D30002846FEF7DBFC41F2883304F1280244F6E2
:105D4000C8712046FFF774FF49462046FFF77EF8EA
:105D5000DCE74A4629463846FEF7E0F806460028C2
:105D6000D4D12CBB5DB1B5F9A61102223846FEF79D
:105D7000EFFF044628B94046FFF79CFFC6E72946D7
:105D8000F3E72DB1AB6F1BB10222394603209847D0
:105D90004FF00109B8F1000F17D0B4F8683003F0E4
:105DA0000703022B1CD07621404603F007FD0CE0D0
:105DB000B4F8683003F00703012B0FD1032384F8F4
:105DC0006B308146B8F1000FEDD1D5F8E430DB043B
:105DD0009CD449462046FEF7EBFB97E78146D9E77E
:105DE000DFF864B04FF0000A0BEBCA077B686BB9B1
:105DF000C7F8048085B900234BF83A30636803B3D1
:105E00001A461B68002BFBD11760DEE70AF1010A76
:105E1000BAF1100FE8D1AEE71A461946184603F05A
:105E200087F930B901904046FFF744FF019B7B6042
:105E30006CE74268B5F8A61151807A680260786014
:105E4000D9E76760C1E700BF9C2D0020044B1868AC
:105E50004369013301D00CF099BE83685B68184731
:105E6000846E0100F0B5036885B00446B3B193F8C1
:105E70006A20120712D5B3F8686008330FCB6D465D
:105E800085E80F002046FFF75BF80024C6F30416F0
:105E900027462046FFF7AEF9044608B905B0F0BD25
:105EA00020680028F5D0B0F86830C3F304139E4290
:105EB000EFD12946083006F0F4FD0028E9D0226829
:105EC00084F8347092F86A3023F0400382F86A3024
:105ED0002046FFF76DF9DCE741F2020383430CBF74
:105EE00001200020704708B510F4007304D0FFF7BC
:105EF000F3FF00F0010008BD1846FAE7D0F8E420EF
:105F000008B51046FFF7EFFF20B9530704D5C2F3D9
:105F1000003008BD0020FCE70120FAE738B5084C46
:105F2000FEF71AFEA16929B10D682046FDF76CF84D
:105F30002946F8E7FEF708FEBDE83840FEF712BE36
:105F40007426002038B5044608B9FBF711FE02F0AC
:105F500091F847F23053C4F8D03004F11400002512
:105F6000FEF7ACFB154984F8DF5084F8E05020467A
:105F700002F003FB1249204602F0FFFA20461149C5
:105F80004022FFF729FD2046FFF7B8FF88B14FF404
:105F90007A71284608F08AFE04F19C02034644F612
:105FA000C3712046FFF744FE2046BDE8384002F0AA
:105FB00068B82046FFF75AFCF6E700BF0A50010018
:105FC000FA4F01001A50010037B50D46044608B9D2
:105FD000FBF7CEFD02F04EF81F4804F18C01FDF7EF
:105FE00013F82046FFF78AFF40B31B4804F19C01D9
:105FF000FDF70AF804F1160108460191FFF736FE95
:10600000019910B1204602F027FC04F12601084650
:106010000191FFF72BFE019910B1204602F01CFC04
:1060200020460E4902F0B8FB20460D4902F0B4FBB1
:10603000204603B0BDE8304002F023B8064804F122
:106040007C01FCF7E1FF002DD4D0FD2384F8DE3085
:106050002046FFF70BFCCDE774260020FA4F010025
:106060000A50010010B5044608B9FBF781FD02F0A3
:1060700001F84FF47A73C4F8D83094F8E13043F063
:10608000010384F8E1304FF4E163A4F8DC304FF011
:10609000FF33C4F8CC30002384F8DE30D4F8E43089
:1060A00043F4007343F002032046C4F8E43002F0E6
:1060B000C8FE2046BDE8104001F0E3BF2DE9F047DF
:1060C0000C468CB0054608461746994601F0D2FFAB
:1060D000FEF742FD4CB3B4F9A6112846FFF7EDFDDB
:1060E0000646002800F0CD80B0F86880C8F3041898
:1060F0002846FFF7BBFD00285FD1B8F1000F5CD048
:10610000204601F0BEFF404601F0A9FF0446FEF71D
:1061100029FD204601F0AEFFFEF71EFD94BB002FC7
:106120004ED13C466FF075063EE02146D5E708F1BA
:106130000401284606F0CBFC98F83530984207D386
:10614000BAF1000F1AD09AF835209A4238BFC246E9
:106150004046FFF74FF880460028E8D1BAF1000F1B
:1061600036D09AF834305A0732D5BAF83630DB07D1
:106170002ED5DAF80030B3F86880B7E7C246E7E713
:10618000B046B5E7B4F9A6112846FFF796FD0646D6
:1061900000964B463A4621462846FFF799FD0028CF
:1061A00014BF00266FF07506FEF7DCFC204601F0F8
:1061B00068FF30460CB0BDE8F087002CE8D1AEE7B0
:1061C0007621384603F0FAFA6FF075060024EBE703
:1061D00003AA39462846FFF765F8061E2EDB07A8F6
:1061E000FFF75CFD58B14EBB07AA05F1100C2868FB
:1061F0006968134603C3083565451A46F7D12CBBB9
:10620000BDF92E0001F02BFF0446FEF7ABFC204643
:1062100001F030FFFEF7A0FC3CBB214607A8FFF7CA
:106220004CFD4B4600903A46214607A8FFF750FD2B
:1062300000283FF477AFDCB9FBF79AFC1FB172215D
:10624000384603F0BBFA6FF07106ADE7B4F9A6214A
:10625000BDF82E309A4208D0204601F012FFB4F962
:10626000A621BDF82E309A42CAD1B4F9A611D5E7BD
:10627000A36F002B98D09DF82C2003A902209847EB
:1062800092E72846FFF7F2FC00287FF479AFB24688
:10629000B0465DE72DE9F04F2DED028B8B4689B0BE
:1062A00092469946044608B9FBF762FC01F0E2FE0B
:1062B000FEF752FC9AF80020853A032A00F29380F8
:1062C000DFE812F004009B009202A803D4F8E42057
:1062D000900740F188809BF80720FF2A40F08380D8
:1062E0009AF80120002A7ED1B9F1070F7BD9A9F1D4
:1062F00008080AF108073E4645460BF108033DBB76
:106300000BF108063046FFF7C9FC40B9B8F1000FA1
:1063100033D1B4F9A6113046FFF7CFFC0546D4F8C7
:10632000E43013F4805055D14FF4FA7108F0BEFCFC
:1063300044F6C67106462046FFF76EF9864252D8EB
:1063400075B3334605F1480244F6C57128463EE070
:10635000A94548D37178002945D03278012A07D160
:10636000184603910293FFF799FCDDE90231D0BB97
:10637000A5EBC10506EBC106C1E73B78012B09D1AE
:10638000D4F8E430D90405D43B4652465946204659
:10639000FEF7C6F97B78A8EBC30807EBC307B5E7A0
:1063A000FFF754FDD4F8CC30BA4A934203D940F6F3
:1063B000B732904203D9A0F6B830834201D206F634
:1063C000B836334604F17C0244F6C6712046FFF726
:1063D0002FFC08E003F00603062B04D1002231460F
:1063E0002046FFF7F5F9FEF7BDFB204609B0BDECEE
:1063F000028BBDE8F04F01F044BE0BF108031846D4
:1064000008EE103AFFF732FC0028ECD09BF807208A
:10641000FF2AE8D19AF80120002AE4D1B9F10F0F40
:10642000E1D9D4F8E420D20407D4BAF8062052BA4D
:1064300092B242F228318A42D5D8A9F110030AF16A
:10644000100503932A4619460027002940F0AA8028
:10645000002F00F0BA803846FDF7C4FE0028C2D0F5
:10646000FE8876BA42F21073B6B2002E08BF1E46FE
:106470004EF660235E430746D4F8E400FFF733FD91
:10648000B4F9A611002840F0A380BAF806801FFADC
:1064900088F3002B00F09C8018EE100AFEF720FD18
:1064A000029000289FD098FA98F84FF47A731FFA58
:1064B00088F803FB08F802464346043244F6CD71DF
:1064C000FFF7B6FB464528BF46469AF804300BB1A5
:1064D00084F8A431DAF808309BB193FA83F8D4F841
:1064E000D03098450DD020466B4B04F18C0244F619
:1064F000CE71FFF79DFBC4F8D08004F11400FEF7C5
:10650000DDF8DAF80C3013B11BBAC4F8D830029BAE
:10651000B3B1D4F8E400C30412D5FFF7E4FC78B9B2
:10652000237D13F0EF0F03D004F11600FDF736FDC5
:10653000637D13F0EF0F03D004F12600FDF72EFD6D
:10654000039B002B51D1029B002B3FF44CAFFCF777
:106550002BFC9AF905209AF80530002A80F23C813C
:106560000120FCF717FCD4F8E400FFF7BCFC20B9CD
:106570004A4804F19C01FCF747FDD4F8E400C1044B
:106580007FF531AFFFF7AFFC00287FF42CAF20463A
:10659000FFF7D0F9B30803EB430304F19C0244F680
:1065A000C37113E78945FFF41EAF507800283FF40C
:1065B0001AAF1678232E03D1002F7FF414AF17469D
:1065C000A1EBC00102EBC0023FE74FF0FF3653E7FB
:1065D00018EE100AFEF7ECFC029000283FF475AFAD
:1065E000FFF740FC002302936FE72B78052B20D0A8
:1065F0000BD8012B16D0032B52D06B78039AA2EB49
:10660000C302039205EBC3059AE7182B20D0222B77
:10661000F3D13A4629465046FDF732FE864228BF5E
:106620000646EAE72B46524659462046FEF778F8DA
:10663000E3E76B78012BE0D19AF80030862BDCD1B0
:106640006B681BBAB3F5A06FD7D3A4F8E230D4E7D8
:10665000D5F8049005F10808404699FA89F9FFF742
:1066600005FB0028C9D1A978B9F1000F03D1404634
:1066700000F0F6FCC1E7B9F1FF3F08BF4FF0000999
:10668000CDF80090B4F9A63118EE102A404600F07B
:106690006DFCB2E747F4FFFF00DD6D0074260020BB
:1066A0006B78042B05D04FF0FF339E4228BF1E4667
:1066B000A3E79AF80030862BF5D105F1100948467A
:1066C000FFF7D4FA0028EED16B68D5F808801BBA22
:1066D00098FA88F84345E6D3D4F8E400EA78C00491
:1066E00001D51106DFD4520606D5AA78049349468F
:1066F0002046FFF771F9049B95F90320002A09DB76
:10670000D4F8E4000493FFF7E7FB0028CBD0049B08
:10671000002FC8D0AA7804926868E0B9804613E0D8
:1067200098F8343058070FD598F83530049A9342CA
:106730000AD1494608F1040006F0C9F9049B9842C1
:1067400002D34046FEF726FE4046FEF753FD804644
:106750000028E5D1A7E7591C07D0AB4A93429ABF5E
:106760004FF47A7253436FF00103B8F1FF3F08D042
:10677000A54A90459ABF4FF47A7202FB08F86FF071
:106780000108CDF800804946049AB4F9A6010593A2
:10679000FEF7E4FE8146002885D0059B2FB1014617
:1067A00038460493FEF784FE049B95F90320E978AC
:1067B000002ABEBFB9F8362042F00102A9F83620FF
:1067C0004A0642BFB9F8362042F00202A9F8362044
:1067D000434528BF434668E75D067FF5C4AE012800
:1067E0003FF4C1AE0220BCE69BF80720FF2A7FF4ED
:1067F000FAAD9AF80120002A7FF4F5ADB9F1170F30
:106800007FF6F1AD9AF80820FF2A3FF4ECAD0BF1CA
:1068100008084046FFF742FA40B17C490D220BF1CF
:1068200018000CF00AFF00287FF4DDAD0AF108061D
:106830003146204601F08BFD031E0393FFF6D3ADD6
:10684000A9F118030AF11807029339461A46D2B97A
:10685000304601F07BFE054690B301F00BFC31465B
:10686000284601F074FDB0F1000926DB05EB0903B1
:106870001B7D5A0721D04046FFF710FA78B9284609
:1068800001F0FFFBAFE59145FFF4ADAD487800287E
:106890003FF4A9ADA2EBC00201EBC001D7E705EBC5
:1068A0000911AC315A48FCF7AFFB284601F0E9FB6F
:1068B00031462846FFF7DEF895E5284601F0E1FB72
:1068C0004046FFF7EBF938B10023009342462146DA
:1068D000304601F055F886E5D4F8E430DB0705D4FE
:1068E000B4F9A61103224046FEF732FA4FF0000930
:1068F0004D460CE03B78012B2CD0212B08BFB9462C
:106900007B78029AA2EBC302029207EBC307029BB9
:10691000002BEFD1B9F1000F2AD055B100954B46AD
:10692000524659462046FDF77BFD054600283FF4B8
:106930005AAD039B234499461B7D9F065BD5B4F952
:10694000A6113046FFF7B9F90746D8B92846FFF730
:10695000B1F948E5D4F8E400FFF7BEFA30B93B4698
:10696000524659462046FDF7DBFEC9E73D46C7E7DC
:10697000002DDED02B46524659462046FDF7D0FE6C
:106980004D46D6E7D4F8E43013F0020F9BF81830E8
:106990000CBF4FF040094FF0C009FF2B28D194F8ED
:1069A00000A104F1F801524606A80CF056FEBAF117
:1069B000000F19D02A46514606A800F02FFF0028E4
:1069C000C4D0054630462A46494600F0A9FE064690
:1069D0000028BBD042460021FDF765FA804600281A
:1069E00040F0CF803046B2E749F020092846E8E77A
:1069F00049F02009E6E79BF818300095A3F1FF0560
:106A00006B426B4162E700BF378941003A50010099
:106A1000742600209BF80770FF2F7FF4E4AC9AF8EF
:106A20000120002A7FF4DFACB9F1170F7FF6DBAC51
:106A30009AF80820FF2A3FF4D6AC9BF81820FF2ACA
:106A400004D19AF8042050063FF5CDACA9F11808FE
:106A50000AF1180631464246F2B90AF108094846D9
:106A600001F074FD054630B301F004FB49462846A9
:106A700001F06DFC00281BDB2B181B7D590717D07C
:106A800005EB001000F1AC014548FCF7BDFA2846C3
:106A900001F0F7FA49460CE79145FFF4A4AC4878B9
:106AA00000283FF4A0ACA2EBC00201EBC001D3E789
:106AB000284601F0E6FAB4F9A6114846FFF7FDF8BA
:106AC000054600283FF48FAC4FF0000909E0337809
:106AD000022B31D0212B38D07378A8EBC30806EBFA
