:1010000000020020C5200000612000001D2000001B
:1010100071200000812000009120000000000000ED
:10102000000000000000000000000000012000009F
:10103000A120000000000000B51F0000B12000004A
:1010400081C300007DD3000081C300002124000083
:101050003D24000081C3000081C3000081C3000063
:1010600081C30000B5C70000BBC7000081C30000FA
:1010700081C3000081C3000081C3000081C3000060
:1010800081C30000C5C4000081C3000081C300000B
:1010900081C3000081C3000081C3000081C3000040
:1010A00081C3000081C30000C1C70000C7C70000A2
:1010B00081C3000081C300000000000000000000A8
:1010C00081C3000081C3000081C3000059240000D7
:1010D00081C3000081C3000081C300003DCD00003A
:1010E00081C3000081C3000081C300000000000034
:1010F0000000000081C30000000000007524000013
:1011000013B50B490093141E049B0A4A0A4818BFE2
:101110000A46059918F0D2FA084B4FF400721CB138
:10112000C3F8082502B010BDC3F80C25FAE700BFCC
:1011300095A5010098A501009CA5010000030050A1
:1011400070B51848184E194D86B010F0B1FD15480D
:1011500010F00EFF3060134810F01CFF7060114853
:1011600010F022FFB0600F4816F08AF9F0600FCD42
:101170006C460FC495E8030084E80300002168462C
:1011800016F09CF9002802DA094818F033FB33689E
:101190001BB173680BB1B36813B9064818F02AFB8A
:1011A00006B070BDA0030020640400208CA60100DE
:1011B000D2A50100F4A5010001282DE9F34107465D
:1011C0000D4658D04E682D49304618F0F7FB0446BE
:1011D00070B92B4D2B783BB92A492B48042210F0CB
:1011E00069FD08B101232B70204602B0BDE8F081F3
:1011F0002649304618F0E2FB044610B910F0F4FE20
:10120000F2E72349304618F0D9FB044698BB032F78
:1012100004DC29681F4818F051FA05E0184B1B78C8
:1012200023B91D4818F0E6FA0124DDE71B49A86838
:1012300018F0C4FBB0FA80F6E86817F0A9FB042F99
:101240004FEA56165FFA80F80AD0296901910846DC
:1012500018F0C6FB019902462346204616F004FA10
:1012600000223146104616F0C7F9012241460020FF
:1012700016F08CF9B8E729680948CCE717A60100F1
:101280006004002064040020A00300201DA60100CB
:1012900021A6010027A6010052A601005BCE010095
:1012A0006DA6010000B5A1B0FFF74AFF0548064C46
:1012B000082100F0A3FA8022694620460CF0C2FA09
:1012C000F9E700BF74040020C0A6010070B5064E07
:1012D000064CA41BA4080025AC4200D170BD56F8F2
:1012E000253098470135F7E790D10100B4D10100CE
:1012F00013B500200BF00CFD014608B900F000FD0D
:10130000084C20460FF078F8204610F043F8064BC2
:101310000648009401224FF480610FF079F802B082
:1013200010BD00BFB4080020D8A60100B4040020FE
:101330004FF080435722C3F81C25BFF34F8F054958
:10134000054BCA6802F4E0621343CB60BFF34F8FD2
:1013500000BFFDE700ED00E00400FA057047000063
:101360002DE9F74304460E461746EFF3108872B690
:101370000568C5B9DFF88C90051DD4E90331A26872
:101380009A1A8A4222DC1E4A12883280581C6269EC
:10139000E0600B4096E8030002EBC30383E8030020
:1013A00088F3108810E055F80C390360D1E900018A
:1013B0002B6983E8030028460C2100F0DFFA6879E6
:1013C00088F3108800F01AFB012715E097B1D9F8CF
:1013D00000000190092100F0D1FA01980146284649
:1013E00000F076FB88F3108800F052FBEFF31088D2
:1013F00072B6C2E788F31088384603B0BDE8F083C0
:10140000680A00206C0A002070B50B46044610469E
:10141000EFF3108672B6D4E902128A4219D0481C42
:10142000A060206962696568014002EBC10103C9DF
:1014300083E803000DB355F80C39636028460C218E
:1014400000F09CFA687986F3108800F0D7FA012042
:1014500012E078B10A4A156809212B61284600F08C
:101460008DFA2946204600F033FB86F3108800F001
:101470000FFBECE786F3108870BD86F31088E6E773
:101480006C0A0020F8B50446EFF3108672B6344FAC
:101490003A68536A002B5CD0D2E90630984258D0A3
:1014A000581C9061106A034039B9516929B9591C17
:1014B00003D186F310881846F8BD002B4DDB516A26
:1014C00001EBC30103C984E8030055696DB355F806
:1014D0000C195161002B0DDBD2E907349169506A78
:1014E000591A8C42A9BF591C4FF0FF332340D161D8
:1014F00000EBC3042B6993E8030084E803002B7915
:10150000062B04D186F3108821E000F0F9FB0023BC
:1015100028462B610C2100F031FA687986F3108897
:101520000E2814D800F06AFA11E0002BEADA042140
:10153000104600F023FA86F310880A4B4FF08052D1
:101540005A60BFF36F8F3B681B79042BDDD00123FA
:10155000B1E74FF0FF330029A7D01461B5E700BF12
:101560006C0A002000ED00E00346D0E9072010B52A
:101570009C69141BA04201DA002010BD541C0240DB
:10158000DC61F9D4586A00EBC20203C982E80300A7
:101590001A896FEA42426FEA52421A81184600F0F5
:1015A0005BFB0120E9E7000008B50E4B53F8213042
:1015B000A3B11A79042A0BD103C81A6982E803007F
:1015C00018460C2100F0DAF9074B0120186008BD1D
:1015D00001461846BDE80840FFF7C6BF4FF0FF3090
:1015E000F5E700BFB80A0020700A00202DE9F0419D
:1015F0001D46294B53F82140284B1B880380064683
:1016000090462CB985F310884FF0FF30BDE8F0818B
:101610002379042B36D0224B014620461F68FFF762
:10162000A3FF78B185F310883B79062B02D01D4BC0
:101630001B682BB11C4B4FF080525A60BFF36F8F69
:101640000120E3E7B8F1000F02D185F31088DDE750
:101650003B793E61062B0CBF06210521384600F080
:101660008DF904F11400394600F032FA23896FEA4B
:1016700043436FEA53432381204600F0EDFA85F39C
:101680001088D7E7D0E90001236983E803000C2123
:10169000204600F073F9F2E7B80A0020680A00203B
:1016A0006C0A0020700A002000ED00E010B5014631
:1016B000EFF3108472B6054B1B880380044B186847
:1016C000FFF752FF84F3108810BD00BF680A0020A6
:1016D0006C0A002021230380FFF766BFEFF3058328
:1016E000DBB20BB1FFF7F6BF064B1B881BB299426A
:1016F00001D1FFF7DBBFEFF3108372B60122FFF7D2
:1017000075BF00BF680A002010B4EFF3058212F025
:10171000FF0203D05DF8044BFFF7DCBF074B1B88CB
:101720001BB2994203D15DF8044BFFF7BFBFEFF343
:10173000108372B65DF8044BFFF758BF680A0020AB
:10174000114B1B881BB29A42F7B506460C4615464C
:1017500001D100F0D5FAEFF31083019372B60B4A72
:1017600017680621384600F009F996E80300019B46
:101770003C61012284E803002946204603B0BDE80D
:10178000F040FFF733BF00BF680A00206C0A00205A
:1017900038B5EFF3108572B60F4BB0F9002053F84F
:1017A00022400CB900F0ACFA2379062B04D085F363
:1017B00010884FF0FF3038BD03C9236983E8030068
:1017C00020460C2100F0DAF8607985F3108800F0EB
:1017D00015F90120EFE700BFB80A00200021FFF74C
:1017E00051BE0121FFF74EBE034B1B68586A10B172
:1017F000D3E90630C01A70476C0A002008B5064BC2
:101800004A1E1B681140586201D000F079FAC3E902
:1018100006111A6208BD00BF6C0A0020F8B5044624
:101820000D46EFF3108772B603683BB94FF0FF33F4
:10183000036087F3108801252846F8BD11B987F3A6
:101840001088F9E70F4B1E680EB900F059FA032112
:10185000304600F093F8236801330DD106F10C03F4
:1018600023600023F36087F31088074B4FF080520A
:101870005A60BFF36F8FDFE73146204600F028F94A
:10188000F1E700BF6C0A002000ED00E070B50546EE
:10189000EFF3108672B6046814B986F3108870BD31
:1018A000631C02D100230360F7E754F80C3903608E
:1018B0000C21204600F062F82B6813B94FF0FF337B
:1018C0002B60607986F31088BDE8704000F096B810
:1018D00008B503790B2B04BF0C230371836A1A68C4
:1018E000934208D0B0F90610034817F0E7FE034909
:1018F0000D2000F041FA08BDDEA601000DA7010091
:1019000070B5184C184E2368356843BB15B128468E
:10191000FFF7DEFF00F07CFB2368002BFAD00020ED
:10192000124B00221A602368114AB3FA83F352F86B
:1019300023301C680C3C0B23AC4223710DD008B142
:10194000FFF7C6FF0B4BA16AB4F906201A801F31BE
:10195000094A3460022000F0ABFA204670BD2846E8
:10196000DEE700BF640A00206C0A0020700A002035
:10197000780A0020680A0020080006160A2930B5F7
:1019800003791AD90A2B14D842791A4B53F82250EA
:1019900000F10C047DB12D68C56053F822502C6015
:1019A00043F82240144C4FF00043D34022681343C5
:1019B0002360017130BDC460F2E70A2BF9D9457983
:1019C0000C4C54F825303BB11A6893420BBF0023EE
:1019D000126844F825301A60427954F82230002BFE
:1019E000E7D1054C4FF0004323FA02F2236823EAC3
:1019F0000203DDE7780A0020640A00200B4B1B6815
:101A00001A790A2A02D95B7983420DD9EFF305834B
:101A1000DBB21BB1064B01221A607047054B4FF039
:101A200080525A60BFF36F8F704700BF6C0A00206E
:101A3000700A002000ED00E008B5EFF3108372B6E5
:101A4000084B094A1B88094C1BB2002142F823109D
:101A5000074A20681368013B1360FFF78FFF21607E
:101A600000F092FA680A0020B80A00206C0A0020F0
:101A7000740A0020431E9BB21F2B05D8034B53F85A
:101A8000200010B1C06A704700207047B80A0020DB
:101A9000EFF3108072B60B4B1B681A790A2A07D92C
:101AA0005A79094B53F8221011B1096843F82210F2
:101AB00080F31088054B4FF080525A60BFF36F8F50
:101AC000704700BF6C0A0020780A002000ED00E09B
:101AD00038B50B790A2B01D900F012F94C7901F1D4
:101AE0000C020346006818B110F8075CA542F8D94B
:101AF000C8601A6038BD031F53F8042F9A42FBD008
:101B0000181A70470F2A2DE9F84F054689461746DF
:101B1000984633D810F003031DBFC3F10402043B01
:101B20005B180B46A3F1340318BFAD1823F0030371
:101B300018F0080F05EB030417D12D6003E01260C5
:101B40000432A242FBD3EFF3108B72B62549012277
:101B500051F822600FFA82FA9EB10132212AF7D1A0
:101B60008BF310886FF08A0A38E02A46E9E70221F1
:101B70002046FFF703FF8BF310882FE06FF0150A64
:101B80002CE041F822402A46DDE90A01A4F806A02B
:101B900000F0ACF90C9B144AE3624FF0FF33C4E948
:101BA000083613682060013318F0010FC4E903669A
:101BB000C4E90566A562C4F8309067712671E661D4
:101BC0001360D4D10C212046FFF7D8FE18F0040F83
:101BD000D1D18BF310883846FFF710FF5046BDE88F
:101BE000F88F00BFB80A0020740A002008B5034B24
:101BF00053F8200008B900F083F808BD88A7010059
:101C000010B50346EFF3108472B6028902EA0100B0
:101C100022EA01021A8184F3108810BD0C4B10B522
:101C20001B68EFF3108472B61A8910420DD1186147
:101C300007211846FFF7A2FE84F31088054B4FF0EA
:101C400080525A60BFF36F8F10BD84F31088FBE79A
:101C50006C0A002000ED00E010B50379048A072B20
:101C600003D0082B0CD0002408E003891C4005D0C9
:101C70000C21FFF783FE054B01221A60204610BDA0
:101C8000038934EA0303EED10124F1E7700A00204E
:101C900013B5064B01901C68FFF7C0FF0199204661
:101CA00002B0BDE81040FFF7ABBF00BF6C0A0020D8
:101CB00010B5EFF3108472B6038902791943072A2D
:101CC000038A018104D0082A13D084F310880FE01E
:101CD0001942FAD00C21FFF751FE074B01221A607E
:101CE00084F31088054B4FF080525A60BFF36F8F1A
:101CF00010BD8B43E9D1EDE7700A002000ED00E054
:101D000008B57146034817F0D9FC0349032000F0D9
:101D100033F800BFD8A70100C6A7010008B5FFF738
:101D2000D5FA034817F066FDFFF7BCFA002008BD9E
:101D3000DCA701001FB5EFF3108372B6074B0293C7
:101D400000230193064B009307220C234FF4C0613C
:101D50000448FFF7D7FE00F017F900BF2AA80100DA
:101D60001D1D00003C0B002008B50BF027FCBDE852
:101D700008400FF023BB704708B50D4B1A680C469E
:101D80007AB901221A60FFF7F6FF2146094817F0D9
:101D900095FC0BF029FC0A2017F0A8FC064817F068
:101DA00029FDEFF3108372B600F092F8FFF7C0FA46
:101DB0003C1100202FA801004BA8010070B50D4672
:101DC00000210446FFF72AFD0D4E70B9BFF35B8F6B
:101DD000E288BFF35B8F338812B21BB29A4204D001
:101DE0006DB901212046FFF719FD3388BFF35B8FE2
:101DF000E380BFF35B8FA3880133A380012070BD14
:101E0000680A00200021FFF7D9BF000008B50F4B7A
:101E1000BFF35B8FC188BFF35B8F1B8809B21BB216
:101E2000994201D0FFF76CFF8388002BFAD0013B69
:101E30009BB2838043B9BFF35B8FC380BFF35B8FDB
:101E4000BDE80840FFF722BD08BD00BF680A0020BA
:101E50000C4B0D4A10B540219A600C4CE02283F8DF
:101E60002220D9770022A0180132302A80F80013EE
:101E7000F9D11A6942F010021A615A6942F40072EB
:101E80005A6110BD00ED00E00010000000E100E02C
:101E9000064BD3F8942042F00502C3F894205A6A06
:101EA00042F480325A620020704700BF00ED00E02B
:101EB000064B21F01F0142F00102C3F89800C3F85D
:101EC0009C100020C3F8A020704700BF00ED00E088
:101ED00008B5EFF30581C1F3080119B102481039C3
:101EE00017F0ECFB00BE08BD58A801001A4422F010
:101EF000030210B54FF0773442F8044C540758BF32
:101F00004FF08834A2F104035CBF42F8084CA2F100
:101F100008034FF0807243E902020D4A43F80C2C8B
:101F20000020032243E9052043F8201C012202245B
:101F3000194643E907246FF0020241F8242D0B22D1
:101F400041F8042D013A032AFAD1A3F1440010BD4F
:101F5000391A00000548064A064B0168914201D132
:101F6000984201D3181A70470430F6E700000020A9
:101F7000FEE7FEE700020020EFF308807047000054
:101F800000487047000000200023E1EE103AEFF314
:101F9000148323F0040383F31488BFF36F8FEFF3EC
:101FA000108362B6024B4FF080525A60BFF36F8FBE
:101FB00000ED00E0114910B50C6872B6FFF7A0FC07
:101FC00062B6A04208BF10BD2146BDE8104049B12D
:101FD000EFF309821EF0100F08BF22ED108A22E9EC
:101FE000F04F0A600068B0E8F04F1EF0100F08BF15
:101FF000B0EC108A80F30988704700006C0A00205A
:10200000024B4FF080525A60704700BF00ED00E075
:1020100030BF62B6BFF36F8F72B670470D4B0E4A7A
:102020000E496846904203D8984201D9002102E047
:1020300009468D46012104207246024202D1EFF387
:10204000088001E0EFF309802DE9F00F6B4600F006
:102050008FF800BF5801002000000420000200207B
:1020600008B502490620FFF787FE00BF67A80100F8
:1020700008B502490520FFF77FFE00BF73A80100E5
:1020800008B502490820FFF777FE00BF86A80100C7
:1020900008B502490920FFF76FFE00BF98A80100AC
:1020A00008B502490A20FFF767FE00BFACA801008F
:1020B00008B502490B20FFF75FFE00BFBEA8010074
:1020C00070477047204AD2F8883043F4700310B547
:1020D000C2F88830FFF7F4FF6A461C4B1C491C46C7
:1020E00093422DD31B4B1C48DA1C121AC11E22F03E
:1020F00003028B4238BF0022184916F0E1FE184B4C
:102100001848DA1C121AC11E22F00302994288BF35
:102110000022002116F0FCFE24B1134A13490120CD
:10212000FFF7C6FEFFF7B4FEFFF7CBFF00F03AF96A
:10213000FFF714F916F02EFEBDE81040FFF7FABDC8
:1021400043F8041BCCE700BF00ED00E000000020D6
:10215000FEE7FEE79C03002000020020E0D1010022
:10216000E8640020A0030020080006161F000020DD
:102170002DE9F04F2DED068B89B090460493594B15
:102180009A6B08EE102A5A6BD3F828A008EE902A12
:10219000DA6A09EE102A1A6BDB6B0AEE103A524B20
:1021A00009EE902A1A68514B9A420446894602D099
:1021B0004F4817F01FFBB9F1000F64D04D4817F0DE
:1021C00019FB00252E464C4817F014FB51464B488E
:1021D00017F074FA19EE101A494817F06FFA19EE51
:1021E000901A484817F06AFA1AEE101A464817F083
:1021F00065FA1AF4004F04D018EE101A434817F08D
:102200005DFA1AF0800F04D018EE901A404817F0CB
:1022100055FA404817F0EEFA3F48414617F04EFA9B
:10222000B9F1000F2BD118F0080F54D03B4B19888F
:1022300009B208460391FFF71DFC0399024638488E
:1022400017F03CFA374817F0D5FA3146364817F000
:1022500035FA6946354BC91A03D53548494217F056
:102260002DFA049E20468268C36801698C46416944
:102270008E46AD46314691E8F00F416800682D4921
:102280000720FFF779FDD4E90230D4E90012E769AD
:10229000039020690591D4E905B60AEE900AB805C5
:1022A0002548CDE9062354BF04F1200504F1240597
:1022B00017F0A0FA039B059900932048DDE9062357
:1022C00017F0FCF91AEE901A009733465A461C484C
:1022D00017F0F4F977E7217F1A48103917F0EEF973
:1022E000B0E700BF00ED00E000000020FEE7FEE7E1
:1022F000CCA80100E2A80100A7A90100B0A9010033
:10230000C0A90100D0A90100E0A90100F0A90100C5
:1023100000AA010010AA010015AA0100680A002005
:1023200027AA010066AA010097AA0100580100200F
:10233000BFAA0100ECAA010011A901002CA901000B
:1023400069A9010040AA0100BFF34F8F0549064B60
:10235000CA6802F4E0621343CB60BFF34F8F00BF43
:10236000FDE700BF00ED00E00400FA054FF0704308
:1023700093F8E02F062A12D1D3F8E40F10F00F00E3
:102380000DD1D3F8E82F02F0F002302A08D1D3F8AB
:10239000EC3F13F0F00F0CBF01200020704700202D
:1023A0007047000008B5FFF7E1FF30B1134AD2F8DB
:1023B000FC3023F08073C2F8FC30FFF7D7FF20B168
:1023C0004FF080430322C3F8A025FFF7CFFF30B1C1
:1023D0004FF080430022C3F80C21C3F8102100F015
:1023E00057F8074B0122C3F84025FFF731FDFFF7EF
:1023F000BBFCBDE808400BF0D7B800BF00ED00E023
:1024000000E00140044B1B682BB1044B4FF080529D
:102410005A60BFF36F8F7047700A002000ED00E034
:1024200008B5044A044B10681B689847BDE808408B
:10243000FFF7E8BF501100204011002008B5044A02
:10244000044B50685B689847BDE80840FFF7DABF67
:10245000501100204011002008B5044A044B906838
:102460009B689847BDE80840FFF7CCBF501100209B
:102470004011002008B5044A044BD068DB68984737
:10248000BDE80840FFF7BEBF5011002040110020FA
:1024900070470000EFF3108172B6094A13680133E8
:1024A000012B136009D14FF080420020C2F80001D7
:1024B0001360D2F80031002BFBD081F310887047F5
:1024C00060110020094A08B513680BB9FFF718FC22
:1024D000EFF3108172B61368013B13601BB94FF024
:1024E000804301225A6081F3108808BD60110020EA
:1024F0004FF08043D3F8182412F4803214D1C3F87B
:102500001825C3F8042101229A60D3F80421002A77
:10251000FBD00022C3F80C2101221A614FF0804247
:10252000D2F80C31002BFBD0704709F094BB036844
:1025300002463BB11868834219BF02681A60002343
:10254000136070471846704708B500B109B9FFF726
:10255000D7FBEFF3108272B60B6833B903686BB127
:102560001B680B60036819600160406882F3108883
:1025700030B1BDE808400121FFF79ABB0960F3E7DD
:1025800008BD08B5EFF3108172B6FFF7D0FF81F3F5
:10259000108808B10023036008BD000038B58569C4
:1025A000044685B10A4B1868436901330CD015F015
:1025B00075F923696A68C11A8A4226BF9B181B1ADB
:1025C00000236B60206138BD83685B689847F0E743
:1025D00020CF01008369084A10B5044610682BB16A
:1025E0005A68214615F0B0F9206110BD2146BDE8BA
:1025F000104015F090B900BF20CF01008369002280
:1026000010B504465A60A06930B1436823B9036825
:10261000A36163699847F6E72046BDE81040FFF7DD
:10262000D9BF000070B505460C46EFF3108672B6B0
:10263000FFF7B4FF05F118031A68EAB922601A68B7
:102640001AB151686068091A51601C60AB69A342F5
:1026500006D10D4B62681868294615F075F9286196
:1026600086F31088094B1B682BB1094B4FF0805241
:102670005A60BFF36F8F70BD616850688142DDD3CF
:10268000091A61601346D7E720CF0100700A0020C5
:1026900000ED00E070B504460D46EFF3108672B60B
:1026A000FFF77CFFA26904F118012AB92046FFF761
:1026B00091FF86F3108870BD9542136802D01146D1
:1026C0001A46F2E70B60002BF0D05A6869680A449A
:1026D0005A60EBE7034B4161C0E90230002383619C
:1026E000704700BFFD25000058B1037843B10138A1
:1026F00010F8013F0BB901207047303B092BF7D987
:102700000020704738B1054B0A0901F00F019A5CAF
:102710005B5C027043700220704700BFFFAA01009B
:10272000F8B50D465700064610B18C18A54201D1E8
:102730003846F8BD304615F8011BFFF7E3FF0644A5
:10274000F4E700000E4B994230B517D80A23012256
:102750001C468B420FD960B183180A25B1FBF5F4F2
:1027600005FB1410303003F8010D084609282146F6
:10277000F4D8104630BD63430132EAE70A22EAE7A3
:10278000FFC99A3BFFF7DEBF10B5014400220A24BF
:10279000884201D1104610BD10F8013B303B092B97
:1027A000F8D804FB0232F3E790B1D9B1002340EA34
:1027B0000102D2070ED5C20710D5CA0710D5814233
:1027C0003EBF024608461146091AF6D100FA03F147
:1027D00008467047400849080133E8E74008EAE73F
:1027E0004908EAE70146F3E72DE9F84307460D46B5
:1027F00014460AB9FFF784FA11462846FFF7D4FFBA
:10280000A042F7D8A8423BD8B4FBF0F9B5FBF0F0F2
:102810000026B0FA80FE4FF00048CEF1200528FADD
:102820000EF834463346B446CEF15F0EDB184CEB5F
:102830000C0110EA080F18BF43F001034B4571F17A
:1028400000028C464FEA44044FEA580811D3B3EB18
:10285000090361F1000C44F00104002C0CDA53EA86
:102860000C0300D00134C5F120053C603D71BDE88A
:10287000F883002CF1D1013D01367645D6D3EEE741
:1028800000252C46EFE7F8B5048906460F461546A5
:1028900000200DB1B54218D132897168002308F0CB
:1028A0006CFE04F13A030344B3F5803F24BF0130CA
:1028B00080B2796820443A3000232022083180B267
:1028C00008F05BFEC04380B2F8BD23462A896968E0
:1028D00008F053FEAB682D681C44A4B2D9E72DE97B
:1028E000F8430E4681460321304605F0FDFC0446C0
:1028F00008B9FFF705FA022105F0F6FC07460028A3
:10290000F7D0A368032B05D830460021BDE8F84373
:1029100005F0F2BC014632462046D4F80480FFF7A9
:10292000B2FF0028F0D198F80050892D0FD8842DDF
:1029300011D8802D16D098F80010334640F20122AD
:10294000032004F01FF90028DED0BDE8F8836335CA
:10295000EDB2012DEFD8A36879684246484602F0EF
:1029600021FDE8E7238979684246484600F050F89F
:10297000E1E738B50D46144600211A46032305F059
:1029800015FE28B1436800221D705C709A70DA70E1
:1029900038BD10B5044660B190F91030032B0BD14F
:1029A0000268FFF770FF50B1626843BA538000209D
:1029B00010BD6FF00D00FBE76FF04C00F8E76FF013
:1029C0000100F5E74269013201D014F067BF836866
:1029D0005B6818472DE9F041DDF8188015460022A4
:1029E0000E461F46014608F108031046FFF7C1FFD7
:1029F000044650B1406876BA6DBA8680C58027B16A
:102A000042463946083016F05BFA2046BDE8F081B0
:102A100073B506460C46002A3ED0072B3CD9918858
:102A2000D088083B40BA49BA009389B202F1080342
:102A300082B28120FFF7CEFF054668B3237EFF2BCD
:102A400004F1080214BF04F11801002100F067FC32
:102A5000044610B90146284609E000231A461946E3
:102A6000184605F022F9054630B90146204602B065
:102A7000BDE8704005F040BC43680EB1B6F9A661F0
:102A80005E8006492C602B4640F20222022004F0B0
:102A900079F801460028DED002B070BD0000FFFFCB
:102AA000F7B5099D0C4611461A464FF6FB739D4239
:102AB00007464AD8009500238020FFF78BFF0028A7
:102AC00046D022460021466800F029FC044620B981
:102AD000214816F08FFE00252EE043689DF8202047
:102AE000DA7167B100231A461946184605F0DDF879
:102AF00040B34368B7F8A6215A8004600446174BD8
:102B00001868FFF75FFF032D89BFB0600836043DEA
:102B10000C3600239D42DAB211D11149234640F20E
:102B20000222022004F02EF80028D4D16FF008050C
:102B30000021204605F0E0FB284603B0F0BDF2542A
:102B40000133E7E76FF00B05F2E76FF01505F3E7E8
:102B50006FF00B05F0E700BF0FAB010028CF0100BD
:102B60000000FFFF2DE9F0479846224B0646186803
:102B700017460D46FFF726FF02218146304605F035
:102B8000B3FB03218246304605F0AEFB0446BAF1A2
:102B9000000F2AD048B3DAF80400083003F018FB1D
:102BA0006468032D04F1080C1CD9A268043DA9EB4C
:102BB00002020C3425442146E043A94202D14FF0E1
:102BC000FF3109E001310B1811F8014CDBB29C42D6
:102BD000F3D0A1EB0C01013943463046BC46BDE8B9
:102BE000F047604764460022E4E76FF01500BDE857
:102BF000F08700BF28CF0100002105F07DBB000059
:102C000008B50449102216F04BF9B0FA80F04009DB
:102C100008BD00BFDEAD010010B50A490822044618
:102C200016F03EF948B12378FF2B08D1607800F008
:102C30000F00831E5842584110BD0120FCE70020C0
:102C4000FAE700BFCEAD010070B51E46CBB2002141
:102C500015460246084605F028F8044620B92846DD
:102C6000FFF7CAFF204670BD43681E710560F9E793
:102C700038B50B680C46054608B9FFF741F84A68B5
:102C8000B0F8A611518000224BB9B5F8E23093425A
:102C900009D220467A21BDE8384005F02DBB99685D
:102CA0001B680A44F0E7284604F032F960B10B498A
:102CB000234640F20222012003F064FF68B9204657
:102CC000BDE83840FFF798BFB5F9A60140F20222EF
:102CD000214603F04CFF0028F1DD38BD0000FFFF66
:102CE0002DE9F8430E46D1E9001405460A460023B3
:102CF0002ABB5BBAA380A379FF2B02D119BB3B236C
:102D0000A371E37913B94DBB4023E37104F10807C4
:102D10003E491022384616F0C3F804F118098046DF
:102D200078BB4846FFF76CFF0246D0B110224146FF
:102D3000384616F0EDF80123E37534464FE090680D
:102D400012680344D4E70B7C023BDBB2022BD6D8DB
:102D50002F4AD35CA371FF2BD3D1D0E795F8A431D0
:102D6000D3E74946284604F07CFA0028E5D003461C
:102D700000F1100253F8041B47F8041B9342F9D1E9
:102D8000DBE7284604F0ECF84846FFF739FF98B136
:102D90000024284604F0EBF8002CCED00321304666
:102DA00005F0A2FA28B143681B7803F0FD03852BD8
:102DB000C3D06FF07C0022E03946284604F03DFA8B
:102DC0000028E5DB2844047D04F01F04103C18BFF4
:102DD0000124DEE705F008FC98B12060044694F970
:102DE0001030022B02D120680028F3D13146204652
:102DF00005F069FA002807DA831C08BF0020BDE847
:102E0000F8836FF00B00FAE70020F8E7FEAD010051
:102E10002EAB010010B50C460AB9012010BDFFF71A
:102E20005FFF0028F9DA2046FFF7E6FE0020F5E70D
:102E30002DE9F04390F91030013389B006468846F9
:102E400024D144680CB9FEF75BFFB4F9020004F02A
:102E50007CF805463046277905F0C6FB07F03F07AA
:102E6000014628B9304609B0BDE8F043FFF7C4BEBB
:102E700005F06CFA064696F91030022B09D016219F
:102E8000304609B0BDE8F04305F036BA00273D46AC
:102E9000F1E7706859491022183016F001F800283F
:102EA000EDD0304605F0A0FB04460028DAD0466895
:102EB000337EFF2B33D1002D40F0828004F038F8B0
:102EC000002840F094802046CDE7B8F1000F11D0E3
:102ED000204605F089FB06460028F4D00146284626
:102EE000FFF7FEFE002806DAB442ECD03046FFF7CA
:102EF00083FEE8E72646002108463B463246FFF7B8
:102F0000A3FE014610B12846FFF7B2FE284604F0A2
:102F10000DF805460028D8D109B0BDE8F083183671
:102F2000304604F089FA8542814606D03046FFF7E4
:102F300073FE002818BF4FF000093046FFF760FE0F
:102F400010B9B9F1000F15D0424621464846FFF7A7
:102F500061FF0028E0D0204605F011FA0028B2D128
:102F60002749234640F20122022003F00BFE0028ED
:102F7000D2D1A8E701AB22462946304602F026F915
:102F80000028C9DBBDF81C00C0F3041003F0DDFF0E
:102F9000054600283FF457AF42462146FFF73AFF67
:102FA0000028B9D09DF81E103B46224605A8FFF721
:102FB0004BFE01460028AFD02846FFF759FEABE78D
:102FC000014642462846FFF725FF0028A4D00021ED
:102FD000084647F040032246FFF736FE0146002828
:102FE0009AD0284609B0BDE8F043FFF741BE411E24
:102FF000204605F053FA47F0400787E7FEAD010091
:103000000000FFFF2DE98048102289B00DEB02007F
:10301000002115F07DFFA64BA6481B88DFF898928B
:10302000ADF81C300821CDF81490FEF7E7FB04A999
:10303000022005F0B1F840F20523ADF80A3040F265
:10304000022A40F201246846FEF7CBFBBDF80210CD
:10305000B1F5017F09D8514500F21581A1423BD05D
:103060005145F0D10198012104E1A1F59F43403B76
:103070009AB2152AE7D8152BE5D801A252F823F009
:10308000973200009732000097320000973200001C
:10309000473000009732000097320000973200005E
:1030A000973200009732000047300000973200004E
:1030B00097320000973200009732000097320000EC
:1030C0004730000097320000973200004730000080
:1030D0009F320000A7320000019D0DB9FEF710FEDF
:1030E0004FF0FF31284605F0FFF80646A8B14368C7
:1030F000002BF3D0B3F9020003F027FF80466B6882
:103100003BB1AA68272A04D91B7803F0F003602B8F
:1031100005D02846FFF770FD93E78046EFE7284685
:1031200005F062FA04460028F3D00222282105F0B7
:103130007DFA0023237408B92046EBE74768FB7942
:103140000BB974216EE0B988BD7949BA89B209B961
:103150003B2DF1D18442A36856D08B42204653D9EF
:1031600005F0D2FA07F1180B5846FFF749FD78B978
:103170005846FFF751FD10B1B8F1000F56D158462F
:1031800004F05AF98046B0FA80F04009002851D185
:10319000292D72D03A2D72D0112D0CBF042300239B
:1031A00023742946022005F076F8002801DC3A2D28
:1031B00067D10121204605F071F9012694F910002C
:1031C000234640F20122494603F0DCFC10B92046B8
:1031D000FFF712FD86B13A2D03D10121204605F0FB
:1031E0005DF9234640F201222946022003F0CAFC81
:1031F00010B92046FFF700FD3A2D7FF422AF21469B
:103200004046FFF76CFB1CE7002283681A4490F9E4
:103210001030022B02D000680028F6D1283A8A42EA
:10322000A0D21621204605F067F80AE7584604F0B8
:1032300003F9A8E707F10800FFF7EEFC00287FF488
:103240007BAF5846FFF7E8FC00287FF475AFFB79A9
:10325000013BDBB2FB71002B3FF473AF1EB1314673
:10326000204605F073F8204605F0ADF800283FF43D
:10327000E8AE0021FFF7DCFDE3E6022390E703233D
:103280008EE700269AE76FF0850302A9684603934C
:10329000FEF77EFAD5E6019802F0FCFCD1E6019833
:1032A00001F0D8FECDE60198002101F015FFC8E637
:1032B000680A0020641100200000FFFF1FB50A4CBF
:1032C000B4F9003063B9094A0948CDE90132094B24
:1032D0000093042208234FF47071FEF713FC208042
:1032E000B4F9000004B010BD6415002029AB010042
:1032F000A41100200530000008B5022104F0F4FFFD
:1033000060B143680BB9FEF7FBFC8268272AFAD943
:103310001A7802F0F002602AF5D1184608BDF8B517
:103320000C46174602232822002105F03FF90646E5
:1033300008B3456805F10800FCB1214604F110030B
:1033400051F8042B40F8042B9942F9D105F11800EB
:10335000C7B13A4607F1100352F8041B40F8041BAA
:103360009A42F9D1602200232A70FF226B70AB7061
:10337000EB70AA71EB713046F8BD1022214615F0B2
:10338000C7FDE3E71022394615F0C2FD012385F899
:103390002730E7E7F8B5044615460E4609B9002080
:1033A000F8BDD1F8E470FA04F9D51949082215F0EE
:1033B00077FD38B12378FF2BF1D1637803F00F0349
:1033C000022BECD1FB0704F1080105F1100201D436
:1033D000FEF796FC96F8A50108F046FB10F0FF00FA
:1033E000DDD0A8762B4604F1100254F8041B43F8F4
:1033F000041B9442F9D1B6F9A6311B0103F4F8730A
:1034000043F4806343F006032B830120C8E700BF29
:10341000CEAD01002DE9F341064604F00DF8044657
:10342000002862D003F09CFDB4F9A611002000F042
:10343000B5FF0546002849D0006800F023FD0028AC
:1034400044D02B68B4F9A611B3F86420C2F3041277
:10345000914201D0FEF754FC04331846324621460F
:1034600000F072FA3146204603F0E7FE051EF1DB5C
:1034700061190B7D03F01F02102A33D003F00702FD
:10348000013A012A28D80133D4F8D8600B75691C99
:103490000901174B1748B3F900808F1D9C31214457
:1034A0000191FFF7F7F804EB05100023C0E92B3674
:1034B000274444F6CF73A0F8B630C0F8B870A0F82F
:1034C000B48001990B48FFF7ADF805E0002384F8BC
:1034D000DF30204602F094FB204602B0BDE8F04108
:1034E00003F045BD4EF66026D1E702B0BDE8F0819D
:1034F00064150020AC1700202DE9F04385B0DDE90C
:103500000CE80F461E46044608B9FEF7F9FBD0F852
:10351000E45015F4805F03D1042005B0BDE8F083CA
:1035200093F80190B9F1020FF6D192F800C0BCF106
:10353000880F40F08180ED07EED590F8002102ABB6
:1035400000F1F80104F022FB0828E5D1DDE90202D0
:10355000B168F3689A4208BF8842DDD1B378012B85
:1035600045D0022B49D0002B3FD107F1180120464E
:10357000F58803F062FE071ECEDB6DBAADB2012DF9
:1035800004EB07021CBF4EF660235D43137D3148F8
:1035900023F01F0307F1010143F010034FEA01116B
:1035A000137501F106082C4B01F19C01214418BF51
:1035B000A5F56A45B3F90090019114BF603D47F24B
:1035C0003055A044FFF766F804EB07140023C4E964
:1035D0002B3544F6CF7301991E48A4F8B630C4F8D1
:1035E000B880A4F8B490FFF71DF8B07895E707F11C
:1035F0001801204604F094F8F7E7B4F9A61107F192
:10360000080000F0CBFE054600283FF47EAF00F036
:103610008DFE002000F0ACFE28B984F8DF002046C3
:1036200002F0EEFAE1E72B68002B3FF46EAF07F1F2
:103630001800FFF7EFFED8E7AC077FF56DAFBCF1E0
:10364000870F7FF469AFCDE90CE805B0BDE8F04322
:1036500000F086B8AC1700206415002073B54378DD
:10366000032B054603D00024204602B070BD08306D
:1036700001F0BCF804460028F5D06B88AA885BBA34
:1036800052BA9BB243EA0243EA8852BA92B242F279
:103690001071002A08BF0A464EF66025554302699C
:1036A0009A4209D30361114B18684369013319D059
:1036B00014F0F4F8284460610D4B0E48B3F9006033
:1036C00004F118010191FEF7E5FF0023C4E9063576
:1036D00044F6CB7301990748638464622684FEF73D
:1036E000A1FFC1E783685B689847E3E720CF01004B
:1036F00064150020AC17002073B515468A78487809
:10370000402A8CBF03230223984226D1CC88CB7851
:1037100064BA03F00F06A4B2C3F300130093083198
:103720002346304605F01CFA0DB9FEF7E9FAF043DE
:1037300005F1290200F00700F508012101FA00F067
:10374000535DC0B23CB923EA00034EF660205355E6
:10375000604302B070BD0343F7E74FF0FF30F8E776
:103760002DE9F74F01F1080A064688469146474978
:1037700010225046DDE90CB71D4615F091FB0028DC
:1037800000F08180BBF1000F7DD05FB197F866300B
:10379000DB0707D50822A91807F1140015F080FBF4
:1037A000002867D1EC88002C5FD05B464A46414632
:1037B000304600F0EFF9B6F9A611504600F026FCAD
:1037C000044600285DD000F1140705F1080808221E
:1037D0004146384615F064FB28B1B4F8643003F470
:1037E000C063002B4BD1AB686361D8F804307B60B9
:1037F000ED88274B2748B3F9007004F1540101917B
:103800006DBAFEF747FF00236365ADB24EF6602345
:103810005D4344F6C973A4F85E3001991D48A5655F
:103820002466A4F85C70FEF7FDFEB4F8643013F073
:1038300007030ED0062B0CD00EB9FEF761FA15481F
:1038400004F12401FEF726FF03222146304600F052
:1038500087F9B4F8643023F4C06343F48063A4F8B8
:103860006430002003B0BDE8F08F67B1384600F047
:1038700027FCF6E7B7F8643003F4C0631BB10120FE
:10388000F0E70220EEE70420ECE700BFFEAD010008
:1038900064150020AC17002073B5069E1C460BB9BA
:1038A000FEF72EFA0025CDE90065FFF725FEC31EC1
:1038B000DBB2012B0AD9E18849BA2B4604F1080290
:1038C00089B202B0BDE8704006F0D0BD284602B013
:1038D00070BD00002DE9F0411F460B4B1446054614
:1038E0000E460A48B3F900801146FEF7D3FE0023C6
:1038F000C4E900376681E560A4F8088021460348E2
:10390000BDE8F041FEF78EBE64150020AC17002024
:1039100038B50446154699B190F868209A4205D00A
:103920001A4602311C3015F0BBFA58B9B4F86410CD
:10393000B5F9A601C1F30411081A18BF012038BD5A
:103940000846FCE70120FAE72DE9D041804685B022
:1039500016461F460C4609B9FEF7D2F9B1F9A61171
:10396000002000F01BFD56B3D4F8E420D20426D585
:1039700028B30068B4F9A621B0F86430C3F3041387
:103980009A421CD13946043007F03DFEB8B1D4F854
:10399000E430DB0710D594F8002102AB04F1F80104
:1039A000204604F0F3F8082806D1002302AA0F21CC
:1039B000184606F05BFD18B905B0BDE8D0810020BF
:1039C00000903B4632462146404602F0F1FEF3E7C6
:1039D00070B50446B0F86400C0F304100E4603F05E
:1039E000B4FA054608B9FEF78BF903F0B9FA16B137
:1039F000002384F86730231D184600222946FFF76C
:103A0000A3FFD5F8D83004F1240244F6C071204653
:103A1000FFF760FF284603F0AAFA94F867300133F5
:103A200084F8673070BD2DE9F043B0F8643013F0CE
:103A3000070585B00446884677D06A1E012A6FD8EC
:103A4000C3F3041003F081FA44F6C171074620461F
:103A500000F0D8FF81460FB9FEF752F9384603F05F
:103A60007FFAD7F8D860B14554D9B8F1000F02D029
:103A7000002384F86730012D26D194F8672040F2A6
:103A8000DC51023A4FF4FA705FFA82F809F04EFE08
:103A9000A0F5FA73B3F57A7F8446DDD2B8F1110F41
:103AA000DAD805FA08F2A2FB0651A5FB00050023AF
:103AB0004FF47A720CFB015114F092FD4EF6602324
:103AC000984228BF1846064640F2FF220023CDE95F
:103AD00000234FF080730293FF238DF80C30637C3A
:103AE0008DF80D30638AADF80E3000226B463946F2
:103AF000201DFFF729FF334604F1240244F6C1716B
:103B00002046FFF7E7FE94F86730122B9CBF013385
:103B100084F86730384605B0BDE8F04303F027BAB3
:103B200005B0BDE8F043FFF753BF05B0BDE8F08333
:103B300010B50446D0F8BC0000EB5001400809F075
:103B4000F5FD04F17802C4F8C000044B204644F6A9
:103B5000CE71BDE81040FFF7BDBE00BF00DD6D00B7
:103B6000B1F8643023F00703134370B50446A1F89D
:103B700064300D46164603F0F3F92CB1A36F1BB168
:103B80003246291D032098472046BDE8704003F0C7
:103B9000EEB900002DE9F84390469946054608B96C
:103BA000FEF7AEF801F10807B0F9A611384600F0AB
:103BB0002DFA044628B190F8663013F0010F08BFC3
:103BC0000024D5F8E430DA07EAD595F8A50149468E
:103BD00007F060FF061E25DB002C49D094F8683002
:103BE000B34207D1324609F1020104F11C0015F07D
:103BF00057F998B1D5F8E42041F20203934303D179
:103C000098F80030852B09D0234804F12401FEF7F1
:103C100041FD032221462846FFF7A2FF94F86630B3
:103C2000DB0701D4BDE8F88398F80030862B18D163
:103C3000B4F8642042F00802A4F86420D5F8E41037
:103C400041F202028A4301D1852BEBD084F86860EF
:103C5000324609F1020104F11C00BDE8F84315F0F9
:103C60002FB9872BEAD0B4F8642022F00802E3E7EA
:103C7000B5F9A6110322384600F060FA0446002880
:103C8000D0D098F80030872BC8D1B4F8643023F036
:103C90000803A4F86430C1E7AC170020B0F8642032
:103CA00002F00703022B10B504460BD0052B17D0EA
:103CB000012B06D1B4F8643013F4C06F0AD01B078F
:103CC00008D410BD90F86730022B03D9BDE810402E
:103CD00000F0F6B920460021BDE81040FFF7A3BE72
:103CE00090F86730022BE5D9C2F3041003F02DF9E8
:103CF00001222146FFF734FFDCE738B50446B0F86F
:103D0000640000F00703042B12D0062B12D1032508
:103D1000C0F3041003F019F92A462146FFF720FFEB
:103D2000052D07D120460121BDE83840FFF77BBEB5
:103D30000525EDE738BD70B505460C460622FFF7B0
:103D40000FFFD5F8D43004F12402204644F6C771A1
:103D5000BDE87040FFF7BEBD2DE9F04705461746A8
:103D60001E460C4609B9FDF7CBFF0028FBD06BB10E
:103D7000D0F8E430D907F6D590F8A501314607F020
:103D800089FEB0F1000802DABDE8F0879846B4F881
:103D9000649009F00709B9F1020F0FD097F800A05D
:103DA000BAF1880F02D13B799A0607D443462A46D6
:103DB00031462046FFF7ACFD00284ED0002E44D0FF
:103DC00084F868804246B11C04F11C0015F078F8B4
:103DD0003B78882B02D13B795B0639D4284804F123
:103DE0002401FEF757FC032221462846FFF7B8FEC0
:103DF0003B78882BC8D13A7990063DD5B4F8643029
:103E000011065ABF23F008039BB243F00803A4F83D
:103E100064305206B8D4B4F8643003F00703062BBC
:103E2000B2D143462A4631462046FFF771FD0028AD
:103E3000AAD004F124011248FEF72CFC21462846A2
:103E40000322BDE8F047FFF78BBE84F86860BFE748
:103E500021462846FFF76FFFCAE7BAF1880F93D1D2
:103E6000B9F1000F90D03B795B068DD521462846ED
:103E7000BDE8F047FFF75FBFB9F1020FC9D1BDE759
:103E8000AC170020B0F8640000F0070001380128EA
:103E900094BF002001207047CB08C943C25C01F0E9
:103EA0000701012303FA01F10A4214BF184600205A
:103EB000704730F9081FFDF70DBC000008B5044934
:103EC000102214F0EDFFB0FA80F0400908BD00BFE9
:103ED000FEAD010013B5044668B1043108460191F6
:103EE000FFF7ECFF019930B9204607F08CFB00F09A
:103EF000010002B010BD0120F9E70000064A136876
:103F00003BB11868834219BF02681A60002313602E
:103F100070471846704700BFA817002090F8661039
:103F200011B96C2214F0F4BF704770B50446104606
:103F30000E461546FFF7F2FF4CB123462A1D04F149
:103F4000100153F8040B42F8040B8B42F9D11F2ED9
:103F500001D9FDF7D5FEB5F8643023F4F87343EAD0
:103F60000611A5F8641070BD01490248FEF7B2BB06
:103F7000B33E0000AC1700200148FDF743BF00BF6F
:103F8000C81700200148FDF741BF00BFC817002037
:103F90002DE9F041124C06460F4604F5D87800256D
:103FA000B4F86430C3F304139F420CD025B994F8DD
:103FB0006630002B08BF25466C34A045F0D14DB9C2
:103FC0002846BDE8F08121463046FFF783FF0028F0
:103FD000ECD025462A4639463046FFF7A6FFEFE7E4
:103FE000D017002028B16C30064B984203D3002034
:103FF00070470548F8E790F86620002AF8D16C3041
:10400000F3E700BF80190020D01700202DE9F04110
:104010008846074608B9FDF773FE114C0026254671
:1040200094F8663043B96C36B6F5D87F04F16C0469
:10403000F6D10020BDE8F081B4F8643013F4F87FC5
:10404000C3F3041204D0B8F1000F01D09045EAD1B7
:104050003946201D07F0D7FA0028E4D0A819E9E76F
:10406000D017002073B50446B0F86400C0F3041004
:1040700002F06BFFB4F86430D0F8D4600E4823F03F
:10408000070343F00603A4F864300C4B04F1240149
:10409000B3F900500191FEF7FDFA0023019906489B
:1040A0002463C4E9093644F6C773E385A58502B0E5
:1040B000BDE87040FEF7B6BAAC17002064150020CA
:1040C00010B590F8663023F0010380F8663004469E
:1040D00000F134011748FEF7DDFA164804F1240117
:1040E000FEF7D8FA134804F14401FEF7D3FA04F1BD
:1040F00054011048FEF7CEFA0F490A6822B113683E
:104100009C4206D1FFF7FAFE2046BDE81040FFF7BB
:1041100005BF13461B681868844202D09A42F9D141
:10412000F2E7002BF0D022681A600A68944208BFB8
:104130000B60E9E7AC170020A81700202DE9F04735
:104140000F46064608B9FDF7DBFD02F007052B1FF9
:10415000022BF8D9FFF71CFF044600284BD1FFF7CC
:10416000CDFE8246002863D0DFF8C890804698F8DC
:10417000664034F001042DD1B8F8643003F4C06314
:1041800083B94046FFF79CFF424639463046FFF769
:10419000CCFEB8F864302B43A8F86430012388F8CB
:1041A00066304446D9F80030B3B11B68C8F8003017
:1041B000D9F80030C3F80080C9F80080C4B9FFF70F
:1041C0009DFE82458046D2D1D9F800303BB9C8F86F
:1041D00000800BE00024E5E7C8F80080ECE71B68EE
:1041E000C8F80030D9F80030C3F80080C9F8008062
:1041F0002046BDE8F08790F86630DA070AD4B0F8B8
:10420000642022F007022A4343F00103A0F864204F
:1042100080F866302368002BEAD1064B1A682AB171
:10422000126822601A6814601C60E1E72460FBE7F2
:104230000446DDE7A8170020F8B50C46054600B196
:1042400009B9FDF75DFD0A46031D00F1140153F89D
:10425000040B42F8040B8B42F9D1B5F864701A498B
:1042600027830822204614F01BFE04F1100638B103
:104270002378FF2B1DD1637803F00F03022B18D195
:10428000C7F3041002F061FE0028DAD0D0F8E43061
:10429000D9040ED59A070CD4DB0705F10C01D0D553
:1042A00090F8A501324607F0DFFB002801DBA0767D
:1042B000F8BD95F86820A27605F11C013046BDE8EE
:1042C000F84014F0FDBD00BFCEAD0100F8B5164CAE
:1042D000256807460E46A5B1B5F86430C3F304134C
:1042E000994201D00020F8BD291D07F08CF9002863
:1042F000F8D095F8663043F0080385F8663020461C
:10430000F1E7FFF745FE024620600028EAD031467B
:104310003846FFF70AFE226892F8663043F0080339
:1043200082F86630EBE700BF94150020036810B5F3
:1043300004468BB1011D0C48FEF7ACF9206890F8DB
:10434000663023F0080380F86630FFF7E7FD14229B
:104350000021204614F0DCFD044B1A68A24204BF81
:1043600000221A6010BD00BFAC1700208019002089
:1043700028B11430074A904203D300207047064802
:10438000F8E703681BB193F86630002BF6D11430C0
:10439000F1E700BFA81500209415002010B520B14A
:1043A0000E4B1C682CB9002010E00029F8D1FDF755
:1043B000A7FC29B1B4F86430C3F304139942F2D1D5
:1043C00028B994F866301B07F1D5044810BD211DAB
:1043D00007F019F90028E6D0F3E700BF9415002094
:1043E00010B5134C2168B9B10B68B3F8643003F011
:1043F0000703013B012B0DD80020FFF7B9FF68B977
:104400000846FFF7B5FF01B110B90020FFF7B0FF74
:1044100020600146084610BD0846EEE70368B3F881
:10442000643003F00703013B012BF1D8E5E700BF3F
:104430008019002038B50C46054610B1036803B159
:1044400009B9FDF75DFC10220021204614F060FD43
:10445000124A12680023AA4284F8203009D12B683E
:10446000B3F8643003F00703013B012B94BF002332
:10447000012384F821302B6804F110011A1D143334
:1044800052F8040B41F8040B9A42F9D12B68B3F8A7
:104490006430C3F30413638438BD00BF8019002067
:1044A0002DE9F84F05468A461F46914632B110461F
:1044B000FFF704FD10B97B1E7F2B01D9FDF720FC0F
:1044C000354E0446834696F83520D6F8008097424C
:1044D0002CD1B8F1000F5AD0B8F86420C2F30412FE
:1044E000924528D141462846FFF7F4FC18B34946C7
:1044F000301D07F09EF887421DD84DB108F1040821
:1045000005F1100255F8041B48F8041B9542F9D137
:104510004FEA8B13204AD25892F8663043F040039A
:1045200082F8663034462046BDE8F88F1CB9B8F1F1
:10453000000F08BF34460BF1010BBBF1080F06F169
:104540004006C0D1002CEED051462846FFF720FD92
:104550000646206028B901464022204614F0D8FCC7
:10456000E0E7024651462846FFF7DFFC2046FFB24F
:1045700050F8042B92F8663043F0400382F866301E
:1045800049463A4607F075F884F83570CBE7002CB9
:1045900008BF3446CFE700BFA815002010B5044679
:1045A0000068C8B10D4B08229C4202D019688842AD
:1045B0000BD0013A03F14003F6D190F8663023F0B6
:1045C000400380F86630FFF7A9FC20464022BDE892
:1045D0001040002114F09CBC10BD00BFA8150020A5
:1045E00028B14030064B984203D30020704705485D
:1045F000F8E790F83420002AF8D14030F3E700BF04
:10460000A8170020A8150020054B984206D303F5F3
:10461000007398422CBF0020012070470020704793
:10462000A815002038B5034610B1026802B109B9D7
:10463000FDF766FB021D03F11404084652F8045B03
:1046400040F8045BA242F9D193F8352081F820208C
:10465000002481F821401A68B2F86400C0F3041005
:10466000488493F83430042B01F1100005D1214621
:104670001022BDE8384014F04BBC131D0146143223
:1046800053F8040B41F8040B9342F9D138BD0000F4
:104690002DE9F04788461646074600B10AB9FDF7EE
:1046A0002FFB1F4D0024A14605F5007A95F8343004
:1046B0005BB13946281D06F0BCFF484505D995F881
:1046C000353083429CBF81462C4640355545EDD15F
:1046D00034B194F83430042B1CD1E38EDB0719D4A9
:1046E000FFF77EFE88B9ACB9204602F01FFC0446F5
:1046F00018B96FF07100BDE8F087A36F002BF3D0FD
:104700004246394601209847EEE73146FFF792FED0
:104710000020F0E731462046FFF784FFF8E700BFAE
:10472000A815002038B5044600F114011148FDF722
:10473000B1FF94F8343023F0040384F83430204679
:10474000FFF72CFF0C49641AB4F5E07F11D80B4D2C
:10475000A411214605F12800FFF79EFB48B184F023
:1047600007040121A14095F8284024EA010485F8B6
:10477000284038BDAC170020A8150020681500207F
:104780002DE9F341044600F114011748FDF782FFBB
:104790002368B3F86400C0F3041002F0D6FB0546AA
:1047A000E0B100F11606211D304694F835800191E4
:1047B00006F03FFF05F126078045019998BF94F860
:1047C0003580384688BF002606F033FF804501D982
:1047D00026B137463946284602F0A2FF204602B0ED
:1047E000BDE8F041FFF79EBFAC17002038B5044686
:1047F00008B9FDF785FA0B4906F005FF78B90948B5
:10480000FFF75CFB60B12346064C03F11005186806
:104810005968224603C20833AB421446F7D1014817
:1048200038BD00BF6815002070B558B3174906F0B1
:10483000EAFE48B3164D174E002421463046FFF7D6
:104840002BFBD8B90134082C05F14005F5D1002423
:10485000114E254621463046FFF71EFB48B901346C
:10486000102CF7D1BDE8704008482C22002114F02C
:104870004FBBE0B204F052F90574F0E72846FFF7A9
:1048800051FFDFE7FDF73CFA70BD00BF681500205F
:10489000A8150020901500209115002008B520B122
:1048A00019B191F834305B0701D4FDF729FA084BB0
:1048B000C91AB1F5E07F0AD88911012381F00701F7
:1048C00003FA01F190F82830194380F8281008BD48
:1048D000A815002070B539B10E4BCB1AB3F5E07FA7
:1048E00002D90024204670BD0A4E0C4600F128056E
:1048F0002046FFF775FE04460028F2D094F83430C5
:104900005B07F5D5A11B89112846FFF7C5FA0028DA
:10491000EED0E7E7A815002038B538B100F12C0437
:10492000074DAC4204D30024204638BD054CF7E7C0
:104930002046FFF7C3FA0028F6D02C34F1E700BF79
:1049400094150020681500202DE9F3411F461346F9
:104950000A4601460020089EFFF7A2FD05460028F2
:104960003ED090F83430B74243F0040380F834303E
:1049700001D2FDF7C5F907EA0604601C38D01E4BCA
:104980001868436901332FD012F088FF711C044668
:104990001DD01A4B1A48B3F9008005F1140101919A
:1049A000FDF778FE0023C5E9053644F6CC7301997E
:1049B0001348EB832D62A5F81C80FDF733FEB21C73
:1049C00005D03319013301D104B101362644FB1C53
:1049D00010D83B19013308BF01373C44C5E90E46E6
:1049E000284602B0BDE8F08183685B689847CDE750
:1049F0002646F3E73C46F1E720CF0100641500208E
:104A0000AC17002010B50A4B9B690246002013B971
:104A10004FF0FF3010BD5C6820445C898C4204D1AB
:104A2000002AF7D0DC689442F4D01B68EFE700BF9F
:104A3000AC170020044B18684369013301D012F011
:104A40002DBF83685B68184720CF010073B504460B
:104A50000E46FFF7EFFF23680546B3F86400C0F386
:104A6000041002F072FAA26B531C1EBF521B4FF4CB
:104A70007A73B2FBF3F2E36B591C1EBF4FF47A71E9
:104A80005B1BB3FBF1F3E18E11F0010506D0D0F80A
:104A9000E40010F4805F14BF00258025890748BF1B
:104AA00045F04005CDE9005694F83510201D01F081
:104AB00033FE02B070BD2DE9F341D0F8E440B0F907
:104AC000A66114F480540D4661D0002427464FF0AF
:104AD000010805EBD70393F82920FB4303F00703F4
:104AE00008FA03F31A4211D0F8B204F017F803469B
:104AF00060B1428A417C007C009405F0CEFC044603
:104B000020B90025284602B0BDE8F0810137102FFA
:104B1000DFD1002739462846FFF7DCFE074680B97B
:104B20006E69FFF787FF4EF66021301AB0FBF1F196
:104B3000286923462A4689B202B0BDE8F04105F053
:104B4000D1BC3B68B3F86430C3F304139E42E1D197
:104B50002146FFF77BFF04460028DBD1D1E794F81C
:104B600034305B070CD52368B3F86430C3F3041307
:104B70009E4205D12946FFF769FF05460028C0D0AF
:104B80002046FFF72DFD04460028E8D1BAE7254668
:104B9000F6E7F7B51446D0F8E42041F20203934358
:104BA00005460F4621D014BB2146FFF784FF009035
:104BB00023463A460021284601F034FF11E094B91B
:104BC00031462846FFF777FF009023463A460021FA
:104BD000284601F027FF3046FFF79EFE06460028D4
:104BE000EDD103B0F0BD0020EEE70026F3E7002092
:104BF000DDE738B50546B0F86400C0F3041002F0F4
:104C0000A4F9044608B9FDF77BF802F0A9F9D4F835
:104C1000E4305B0704D50022291D2046FFF7B9FFC9
:104C20002046BDE8384002F0A2B90000F7B50446BE
:104C300002F096F90CB9FDF763F8D4F8E430DA0421
:104C40004AD4284F284894F8DE60394608F06EFDB3
:104C500044F6C67105462046FFF7D4FEFC2E01D966
:104C6000B84203D8D4F8E4305B0735D5FC2E94BFA6
:104C70000022012200212046FFF78BFFFFF7DAFE1A
:104C800094F8DE30C4F8CC00022B1AD9FC2E1DD8C3
:104C9000164B1748B3F9006004F17C010191FDF750
:104CA000F9FC0023C4E91F3544F6C6730199104886
:104CB000A4F88630C4F88840A4F88460FDF7B2FCFC
:104CC0000AE0B5F57A5F28BF4FF47A550133DBB2BD
:104CD00084F8DE30002BDBD1204603B0BDE8F04085
:104CE00002F045B9C02709007005030064150020D3
:104CF000AC170020002280F8DE20D0F8E42042F03B
:104D00000402C0F8E420FFF791BF73B514460E46C5
:104D10000546FFF78FFE0A30C4E90E000021204649
:104D2000FFF794FE0023009032461946284601F012
:104D300079FE02B070BD0000F0B5044685B00E46A5
:104D4000174600211022684614F0E2F8D4F8E43047
:104D5000D90406D4B4F9A611234814F0AFFC05B069
:104D6000F0BDDA07FBD594F8002102AB04F1F8019D
:104D7000204602F08AFF0028F1DB3A4631466846B9
:104D800006F077FC6946204602F057FA051E29DA3C
:104D900007233A466946204602F0BCFB051EDEDBCF
:104DA0000127D4F8E430DB04D9D510490822304675
:104DB00014F076F838B13378FF2B0BD1737803F009
:104DC0000F03022B06D16219137D23F01F0343F05A
:104DD00010031375002FC2D004EB05101630FEF738
:104DE00019FBBCE70027DCE731AB0100CEAD0100C9
:104DF0002DE9F0411F460B4B144605460E460A4866
:104E0000B3F900801146FDF745FC0023C4E90037E3
:104E10006681E560A4F8088021460348BDE8F041BA
:104E2000FDF700BC64150020AC17002010B50A493E
:104E30000822044614F034F848B12378FF2B08D137
:104E4000607800F00F00831E5842584110BD0120C9
:104E5000FCE70020FAE700BFCEAD010008B5044929
:104E6000102214F01DF8B0FA80F0400908BD00BF10
:104E7000FEAD010008B5FFF7C9F828B190F866301B
:104E800013F0010F08BF002008BD2DE9F843089C6E
:104E90000746914698460D46C1B191F8A5310A2BB7
:104EA00014D1434600F1100257F8041B43F8041BC9
:104EB0009742F9D1B5F8A6311B01A8F818300023A4
:104EC00088F81A3001263046BDE8F883ECB1204658
:104ED000FEF7D8FF0646C0B1B4F8643003F007030C
:104EE000032B0DD1042221462846FEF739FE41F25C
:104EF000883304F1240244F6C8712046FFF778FF96
:104F000041462046FFF798F9DDE7424629463846F4
:104F1000FEF740FA06460028D5D13CBB65B1B5F98D
:104F2000A61102223846FFF709F9044630B90146B6
:104F3000484603F0E1F9C6E72946F2E72DB1AB6F29
:104F40001BB102223946032098470127B9F1000F0F
:104F500003D07621484603F0CFF9D5F8E430DB04DE
:104F6000B1D439462046FEF75EFDACE7B4F86430B4
:104F700003F00703012B02D1032384F8673037467F
:104F8000E4E70000044B18684369013301D012F0D4
:104F900085BC83685B68184720CF0100F0B50368C3
:104FA00085B00446B3B193F86620120712D5B3F862
:104FB000646004330FCB6D4685E80F002046FFF791
:104FC000B5F90024C6F3041627462046FFF708FB70
:104FD000044608B905B0F0BD20680028F5D0B0F847
:104FE0006430C3F304139E42EFD12946043006F027
:104FF0000AFB0028E9D0226884F8347092F8663001
:1050000023F0400382F866302046FFF7C7FADCE75A
:1050100043074CBFC0F300300120704741F2020348
:1050200083430CBF012000207047000038B5084CB6
:10503000FEF7A2FFA16929B10D682046FDF72AFB02
:105040002946F8E7FEF790FFBDE83840FEF79ABF23
:10505000AC17002038B5044608B9FCF751FE01F042
:105060007FFF47F23053C4F8D03004F1140000251C
:10507000FEF75EFD154984F8DF5084F8E0502046C5
:1050800002F0F1F91249204602F0EDF920461149EB
:105090004022FFF751FED4F8E400FFF7B9FF88B1D2
:1050A0004FF47A71284608F041FB04F19C02034654
:1050B00044F6C3712046FFF79BFE2046BDE838400A
:1050C00001F055BF2046FFF7B1FDF6E7BEAD010088
:1050D000AEAD0100CEAD010037B50D46044608B9AE
:1050E000FCF70EFE01F03CFF204804F18C01FDF7B7
:1050F000D1FAD4F8E400FFF78BFF40B31B4804F16A
:105100009C01FDF7C7FA04F1160108460191FFF76B
:105110008DFE019910B1204602F002FB04F1260138
:1051200008460191FFF782FE019910B1204602F076
:10513000F7FA20460E4902F091FA20460D4902F096
:105140008DFA204603B0BDE8304001F010BF07489B
:1051500004F17C01FDF79EFA002DD4D0FD2384F8E4
:10516000DE302046FFF762FDCDE700BFAC17002020
:10517000AEAD0100BEAD010010B5044608B9FCF7A4
:10518000BFFD01F0EDFE4FF47A73C4F8D83094F807
:10519000E13043F0010384F8E1304FF4E163A4F817
:1051A000DC304FF0FF33C4F8CC30002384F8DE301D
:1051B000D4F8E43043F002032046C4F8E43002F0AF
:1051C00004FD2046BDE8104001F0D1BE2DE9F047B6
:1051D0000C468CB0054608461746994601F0C0FEBD
:1051E000FEF7CAFE4CB3B4F9A6112846FFF742FEFB
:1051F0000646002800F0CD80B0F86480C8F304189B
:105200002846FFF713FE00285FD1B8F1000F5CD0ED
:10521000204601F0ACFE404601F097FE0446FEF742
:10522000B1FE204601F09CFEFEF7A6FE94BB002FC7
:105230004ED13C466FF075063EE02146D5E708F1B9
:105240000401284606F0F5F998F83530984207D35E
:10525000BAF1000F1AD09AF835209A4238BFC246E8
:105260004046FFF7BDF980460028E8D1BAF1000FAB
:1052700036D09AF834305A0732D5BAF83630DB07D0
:105280002ED5DAF80030B3F86480B7E7C246E7E716
:10529000B046B5E7B4F9A6112846FFF7EBFD064680
:1052A00000964B463A4621462846FFF7EEFD002879
:1052B00014BF00266FF07506FEF764FE204601F06D
:1052C00056FE30460CB0BDE8F087002CE8D1AEE7C2
:1052D0007621384603F010F86FF075060024EBE7EE
:1052E00003AA39462846FFF7D3F9061E2EDB07A886
:1052F000FFF7B4FD58B14EBB07AA05F1100C2868A2
:105300006968134603C3083565451A46F7D12CBBB7
:10531000BDF92E0001F019FE0446FEF733FE2046CB
:1053200001F01EFEFEF728FE3CBB214607A8FFF752
:10533000A1FD4B4600903A46214607A8FFF7A5FD80
:1053400000283FF477AFDCB9FCF7DAFC1FB172211B
:10535000384602F0D1FF6FF07106ADE7B4F9A6212F
:10536000BDF82E309A4208D0204601F000FEB4F974
:10537000A621BDF82E309A42CAD1B4F9A611D5E7BC
:10538000A36F002B98D09DF82C2003A902209847EA
:1053900092E72846FFF74AFD00287FF479AFB2462E
:1053A000B0465DE72DE9F04F2DED028B8B4689B0BD
:1053B00015461E46044608B9FCF7A2FC01F0D0FDD4
:1053C000FEF7DAFD2B78853B032B00F29680DFE8B1
:1053D00013F004009E0073024E03D4F8E4309807E3
:1053E00040F18B809BF80730FF2B40F086806B7874
:1053F000002B40F08280072E7FD9A6F1080905F125
:105400000808C2464F460BF108034FBB0BF10806D4
:105410003046FFF723FD40B9B9F1000F37D1B4F999
:10542000A6113046FFF726FD0746D4F8E43013F402
:10543000805059D14FF4FA7108F078F944F6C671EA
:1054400005462046FFF7DEFA854256D8A7B32B461D
:1054500007F1440244F6C5713846FFF7C9FC4CE039
:10546000BE424AD39AF80110002946D09AF800208B
:10547000012A07D1184603910293FFF7EFFCDDE9FB
:105480000231D0BBA7EBC1070AEBC10ABDE798F810
:105490000030012B09D1D4F8E430D90405D44346B7
:1054A0002A4659462046FEF775FB98F80130A9EBCD
:1054B000C30908EBC308AFE7FFF764FDD4F8CC30AD
:1054C000AF4A934203D940F6B732904203D9A0F6CF
:1054D000B830834201D205F6B8352B4604F17C0280
:1054E00044F6C6712046B8E703F00603062B04D144
:1054F000002231462046FFF74CFBFEF743FD2046D5
:1055000009B0BDEC028BBDE8F04F01F030BD0BF1EE
:105510000803184608EE103AFFF788FC0028ECD084
:105520009BF80730FF2BE8D16B78002BE5D10F2ECD
:10553000E3D9D4F8E400C20406D4EB885BBA9BB28A
:1055400042F228329342D8D8A6F11003039305F112
:105550001007039A3B464FF00008002A40F08A806B
:10556000B8F1000F00F09C804046FEF777F8002865
:10557000C3D0B8F8066076BA42F21073B6B2002E05
:1055800008BF1E464EF660235E438046B5F806A06F
:10559000B4F9A6111FFA8AF918EE100AB9F1000F32
:1055A00000F08680FEF792FE02900028A5D09AFABD
:1055B0009AF94FF47A731FFA89F903FB09F9024645
:1055C0004B46043244F6CD71FFF712FC4E4528BF1E
:1055D0004E462B790BB184F8A431AB689BB193FA9A
:1055E00083F9D4F8D03099450DD02046654B04F1AD
:1055F0008C0244F6CE71FFF7FBFBC4F8D09004F1A7
:105600001400FEF795FAEB6813B11BBAC4F8D83052
:10561000029B9BB1D4F8E430DB040FD5237D13F05B
:10562000EF0F03D004F11600FDF7F4FE637D13F0D5
:10563000EF0F03D004F12600FDF7ECFE039B002BD7
:1056400040D1029B002B3FF458AF04F19C054E481B
:105650002946FDF71FF8D4F8E430DF047FF54DAF9D
:105660002046FFF747FBB30803EB43032A4644F603
:10567000C37137E79642FFF440AF597800293FF4F1
:105680003CAF93F800C0BCF1230F04D1B8F1000F78
:105690007FF433AF9846A2EBC10203EBC1035CE792
:1056A000FFF7BCFC00287FF428AF4FF0FF366DE712
:1056B000FEF774FE029000288BD0FFF76FFCCDF848
:1056C000089086E73B78052B20D00BD8012B16D00D
:1056D000032B4BD07B78039AA2EBC302039207EB18
:1056E000C307ABE7182B1FD0222BF3D14246394614
:1056F0002846FEF701F8864228BF0646EAE73B4601
:105700002A4659462046FEF745FAE3E77B78012B07
:10571000E0D12B78862BDDD17B681BBAB3F5A06F67
:10572000D8D3A4F8E230D5E7D7F804A007F10809E8
:1057300048469AFA8AFAFFF779FB0028CAD1B97865
:10574000BAF1000F03D1484600F022FCC2E7BAF1DB
:10575000FF3F08BF4FF0000ACDF800A0B4F9A63112
:1057600018EE102A484600F099FBB3E77B78042B2B
:105770000CD04FF0FF339E4228BF1E46AAE700BF61
:1057800047F4FFFF00DD6D00AC1700202B78862B5F
:10579000EFD107F1100A5046FFF748FB0028E8D187
:1057A0007B68D7F808901BBA99FA89F94B45E0D382
:1057B000D4F8E400FA78C00401D51106D9D4520611
:1057C00006D5BA78049351462046FFF7B5FA049BF4
:1057D00097F90320002A0ADBD4F8E4000493FFF7CA
:1057E0001DFC0028C5D0049BB8F1000FC1D0BA78C9
:1057F00004927868E0B9814613E099F8343058078C
:105800000FD599F83530049A9A420AD1514609F1D8
:10581000040005F00EFF049B834202D84846FEF7C1
:10582000AFFF4846FEF7DCFE81460028E5D1A0E741
:10583000591C07D0B74A93429ABF4FF47A72534328
:105840006FF00103B9F1FF3F08D0B24A91459ABF0A
:105850004FF47A7202FB09F96FF00109CDF800905C
:105860005146049AB4F9A6010593FFF76DF88246F4
:1058700000283FF47EAF059BB8F1000F05D001462C
:1058800040460493FFF70AF8049B97F90320F97840
:10589000002ABEBFBAF8362042F00102AAF836202C
:1058A0004A0642BFBAF8362042F00202AAF8362071
:1058B0004B4528BF4B465EE79BF80730FF2B7FF434
:1058C0001CAE6B78002B7FF418AE172E7FF615AE4A
:1058D0002B7AFF2B3FF411AE0BF108073846FFF788
:1058E000BDFA40B18C490D220BF1180013F0D8FA23
:1058F00000287FF402AE05F1080A5146204601F067
:105900009CFC031E0393FFF6F8ADA6F1180305F106
:105910001808029342469946B9F1000F0CD1384657
:10592000FFF79CFAA0B1CDF800904B463A462146CD
:10593000504600F099FFE0E54E45FFF4DEAD5178AA
:1059400000293FF4DAADA9EBC10902EBC102E3E79C
:10595000D4F8E420D60705D4B4F9A61103223846BA
:10596000FEF7ECFB4FF000094E460EE098F80020E1
:10597000012A2BD0212A08BFC14698F80120029B9A
:10598000A3EBC203029308EBC208029B002BEDD1EC
:10599000B9F1000F28D056B100964B462A46594619
:1059A0002046FDF779FF064600283FF4A6AD039B8D
:1059B00023441B7D980652D5B4F9A6115046FFF733
:1059C00059FA8046D0B901463046ECE0D4F8E400FC
:1059D000FFF724FB30B943462A4659462046FEF7D6
:1059E000D9F8CAE74646C8E7002EE0D033462A4633
:1059F00059462046FEF7CEF84E46D8E7D4F8E430B4
:105A000013F0020F9BF818300CBF4025C025FF2B68
:105A100022D194F8009104F1F8014A4606A813F047
:105A20004FFAB9F1000F13D04946324606A800F0EC
:105A300069FE01460028C7D00E4629463246504628
:105A400000F0E2FD0546002840F0A4802946BBE7AF
:105A500045F020053146EFE745F02005EDE79BF8DE
:105A600018300096A3F1FF014B424B415EE79BF8D3
:105A70000730FF2B7FF441AD6B78002B7FF43DADF9
:105A8000172E7FF63AAD2B7AFF2B3FF436AD9BF8FD
:105A90001830FF2B03D12B795A063FF52EADA6F116
:105AA000180905F1180843464F4637BBB4F9A6114B
:105AB00005F10800FFF7DEF9064600283FF41DADAA
:105AC000B9F1000F2AD167B92B795B0609D5B6F871
:105AD000643003F00703022B03D031462046FEF763
:105AE0002AF9D4F8E43013F001037FF406AD2A4616
:105AF00031462046FEF730F9FFE4BE42FFF4FDAC2C
:105B00005A78002A3FF4F9ACA7EBC20703EBC203B3
:105B1000CBE700BF37894100EEAD010098F80030B7
:105B2000022B08D0212B0ED098F80130A9EBC30925
:105B300008EBC308C4E743462A4631462046FEF731
:105B40000BF90127F0E7CDE9008643462A4659467E
:105B50002046FDF7D1FCE7E77368FF22DA710023E6
:105B60001A461946184602F0A0F8054600283FF4E8
:105B70006DAF6B68B4F8A6215A804FF47A712E602D
:105B8000002007F0D3FD08F13402034644F6C27149
:105B9000284662E43A460021FDF7C1FB064600288C
:105BA000DAD13146284602F0A7FBA6E437B50D4608
:105BB000044601F0D5F945B12046FFF79BF8204691
:105BC00003B0BDE8304001F0D2B94FF47A712846F5
:105BD00007F0ACFDFD2284F8DE20D4F8E42001902B
:105BE00022F00402C4F8E4202046FFF71FF8019BCE
:105BF00004F19C0244F6C3712046FFF7F9F8DEE792
:105C000038B5044601F0ACF9D4F8E400FFF700FA27
:105C1000B0B344F6C3712046FEF7F4FED4F8E43086
:105C2000DA0432D594F8DF30022B42F210750AD92B
:105C3000033B4FF47A6202FA03F31D444EF66023ED
:105C40009D4228BF1D46A8421AD91149204600F09E
:105C50009BFE94F8DF30092B9CBF013384F8DF30C2
:105C600094F8DF30022B03D9D4F8E430DB0407D5F5
:105C70002B4604F19C0244F6C3712046FFF7B8F8A6
:105C80002046BDE8384001F072B94FF47A65DAE792
:105C9000BEAD010073B50D460446FEF76DF9A5F5DE
:105CA0009F41403910290DD8DFE801F00909192773
:105CB0000C2B2F1111420C464A90159433002046AC
:105CC000FDF7ECFF02B0BDE87040FEF75BB920467F
:105CD000FEF713F8F6E72046FDF72AFFF2E73F4903
:105CE000234640F20222022000F04CFF0028E9D1B6
:105CF0000921204602F000FBE4E72046FFF780FF81
:105D0000E0E72046FEF775FFDCE72046FEF78EFF52
:105D1000D8E7334804F12401FCF7BCFC94F8343094
:105D200023F0100384F834302046FEF737FCC9E72F
:105D30002046FEF7C5F9C5E72046FEF775FDC1E729
:105D40002368B3F86400C0F3041001F0FEF80546C0
:105D50000028B7D0FFF716F90646284601F000F9EB
:105D6000A36B9E4206D32046FEF70AFD284601F0AB
:105D7000FEF8A7E7E36B9E42F8D3211D05F116005C
:105D8000019105F056FC94F83530019983429FBF8C
:105D90002B7D23F01F0343F008032B7505F126002C
:105DA00005F047FC94F8353083429FBF6B7D23F0AC
:105DB0001F0343F008036B75A36B04F114029B1BD4
:105DC00044F6CC712046FFF713F8CFE72046FFF7E3
:105DD000E5F877E72046FDF71DFB73E70000FFFFBE
:105DE000AC170020F8B50468124F06460D46FEF7C2
:105DF000C3F82046FEF790FD044698B110223946BC
:105E000013F04EF80028F4D023462A4604F110017E
:105E100053F8040B42F8040B8B42F9D123692B6130
:105E200063696B61FEF7AEF8201E346018BF012075
:105E3000F8BD00BFFEAD010070B58AB00446014652
:105E40002822684605F0E4FC0C4B054618684369B7
:105E50000133D4E904640DD011F020FD201A32463C
:105E600029464EF66023B0FBF3F3054813F026FCF9
:105E70000AB070BD83685B689847EFE720CF0100E8
:105E8000B0AB010008B50449102213F009F8B0FACC
:105E900080F0400908BD00BFFEAD01002DE9F341CF
:105EA000089E884615461946074630B3B8F1000FDC
:105EB00023D00193FFF7E6FF01990446304B9E4241
:105EC0009ABF4FF47A735E434FF0FF36002954D0E7
:105ED0000CB1002D51D00191FEF74EF8019944B359
:105EE0002846FEF7F3F9054648B96FF00B04FEF7B4
:105EF00049F8204602B0BDE8F0810124DEE7214BDD
:105F000018600EB90024F2E71F4B011D00241F4842
:105F1000B3F900700191FCF7BDFBC5E9014644F6F9
:105F2000CD73EB812D61AF8101991848FCF77AFBA5
:105F3000DDE74346802B284628BF80233A46FEF7FC
:105F4000AFFA05460028D0D090F8343043F0100363
:105F500080F83430002ED5D00B4B00F124010B48D3
:105F6000B3F900700191FCF795FB44F6D073C5E9D5
:105F70000946EB852D63AF85D6E76FF01504B8E7CA
:105F8000378941008019002064150020AC170020DB
:105F900070B505460E46FDF7EFFF2DB126B1284638
:105FA000FFF770FF044640B1FEF71AFA08B1FEF79A
:105FB000BDF9BDE87040FDF7E5BF2046FEF710FBD8
:105FC00004460028F5D094F83530B342F5D129467F
:105FD000201D05F02EFBB042EFD3074804F1240149
:105FE000FCF758FB94F8343023F0100384F8343075
:105FF0002046FEF7D3FADCE7AC1700202DE9F0418C
:1060000006460F469846154602B10BB9FBF778FED7
:10601000106838B92C682046FEF7E2FA0446F8B951
:10602000286003E0FEF7F0FA0028F3D12C68204640
:10603000FEF79EF9044670B120680028F7D02FB112
:10604000B0F86430C3F304139F42F0D136BB41462D
:106050002046FEF7EFF9201E2C6018BF012014E047
:1060600094F83430002BD1D020680028D3D02FB141
:10607000B0F86430C3F304139F42CCD13EB920463C
:106080004146FEF7CFFA2C600120BDE8F081314691
:10609000043005F0B8FA0028BDD0F0E731460430EE
:1060A00005F0B1FA0028C2D0D1E7000010B590F891
:1060B00020308CB0044613B1FFF7E4FE00B394F82F
:1060C0002110154A154B1648002914BF11461946D0
:1060D00013F0F4FA04F1100108460191FFF7D2FE23
:1060E000019938B9282202A805F092FB01460D4813
:1060F00013F0E4FA618C0C4813F0E0FA0CB010BD18
:106100002146282202A805F083FB94F820200146AE
:10611000064813F0D3FADDE7C8AB01009DAD0100DE
:10612000CAAB0100DCAB0100E4AB0100D5AB010060
:10613000F8B50F4616461D46044608B9FBF7E0FDC4
:10614000082BFBD84B1E1F2BF8D8FDF715FF204658
:1061500000223946FDF7F2FF044620B9FDF712FF91
:106160006FF00B00F8BD2EB125B12A4631461C3028
:1061700012F0A6FEB4F8643084F8685023F4C063CB
:1061800023F0070343F4C063A4F86430FDF7FAFE7C
:106190000020E7E770B505460E46FDF7EDFE00244A
:1061A0002046FDF71FFF044670B1B4F86430C3F316
:1061B00004139E42F4D1211D284605F024FA00283C
:1061C000EED02046FDF77CFFBDE87040FDF7DABE5B
:1061D00038B50546FDF7D0FE00242046FDF702FF46
:1061E000044680B194F86630DA07F6D5211D2846BA
:1061F00005F009FA0028F0D0B4F864305B0702D04B
:106200002046FDF72FFFBDE83840FDF7BBBEF8B5CF
:106210000C6806460D461746FDF7AEFE2046FDF714
:10622000E1FE044640B194F86630DB07F6D55EB96E
:1062300039462046FEF700F82C60FDF7A3FE2868DB
:10624000003818BF0120F8BDB4F86430C3F304135C
:106250009E42E3D1ECE7000010B58AB00146044647
:106260002822684605F0D4FA0146194813F026FAA8
:10627000238B13F4F87FC3F3041102D0154813F0F5
:106280001DFAA17E6A4604F1100005F01CFC0146CF
:10629000114813F013FA238B1B0702D50F4813F094
:1062A0000DFA238B0E4A0F4803F0070352F8231010
:1062B00013F004FA238B0C4A0A48C3F3412352F823
:1062C000231013F0FBF9094813F094FA0AB010BD3B
:1062D0004DBF0100EDAB0100F6AB010001AC0100C8
:1062E00060AC01008DC0010050AC01009DAD01000B
:1062F0002DE9F04387B00C460746164600211022D0
:1063000002A8DDF838901D4612F002FE0CB9FBF72A
:10631000F7FC802EB04628BF4FF080085FFA88F265
:10632000214602A805F0A5F92749102202A812F07B
:10633000B7FD002844D025490822204612F0B0FDC0
:1063400000283DD02378FF2B3AD0A94538D8FDF757
:1063500013FE2B46CDF80090424621463846FEF704
:10636000F3FA054630B9FDF70DFE6FF00B0007B0EC
:10637000BDE8F08338B200F0E8FD044618B9FDF737
:1063800001FE0020F3E700F0EBFDD4F8E430DA047E
:106390005EBFEB8E43F00103EB8694F8E130DB0740
:1063A00005D57F2E9EBFEB8E43F00203EB86204681
:1063B00000F0DDFDFDF7E6FD2046FEF737FCE0E7E7
:1063C0006FF01500D3E700BFFEAD0100CEAD0100B8
:1063D000F8B5054617460E4609B9FBF791FCFDF7DF
:1063E000CBFD00242046FEF7FBF8044610B32368DB
:1063F000002BF2D094F83520BA42F3D12DB1B3F886
:106400006430C3F304139D42ECD1211D304605F0E6
:1064100010F9B842E6D328B200F097FD38B1D0F8B1
:10642000E4305B0703D505492246FEF76EFC2046A3
:10643000FEF7A6F9BDE8F840FDF7A4BDAEAD01003A
:106440002DE9F0410C6807460E461546FDF794FD10
:106450002046FEF7C5F8044600B3D4F80080B8F132
:10646000000FF5D094F834305B07F1D5F7B994F804
:1064700035302B7410220021284612F049FD94F883
:106480003520211D284605F0F4F8B8F86430C3F330
:1064900004136B82A36B6B61E36BAB61FDF772FD61
:1064A000201E346018BF0120BDE8F081B8F86430C8
:1064B000C3F304139F42CBD1D9E7000030B58FB0AE
:1064C000044610220021684612F022FD1C4B186879
:1064D0004369013330D011F0E1F9227C21460546B1
:1064E000684605F0C6F82822694604A805F090F928
:1064F000227C0146134813F0E1F8618A124813F038
:10650000DDF861694A1C07D0491B4FF47A730F48C4
:10651000B1FBF3F113F0D2F8A1694B1C07D0491B72
:106520004FF47A730A48B1FBF3F113F0C7F8094846
:1065300013F060F90FB030BD83685B689847CCE713
:1065400020CF0100D5AB0100EDAB01007CAC010018
:106550008DAC01009DAD010010B50A49082204462A
:1065600012F09EFC48B12378FF2B08D1607800F030
:106570000F00831E5842584110BD0120FCE7002047
:10658000FAE700BFCEAD010070B504461846FCF72F
:10659000C6FE0646B8B14368FF22DA7100231A46E8
:1065A0001946184601F081FB054628B931463046A8
:1065B00001F0CCFE284670BD43680CB1B4F9A64189
:1065C0005C802E60F6E70546F4E738B50D460446D4
:1065D00010B10378FF2B01D1FBF792FB18230022A7
:1065E00087212846FCF7C5F968B143682168002275
:1065F0001A715A719A71DA716268DA609960A168E9
:10660000E2685A61196138BD70B50D4616460446F8
:1066100010B10378FF2B01D1FBF772FB1823002286
:1066200088213046FCF7A5F978B14368002225F0AF
:106630001F051D71DA719A715A7121686268DA60FA
:106640009960A168E2685A61196170BD08B50022BD
:1066500008238521FCF78DF928B1436800221A71BF
:106660005A719A71DA7108BD2DE9F04180460F46E2
:1066700016461D460798102300228621FCF779F95B
:1066800060B1069B446827F03F0776BA2DBA1BBA63
:1066900084F804806771E680A560E360BDE8F0815E
:1066A0000731002310B50446104601F0F8021946E0
:1066B00001F07CFF20B1426814708368DB085370DE
:1066C00010BD70B506460D4618460231FFF7E8FFCB
:1066D000044658B1436882680233023A00211846E2
:1066E00012F016FC2A46314612F0EAFB204670BD35
:1066F00010B500B109B9FBF703FBBDE81040012359
:10670000FFF7DFBF10B500B109B9FBF7F9FABDE833
:1067100010400223FFF7D5BF2DE9F0478846924687
:106720009946074608B9FBF7EBFAFFF715FF054650
:106730000028F8D13B78FF2BF5D0B8F1800FF2D8C4
:10674000099A20210320FFF7ABFF0646F0B19DF820
:106750002030446823F03F039AFA8AFA99FA89F9BB
:1067600084F80280E370C4F804A0C4F8089025738C
:106770006573A573E573103410222946204612F084
:10678000C7FB42463946204604F073FF3046BDE859
:10679000F08710B50A46044608210520FFF780FF60
:1067A00028B14368002224BA9A70DA705C6010BD88
:1067B0002DE9F7430A9D0C4616469846074610B148
:1067C0000378FF2B01D1FBF79BFA0029FBD0B8F12E
:1067D000000FF8D0084600F0C3FB36B93246394600
:1067E000204600F03EFD0646B8B11D491022304655
:1067F00012F056FB88B194F8009104F1F8014A4672
:10680000684612F05DFBB9F1000F06D02A464946F2
:106810006846FFF76DFFE8B1054638462946FFF7A1
:10682000D4FE0746B0B10346424631462046FFF744
:10683000ABFE054668B103460A4940F20222022037
:1068400000F0A0F930B1204600F091FB03B0BDE8A4
:10685000F0833D460021284601F04EFDF3E700BFDE
:10686000FEAD01000000FFFF2DE9F04786B00C46A9
:106870000E9E15469A46074610B10378FF2B01D1AC
:10688000FBF73EFA0029FBD0002AF9D0084600F0B9
:1068900067FB3946204600F0D0FCB0F1000867DB0A
:1068A000D4F8E430354903F00603062B4FF010020C
:1068B000284614BF4FF000094FF0800912F0F0FA9B
:1068C00028BB2F4B02AD03F1100C186859682A46FB
:1068D00003C2083363451546F7D194F8005104F11B
:1068E000F8012A46684612F0EBFA002D3DD03246F8
:1068F00029466846FFF706FF002839D0A04498F8DB
:1069000014309B0601D449F02009064610E02A46BF
:1069100002F1100C02AD106851682B4603C3083217
:1069200062451D46F7D149F04009BAF1000FD4D1B4
:10693000324649463846FFF767FE0546C0B1034672
:1069400002AA00212046FFF71FFE064678B1034643
:106950000C4940F20222022000F014F940B1204616
:1069600000F005FB06B0BDE8F0873046CDE72E46C7
:106970000021304601F0C0FCF1E700BFFEAD010090
:10698000AEAD01000000FFFF2DE9F3410E460546C4
:1069900008B9FBF7B5F9214B002908BF1E4600F0E6
:1069A000DFFA00223146284600F05BFC8046A0B1A9
:1069B00095F8004105F1F8012246684612F080FA88
:1069C00064B1214600226846FFF792FE044628B9CA
:1069D0000021204601F090FC17E004462046FFF716
:1069E00035FE07460028F3D0034632464146284686
:1069F000FFF7CAFD044670B10346094940F202227E
:106A0000022000F0BFF80028E2D0284602B0BDE81E
:106A1000F04100F0ACBA3C46DAE700BFBEAD010081
:106A20000000FFFF2DE9F043044685B099463C4B3A
:106A30000C9D002A14BF904698460E4600F090FA2E
:106A4000D4F8E4301B0706D5B4F8E2002946FFF776
:106A5000A0FE40B105467EB901224146204600F025
:106A600000FC064640B90021284601F045FC51E0F3
:106A700000222CE03D46F6E794F8007104F1F8019D
:106A80003A4602A812F01CFA3FB12A46394602A83B
:106A9000FFF72EFE0028E6D00546D4F8E47017F084
:106AA000100018BF94F8A40117F0200305D0D4F803
:106AB000D0301C4A934228BF134617F0400C18BF31
:106AC000D4F8D8C0B9F1000FD2D1B4F8DC2094F8D2
:106AD000E11011F0020104D017F0800F0CBF8021EB
