:1010000000020020591A0000F5190000B119000073
:10101000051A0000151A0000251A00000000000043
:101020000000000000000000000000009519000012
:10103000351A00000000000049190000451A0000A0
:10104000E7250000E7250000E7250000851E0000D9
:10105000A11E0000E7250000E7250000E7250000AD
:10106000E7250000E7250000E7250000E725000050
:10107000E7250000E7250000E7250000E725000040
:10108000E7250000E5260000E7250000E725000031
:10109000E7250000E7250000E7250000E725000020
:1010A000E7250000E7250000E7250000E725000010
:1010B000E7250000E7250000000000000000000018
:1010C000E7250000E7250000E7250000BD1E000021
:1010D000E7250000E7250000E7250000C52E0000F9
:1010E000E7250000E7250000E725000000000000DC
:1010F00000000000E725000000000000D91E0000ED
:101100007FB5504B5048029303F0AEFE4F4803F0BA
:1011100025FE4F4902A801F015F90446002840F0C9
:101120008B804C4803F0A0FE4B4803F09DFE039BD0
:10113000DA8901941B8A00932146234602A801F014
:1011400056F9464803F090FE454803F08DFE039B98
:101150001F21DA8901911B8A009303252346B2FBE4
:10116000F5F2214602A801F042F93E4B1E684FF409
:101170007A71304603F0FAFA3B4803F075FE039BA0
:101180004FF4FC60D98901901B8AB1FBF5F14A004C
:1011900092B2009302A8234601F029F94FF47A7124
:1011A000304603F0E3FA314803F05EFE039B4FF450
:1011B0007840DA890190B2FBF5F11B8A009349006F
:1011C000234689B202A801F012F94FF47A71304631
:1011D00003F0CCFA02A801F068F9254803F044FEB8
:1011E0004FF47A71304603F0C1FA02A801F068F9B1
:1011F000204803F039FE204803F036FE039BDA89CD
:1012000001941B8A00932146234602A801F0EFF8BF
:10121000039B1A4AD9891B8A01925B084908223B21
:101220004039DBB203F14402C9B2009202A801F1D5
:101230007F0201F010F9FEE7114803F015FE0120CE
:1012400004B070BDD4A10000F05700001158000098
:1012500000590000295800002E5800004A5800008C
:1012600065580000C8A200007C5800009458000097
:10127000AA580000C3580000DA58000018590000AE
:10128000F758000070B5064E064CA41BA4080025B4
:10129000AC4200D170BD56F8253098470135F7E7CC
:1012A00070A3000078A3000013B5002001F0F4FD46
:1012B000014608B900F056FA084C204602F052F8F0
:1012C000204603F01DF8064B0648009401224FF417
:1012D000806102F053F802B010BD00BF800600200C
:1012E000189E0000800200204FF080435722C3F870
:1012F0001C25BFF34F8F0549054BCA6802F4E06215
:101300001343CB60BFF34F8F00BFFDE700ED00E05C
:101310000400FA0570470000F8B504460D46EFF3E7
:10132000108772B603683BB94FF0FF33036087F351
:10133000108801252846F8BD11B987F31088F9E710
:101340000F4B1E680EB900F00DFA0321304600F075
:1013500093F8236801330DD106F10C0323600023B9
:10136000F36087F31088074B4FF080525A60BFF349
:101370006F8FDFE73146204600F008F9F1E700BF44
:101380003808002000ED00E070B50546EFF3108648
:1013900072B6046814B986F3108870BD631C02D15C
:1013A00000230360F7E754F80C3903600C21204652
:1013B00000F062F82B6813B94FF0FF332B606079AF
:1013C00086F31088BDE8704000F096B808B5037940
:1013D0000B2B04BF0C230371836A1A68934208D055
:1013E000B0F90610034803F0B9FC03490D2000F0E2
:1013F000F5F908BD1E9E00004D9E000070B5184C0A
:10140000184E2368356843BB15B12846FFF7DEFF49
:1014100000F0C8FA2368002BFAD00020124B0022FB
:101420001A602368114AB3FA83F352F823301C6818
:101430000C3C0B23AC4223710DD008B1FFF7C6FF63
:101440000B4BA16AB4F906201A801F31094A346097
:10145000022000F011FA204670BD2846DEE700BFEA
:1014600030080020380800203C08002044080020F4
:1014700034080020080006160A2930B503791AD965
:101480000A2B14D842791A4B53F8225000F10C045D
:101490007DB12D68C56053F822502C6043F822407E
:1014A000144C4FF00043D340226813432360017172
:1014B00030BDC460F2E70A2BF9D945790C4C54F8D9
:1014C00025303BB11A6893420BBF0023126844F8E1
:1014D00025301A60427954F82230002BE7D1054CB0
:1014E0004FF0004323FA02F2236823EA0203DDE708
:1014F00044080020300800200B4B1B681A790A2A88
:1015000002D95B7983420DD9EFF30583DBB21BB1BE
:10151000064B01221A607047054B4FF080525A600B
:10152000BFF36F8F704700BF380800203C080020D1
:1015300000ED00E008B5EFF3108372B6084B094ADE
:101540001B88094C1BB2002142F82310074A20686F
:101550001368013B1360FFF78FFF216000F0DEF995
:1015600034080020840800203808002040080020AB
:10157000431E9BB21F2B05D8034B53F8200010B11C
:10158000C06A7047002070478408002038B50B7986
:101590000A2B01D900F0E6F84C7901F10C02034660
:1015A000006818B110F8075CA542F8D9C8601A6045
:1015B00038BD00000F2A2DE9F84F05468946174629
:1015C000984633D810F003031DBFC3F10402043B57
:1015D0005B180B46A3F1340318BFAD1823F00303C7
:1015E00018F0080F05EB030417D12D6003E012601B
:1015F0000432A242FBD3EFF3108B72B625490122CD
:1016000051F822600FFA82FA9EB10132212AF7D1F5
:101610008BF310886FF08A0A38E02A46E9E7022146
:101620002046FFF729FF8BF310882FE06FF0150A93
:101630002CE041F822402A46DDE90A01A4F806A080
:1016400000F038F90C9B144AE3624FF0FF33C4E911
:10165000083613682060013318F0010FC4E90366EF
:10166000C4E90566A562C4F8309067712671E66129
:101670001360D4D10C212046FFF7FEFE18F0040FB2
:10168000D1D18BF310883846FFF736FF5046BDE8BE
:10169000F88F00BF840800204008002010B50346E2
:1016A000EFF3108472B6028902EA010022EA010215
:1016B0001A8184F3108810BD0C4B10B51B68EFF332
:1016C000108472B61A8910420DD11861072118468C
:1016D000FFF7D2FE84F31088054B4FF080525A601A
:1016E000BFF36F8F10BD84F31088FBE7380800202C
:1016F00000ED00E013B5064B01901C68FFF7DCFF1E
:101700000199204602B0BDE81040FFF7C7BF00BFF7
:101710003808002010B5EFF3108472B603890279FF
:101720001943072A038A018104D0082A13D084F3BD
:1017300010880FE01942FAD00C21FFF79DFE074BED
:1017400001221A6084F31088054B4FF080525A60D2
:10175000BFF36F8F10BD8B43E9D1EDE73C0800204C
:1017600000ED00E008B57146034803F0F7FA0349BD
:10177000032000F033F800BF789E0000669E000052
:1017800008B5FFF77FFD034803F06EFBFFF7B8FCD9
:10179000002008BD7C9E00001FB5EFF3108372B6D9
:1017A000074B029300230193064B009307220C235F
:1017B0004FF4C0610448FFF7FDFE00F0AFF800BF32
:1017C000CA9E0000811700000809002008B501F03A
:1017D00021FCBDE8084002F0A7BD704708B50B4BDF
:1017E0001A680C4652B901221A60FFF7F6FF084842
:1017F000214603F0B3FA074803F036FBEFF31083FA
:1018000072B600F049F8FFF76FFD00BF080F002027
:10181000CF9E0000EB9E00000C4B0D4A10B54021FE
:101820009A600C4CE02283F82220D9770022A0187D
:101830000132302A80F80013F9D11A6942F01002FF
:101840001A615A6942F400725A6110BD00ED00E05D
:101850000010000000E100E0064BD3F8942042F0B5
:101860000502C3F894205A6A42F480325A6200207A
:10187000704700BF00ED00E0064B21F01F0142F071
:101880000102C3F89800C3F89C100020C3F8A02000
:10189000704700BF00ED00E008B5EFF30581C1F32C
:1018A000080119B10248103903F058FA00BE08BD0A
:1018B000F89E00001A4422F0030210B54FF077346E
:1018C00042F8044C540758BF4FF08834A2F1040387
:1018D0005CBF42F8084CA2F108034FF0807243E964
:1018E00002020D4A43F80C2C0020032243E9052094
:1018F00043F8201C01220224194643E907246FF013
:10190000020241F8242D0B2241F8042D013A032A4A
:10191000FAD1A3F1440010BD351500000023E1EE1B
:10192000103AEFF3148323F0040383F31488BFF316
:101930006F8FEFF3108362B6024B4FF080525A6004
:10194000BFF36F8F00ED00E0114910B50C6872B65F
:10195000FFF754FD62B6A04208BF10BD2146BDE8A6
:10196000104049B1EFF309821EF0100F08BF22EDBD
:10197000108A22E9F04F0A600068B0E8F04F1EF0CC
:10198000100F08BFB0EC108A80F309887047000080
:1019900038080020024B4FF080525A60704700BF59
:1019A00000ED00E030BF62B6BFF36F8F72B67047D4
:1019B0000D4B0E4A0E496846904203D8984201D911
:1019C000002102E009468D460121042072460242B0
:1019D00002D1EFF3088001E0EFF309802DE9F00F69
:1019E0006B4600F08FF800BF580100200000042073
:1019F0000002002008B502490620FFF7EFFE00BFF5
:101A0000079F000008B502490520FFF7E7FE00BF69
:101A1000139F000008B502490820FFF7DFFE00BF52
:101A2000269F000008B502490920FFF7D7FE00BF36
:101A3000389F000008B502490A20FFF7CFFE00BF1B
:101A40004C9F000008B502490B20FFF7C7FE00BFFE
:101A50005E9F000070477047204AD2F8883043F4F8
:101A6000700310B5C2F88830FFF7F4FF6A461C4BCC
:101A70001C491C4693422DD31B4B1C48DA1C121ADE
:101A8000C11E22F003028B4238BF0022184903F026
:101A90006EF8184B1848DA1C121AC11E22F0030205
:101AA000994288BF0022002103F06FF824B1134A45
:101AB00013490120FFF7E0FEFFF7CEFEFFF7CBFF53
:101AC00000F03AF9FFF726FC03F02AF8BDE81040D1
:101AD000FFF762BE43F8041BCCE700BF00ED00E057
:101AE00000000020FEE7FEE7800200200002002048
:101AF00078A30000F01200208002002008000616E3
:101B00001F0000202DE9F04F2DED068B89B0904687
:101B10000493594B9A6B08EE102A5A6BD3F828A0FD
:101B200008EE902ADA6A09EE102A1A6BDB6B0AEECD
:101B3000103A524B09EE902A1A68514B9A420446C9
:101B4000894602D04F4803F08FF9B9F1000F64D0F5
:101B50004D4803F089F900252E464C4803F084F9DE
:101B600051464B4803F0FAF819EE101A494803F0B1
:101B7000F5F819EE901A484803F0F0F81AEE101A2A
:101B8000464803F0EBF81AF4004F04D018EE101A90
:101B9000434803F0E3F81AF0800F04D018EE901ACF
:101BA000404803F0DBF8404803F05EF93F48414607
:101BB00003F0D4F8B9F1000F2BD118F0080F54D06E
:101BC0003B4B198809B208460391FFF7D1FC0399F2
:101BD0000246384803F0C2F8374803F045F9314669
:101BE000364803F0BBF86946354BC91A03D535486A
:101BF000494203F0B3F8049E20468268C368016935
:101C00008C4641698E46AD46314691E8F00F4168F9
:101C100000682D490720FFF7E1FDD4E90230D4E93F
:101C20000012E769039020690591D4E905B60AEE30
:101C3000900AB8052548CDE9062354BF04F12005D4
:101C400004F1240503F010F9039B05990093204843
:101C5000DDE9062303F082F81AEE901A0097334666
:101C60005A461C4803F07AF877E7217F1A48103962
:101C700003F074F8B0E700BF00ED00E000000020C2
:101C8000FEE7FEE76C9F0000829F000047A0000077
:101C900050A0000060A0000070A0000080A0000024
:101CA00090A00000A0A00000B0A00000B5A000001F
:101CB00034080020C7A0000006A1000037A10000E2
:101CC000580100205FA100008CA10000B19F00001E
:101CD000CC9F000009A00000E0A00000BFF34F8FE0
:101CE0000549064BCA6802F4E0621343CB60BFF3B8
:101CF0004F8F00BFFDE700BF00ED00E00400FA05D4
:101D00004FF0704393F8E02F062A12D1D3F8E40F76
:101D100010F00F000DD1D3F8E82F02F0F002302AB6
:101D200008D1D3F8EC3F13F0F00F0CBF01200020D6
:101D3000704700207047000008B5FFF7E1FF30B1A1
:101D4000134AD2F8FC3023F08073C2F8FC30FFF75E
:101D5000D7FF20B14FF080430322C3F8A025FFF73F
:101D6000CFFF30B14FF080430022C3F80C21C3F8FD
:101D7000102100F0BFF8074B0122C3F84025FFF700
:101D80004BFDFFF723FDBDE8084001F039B900BF66
:101D900000ED00E000E00140044B1B682BB1044B58
:101DA0004FF080525A60BFF36F8F70473C0800209D
:101DB00000ED00E008B50C4B98420CD0B0F1402F7C
:101DC0000BD003F50033984209D003F54043984205
:101DD00007D0FFF7C7FC002008BD0120FCE7022068
:101DE000FAE70320F8E700BF0030004038B50D46A1
:101DF0001446FFF7DFFF0A4B43F82050094B43F826
:101E00002040094B1B56002B08DB0122590903F027
:101E10001F0302FA03F3054A42F8213038BD00BF20
:101E20000C0F00201C0F00209FA1000000E100E02B
:101E300070B50E461546FFF7BDFF04460648012162
:101E400000EB8400FFF768FA044B43F82460044B6E
:101E500043F8245070BD00BF2C0F00200C0F002051
:101E60001C0F0020FFF7E4BF08B5FFF7A3FF034BEB
:101E700003EB8000BDE80840FFF786BA2C0F002076
:101E8000FFF7F2BF08B5044A044B10681B68984777
:101E9000BDE80840FFF780BF1C0F00200C0F00209A
:101EA00008B5044A044B50685B689847BDE8084091
:101EB000FFF772BF1C0F00200C0F002008B5044A6A
:101EC000044B90689B689847BDE80840FFF764BFE3
:101ED0001C0F00200C0F002008B5044A044BD068EA
:101EE000DB689847BDE80840FFF756BF1C0F00208D
:101EF0000C0F002070474FF08043D3F8182412F4E1
:101F0000803214D1C3F81825C3F8042101229A6045
:101F1000D3F80421002AFBD00022C3F80C210122AF
:101F20001A614FF08042D2F80C31002BFBD0704781
:101F3000036802463BB11868834219BF02681A6001
:101F40000023136070471846704708B500B109B9FF
:101F5000FFF708FCEFF3108272B60B6833B9036821
:101F60006BB11B680B60036819600160406882F305
:101F7000108830B1BDE808400121FFF7CBBB0960F4
:101F8000F3E708BD08B5EFF3108172B6FFF7D0FF95
:101F900081F3108808B10023036008BD38B1054BF8
:101FA0000A0901F00F019A5C5B5C02704370022029
:101FB000704700BFA3A10000F8B50D4657000646C4
:101FC00010B18C18A54201D13846F8BD304615F83D
:101FD000011BFFF7E3FF0644F4E790B1D9B10023FA
:101FE00040EA0102D2070ED5C20710D5CA0710D5A4
:101FF00081423EBF024608461146091AF6D100FA50
:1020000003F108467047400849080133E8E74008F3
:10201000EAE74908EAE70146F3E72DE9F84307460E
:102020000D4614460AB9FFF79DFB11462846FFF7F7
:10203000D4FFA042F7D8A8423BD8B4FBF0F9B5FBD7
:10204000F0F00026B0FA80FE4FF00048CEF12005F7
:1020500028FA0EF834463346B446CEF15F0EDB184C
:102060004CEB0C0110EA080F18BF43F001034B457D
:1020700071F100028C464FEA44044FEA580811D32C
:10208000B3EB090361F1000C44F00104002C0CDAFD
:1020900053EA0C0300D00134C5F120053C603D71CA
:1020A000BDE8F883002CF1D1013D01367645D6D349
:1020B000EEE700252C46EFE773B5CD89A5F11003B7
:1020C000B3F5987F04460E4602D815F0070501D0F7
:1020D000FFF748FB019500F0D6F82A462B46012170
:1020E000204600F0E1F84B4B7821186802F03EFBE7
:1020F0002B462A462821204600F0D6F827238DF8C3
:10210000043001AA0123C021204600F0CDF810239D
:102110008DF8043001AA0123C121204600F0C4F843
:102120003E238DF8043014238DF8053001AA0223D4
:10213000C521204600F0B8F886238DF8043001AAA6
:102140000123C721204600F0AFF8626892F91230EF
:10215000127B002A14BF0022082213438DF804309A
:1021600001AA01233621204600F09EF818238DF89D
:10217000053001AA0223B12120468DF8045000F059
:1021800093F808238DF8043082238DF80530F38905
:10219000DB08013B8DF8063001AA0323B621204657
:1021A00000F082F855238DF8043001AA01233A216A
:1021B000204600F079F8012301AA262120468DF857
:1021C000043000F071F8144A0F23E021204600F09B
:1021D0006BF80F23114AE121204600F065F863688F
:1021E0005B7B2BB12B462A462121204600F05CF870
:1021F00000231A462046112100F056F800231A4603
:102200002921204600F050F8204600F046F8002032
:1022100002B070BDC8A20000C2A10000B3A10000BE
:1022200038B5054600F06DFF044605F11000FFF7D4
:10223000ABF8204638BD13B50468B4F1FF3F08D0B1
:1022400001930023009313460A46417A204600F08A
:102250000FFB02B010BD13B5CDE900214168044663
:10226000887A00F0F3F961680868431C04D0DDE95E
:102270000023497A00F0F9FE6368987A02B0BDE85D
:10228000104000F0D3B941680868431C04D04B6883
:102290000A7A497A00F0C6BA704743681868431C46
:1022A00001D000F0DBBA704770B516461A1E1C4606
:1022B00018BF01220546FFF7CEFF3CB168682346F0
:1022C00032460021BDE87040FFF7B5BF70BD2DE973
:1022D000F3410468BDF82050D4F804E080460F466E
:1022E00016469C46BEF1000F05D0F446089502B094
:1022F000BDE8F04160474368DA7C1B7D17440CEB76
:1023000003041D44164404230DEB03027FBA76BA7E
:102310002A21ADF80470ADF80660A4B2FFF7C4FF3F
:10232000ADB2042364BA6DBA0DEB03022B21404613
:10233000ADF80440ADF80650FFF7B6FF02B0BDE8B7
:10234000F08100000B68013370B504460D46416012
:1023500010D0887AFF2801D1FFF704FA032100F09A
:1023600045F96368597A186800F06AFE30B14FF099
:10237000FF3070BD124802F0F1FCEDE76368D87AD7
:10238000104BFF281E680ED0032100F02FF9636860
:10239000D87A00F05BF93046782102F0E7F96368FB
:1023A000D87A00F043F97821304602F0DFF923684B
:1023B0001B68002BD0D029462046BDE87040184746
:1023C000DCA10000C8A200001FB50446CDE902212F
:1023D0000193FFF758FF2046DDE901320399FFF72B
:1023E00063FF204604B0BDE81040FFF756BF2DE95B
:1023F000F3470AAE994636F804ABAAEB0904531A20
:1024000005460F469046013403FB0444FFF73BFFAB
:1024100039464B4642462846CDF800A0FFF757FF05
:1024200001222C212846FFF716FF0027013CA74276
:1024300068684FF00203324608DB0021FFF7FBFE1D
:102440002846FFF72AFF02B0BDE8F0870121FFF719
:10245000F2FE0137EBE72DE9F7430546BDF82840CA
:102460000B9F894616469846FFF70DFF43463246B6
:10247000494628460094FFF72AFF284601222C21CE
:10248000FFF7E9FEA4EB0803A6EB0901013301FB0A
:10249000033368685B003A460021FFF7CCFE28460C
:1024A00003B0BDE8F043FFF7F8BE43685B7B002B49
:1024B0004FF000031A4614BF20212121FFF784BFEB
:1024C00043685B7B002B4FF000031A4614BF2121A9
:1024D0002021FFF779BF73B50A460C462321054634
:1024E00002F053FB684600F083FD6946002241F28A
:1024F000055311F8010B03EB43130344B2FBF4F053
:1025000004FB102001322E5C082A86EA03062E54B2
:10251000EFD1002341F205529C4201D102B070BDBF
:10252000E95C02EB42120A44B3FBF4F104FB113103
:102530000133685C50406854EEE7000010B5044673
:10254000FFF7C9FF034A1378591C117022785340D2
:10255000237010BD3C0F0020014B186802F042BAF6
:10256000180200207047000030B50346EFF31084D6
:1025700072B60A4A0A4D10680144A94206D90C22D3
:102580001A604FF0FF3084F3108830BD054DA9422A
:10259000F5D31160421CF6D1F1E700BF0002002024
:1025A00000000420F01200201946104600F06EBD15
:1025B0001946104601F0BABE132303604FF0FF30F6
:1025C0007047132303604FF0FF30704713230360FD
:1025D0004FF0FF30704702294FF0000303608CBFBB
:1025E000002001207047FFF72DBA00000C2908D801
:1025F00001238B4041F21902134206D14FF0FF3004
:10260000704740F20C639942F8D110F0200F00F0AF
:102610001F00054B00F5E07008BF4FF0A04343F8E2
:1026200020100020704700BF0003005000F01F037F
:10263000012210F0200F02FA03F2034B08BF4FF003
:10264000A043C3F8082570470003005000F01F03A3
:10265000012210F0200F02FA03F2034B08BF4FF0E3
:10266000A043C3F80C2570470003005008B5FFF7DE
:1026700042FC064B01225A6005494FF400300860C5
:102680000021C3F808151A6008BD00BF0010014002
:1026900000E100E0014BD3F8040570470010014051
:1026A000064B1960064B1A60064B20F07F404FF432
:1026B0008032C3F84005C3F804237047440F00205C
:1026C000400F002000100140024B4FF48032C3F84D
:1026D0000823704700100140014B01221A60704727
:1026E0000010014010B5134CD4F84031012B0BD130
:1026F0000023C4F840314FF480330F4AC4F8083344
:102700000E4B10681B689847D4F80431012B07D191
:1027100000230B4AC4F804310A4B10681B68984721
:10272000094B1B682BB1094B4FF080525A60BFF325
:102730006F8F10BD00100140400F0020440F00209B
:10274000480F00204C0F00203C08002000ED00E066
:10275000074B53F8302003EBC0000379C2F808356B
:102760004379C2F80C358379C2F81035704700BF41
:102770001CA2000010B50446054800EB8400FEF7DB
:1027800003FE044B53F834300022C3F8182110BD67
:10279000900F00201CA2000038B50C46054608B179
:1027A000FEF7E0FF09880F20FFF720FF61880D206A
:1027B000FFF71CFFA1880E20FFF718FF284638BD41
:1027C0001FB50B4B0246186802909B88ADF80C3081
:1027D00002A910460192FFF7DFFF019A054B064957
:1027E00053F83200FFF702FB05B05DF804FB00BFB1
:1027F00014A200001CA200007527000010B50446BA
:1028000008B1FEF7AFFF064801210460FEF784FD22
:102810002046FFF7D5FF2046BDE81040FFF798BFE0
:10282000900F0020F8B517461E46044608B1FEF783
:1028300099FF084D084902462846FFF713FB20463A
:10284000FFF786FF0723C5F85475C5F82465C5F85A
:102850000035F8BD0030004075270000034B53F8E9
:1028600030000023C0F80035FFF70ABB1CA20000AF
:102870002DE9F74F8346DDE90C890F4600921C468F
:1028800023B9B8F1000F01D1FEF76CFFFF2F02D082
:102890003846FFF7DBFE2C4B2C4853F83B604023B7
:1028A000C6F804332A4B03EB8B1A00EB8B0B4D4617
:1028B000FF2D28BFFF25EDB2002C3BD0A2003CD459
:1028C000402D2A46214628BF40225046019202F060
:1028D0004EF9019A51461546B8F1000F14BF2B4628
:1028E0000023C6F844150193C6F83485C6F8482578
:1028F000C6F838350023C6F818310123336119466C
:102900005846FEF709FD002C019B14BF2A46002201
:10291000B9EB050914449844C9D14023FF2FC6F8E8
:1029200008330DD0009B5BB9384603B0BDE8F04FCB
:10293000FFF77CBE21462246CEE721462A46CBE75A
:1029400003B0BDE8F08F00BF1CA20000900F002074
:10295000500F00200129F0B504460BD1012A0CBF0D
:10296000103004F17000002585720460027241721B
:10297000436003E0881E012801D90020F0BD04F166
:102980001C050126012A0CBF284605F16000477A84
:102990003FB986720136082E05D00C350028F1D0DB
:1029A000E3E70020F6E70028E7D0DEE7017A0368D6
:1029B000827A012907D12AB9D3F8D0304FF4806246
:1029C000C3F804237047002AFCD1D3F8D0304FF469
:1029D0000002F5E7017A0368827A012907D12AB952
:1029E000D3F8D0304FF48062C3F808237047002A30
:1029F000FCD1D3F8D0304FF40002F5E7D0F8D03056
:102A000001225A6570470268837AD2F8D02010B448
:102A10000BB9C2F85C31047A0121994014B94C33E6
:102A200042F823405DF8044BC2F86C14FFF7BEBFB8
:102A300038B5D0F8D030D3F8002104466AB100226E
:102A4000C3F800210421436880F8D4209847D4F8C3
:102A5000D0300122C3F8042338BDD3F85821002A0E
:102A6000FAD0D3F80054EA0502D543680621984706
:102A7000AB0503D56368072120469847D4F8D030CA
:102A80000022C3F8582140F60172C3F800244FF425
:102A90008002DFE770B5867A04681546AEBB8B0707
:102AA00001D0FEF75FFE027AD4F8D030012A16D1A9
:102AB00075B994F8D40002280AD11A651146A368A2
:102AC00004F110009847042384F8D430284670BDE0
:102AD0000122C3F80016C3F804565A60F6E7C3F89B
:102AE0000017C3F8045794F8D410012908D11965C8
:102AF000032384F8D43004F17000A3689847E5E715
:102B00000229E3D10122DA64E0E7007AD4F8D03078
:102B10001422012802FB063214D1C2F8001603EB7E
:102B20008603C2F804560C4A8221C2F81C1C586065
:102B3000D3F808110029FBD00021C3F80811C2F80E
:102B40001C1CC3E706F59476C2F80017C2F80457B8
:102B5000012243F82620B9E700700240027A08B546
:102B600003680AB1FEF7FEFD0A4AD3F8D03082218D
:102B7000C2F81C1C817A03EB810301219962D3F80E
:102B800030110029FBD00021C3F83011C2F81C1C01
:102B900008BD00BF0070024008B5837A0BB9FEF78C
:102BA000E1FD0268007AD2F8D02001280CBF802015
:102BB000002003F00703002943EA000314BF4FF489
:102BC000807100210B43C2F8183508BDFFF7E4BF40
:102BD000012908B50ED1012B01D0FEF7C3FD1278F3
:102BE000D0F8D0101AB1C1F80435184608BDC1F8A4
:102BF0000425FAE76FF08500F8E738B505461C466E
:102C000029B101292FD06FF08504204638BD012B52
:102C100001D0FEF7A7FD2B681278D3F8D010AB7A5D
:102C2000007A04FA03F382B148B9D1F814251343AA
:102C3000C1F814352846FFF7E6FE0124E5E7D1F890
:102C400010251343C1F81035F4E7DB4328B9D1F858
:102C500014251340C1F81435D7E7D1F810251340D7
:102C6000C1F81035D1E7012BD3D11178FFF794FFCC
:102C7000CBE7012908B504D002291CD06FF08500EC
:102C800008BD012B01D0FEF76DFD0368D3F8D0100D
:102C9000837A007A50B903F5887301EB83035B688C
:102CA000003B18BF012313700120E9E703F584738B
:102CB00051F82330F4E7042BE5D10368817A007AD8
:102CC000D3F8D03030B901F5947153F82130136046
:102CD0000420D5E7142000FB0133D3F80836F6E7CB
:102CE000032908B504D0042902D06FF0850008BD7F
:102CF000012B01D0FEF736FD13701846F7E7F8B543
:102D0000837A0568027A0446002B5DD195F8D410C9
:102D1000002A4CD1032908D185F8D4200821236842
:102D2000C9B29B682046984734E0D5F8D030D3F834
:102D30005C11A1B3C3F85C21D3F80017D3F88074F9
:102D40000F70D3F88404C0B24870D3F88864D3F805
:102D50008CC446EA0C264E80D3F89064D3F894C411
:102D600046EA0C268E80D3F89864D3F89CC417F0FA
:102D7000800F46EA0C26CE8014BF012102210528CF
:102D800014BF85F8D41085F8D420D3F88434DBB28E
:102D9000052BC3D12046BDE8F840FFF707BED3F8A6
:102DA0002821BAB3C3F82811FFF7D8FEB6E70429E3
:102DB00002D185F8D430B1E7D5F8D020D2F8281167
:102DC00041B3C2F82831A9E7012AD5F8D0100FD1B4
:102DD000D1F86C0402FA03F318421BD0C1F86C342A
:102DE0000023C1F860314FF08073C1F8043395E7D8
:102DF000D1F86C241033012606FA03F3134209D0EC
:102E0000FFF7ACFEA37AD5F8D02010339E40C2F86D
:102E10006C6483E74FF0FF3181E700004FF080538F
:102E200010B5D3F80431B3F1413F01D1FEF79AFC5C
:102E3000174AD0F8D03049F275310324C2F8001C8B
:102E4000C2F8144DC2F8001C0121C3F80015D3F8D4
:102E500000140905FBD5D3F8001421F40061C3F870
:102E6000001449F275340021C2F8004CC2F8141D58
:102E7000C2F8004C0122C3F8002502F1A07280F8CC
:102E8000D410C3F80023034B80225A6010BD00BF4A
:102E900000E0064000E100E008B508B1FEF762FC82
:102EA000004808BD940F0020034B044A1A60044AEE
:102EB000C3F8D020704700BF940F002024A2000068
:102EC000007002402DE9F041444CD4F8D030D3F8E2
:102ED0000021A2B1D3F80023D00710D50121C3F8F7
:102EE00008136368204698473D4B1B682BB13D4B48
:102EF0004FF080525A60BFF36F8FBDE8F081D3F876
:102F000058215AB1D3F80023510207D54FF480025B
:102F1000C3F80823314863680121E4E7D3F85C2152
:102F200052B1D3F800331A0206D52F48A368012105
:102F300098472D48FFF74EFDD4F8D030D3F828211C
:102F4000C2B1D3F800335B0514D594F8D41001292D
:102F500005D12648A36898472448FFF73BFD94F81D
:102F6000D430022B06D12048A368012198471F487E
:102F7000FFF730FDD4F8D030D3F86021002AB3D069
:102F8000D3F86C24002AAFD00022C3F86021D3F814
:102F90006C840C260127B8F1000FA5D098FAA8F58B
:102FA000B5FA85F5102D10DDA5F11000704323183A
:102FB00093F8793023B17030A368012120449847F9
:102FC00007FA05F528EA0508E5E706FB05F02318EA
:102FD0005B7E002BF4D01030EEE700BF940F002092
:102FE0003C08002000ED00E004100020A40F0020A9
:102FF000024A034603CA1860596070476000001017
:1030000008B50020FFF7FAFBFFF730FBBDE80840EA
:10301000FFF74ABF10B50321084C2920FFF7E6FA55
:103020004FF40073C4F80C3503212A20FFF7DEFAB1
:103030004FF48063C4F80C3510BD00BF000300508E
:1030400038B50D46044650B9FF290BD00321284658
:10305000FFF7CCFA2846FFF7E9FA204638BD6FF0B3
:103060000500FBE76FF01500F8E77FB58DF80F302E
:10307000012301930DF1170300930DF10F03FFF7E7
:10308000F7FB9DF8170007B05DF804FB6FF08500B3
:10309000704782680168531C83604368013B13409A
:1030A000C85C704710B5EFF3108472B6EFF310816F
:1030B00072B6D0E9022381F310889A4204D0FFF758
:1030C000E8FF84F3108810BD4FF0FF30F9E7F8B542
:1030D00004460E46EFF3108772B60D4645B1EFF386
:1030E000108172B6D4E9022381F310889A4203D189
:1030F00087F31088701BF8BD2046FFF7CAFF013D1B
:10310000ECE730B5EFF3108472B6EFF3108572B6CA
:10311000D0E902239B1A426885F3108893420BD0B2
:10312000C2680568531CC3604368013B134000201C
:10313000E95484F3108830BD4FF0FF30F9E7F0B563
:10314000EFF3108772B6144654B1EFF3108672B6DF
:10315000D0E902535B1B456886F31088AB4203D16C
:1031600087F31088101BF0BDC66811F801CB056805
:10317000731CC3604368013B3340013C05F803C046
:10318000E2E7B1F5167F08B506D0B1F5966F01D12B
:10319000FEF7AAF8002008BDFEF7A0FDFEE710B577
:1031A00008B9FEF7DFFA0368002BFAD01B68BDE808
:1031B00010409B6A184710B508B9FEF7D3FA0368A8
:1031C000002BFAD01B68BDE81040DB6918470000EF
:1031D0000129F8B5C4680ED1B4F99421531E9BB2ED
:1031E0001F2B96BF254B002053F822000221BDE87B
:1031F000F840FEF78FBA062924D007292BD00429DE
:103200001FD1D4F878010123002584F8983184F87F
:103210009A5104F5CD7208B9FEF7A4FA0168CE6898
:103220002946B047234604F1A00283F8405083F8B2
:10323000E05014339A42F8D101260027D4F88C517B
:1032400085B9F8BD94F8983184F89931042684F84A
:1032500098610227F2E794F8993184F898310826AA
:103260000327EBE7EB681E4205D06B683A465B68C4
:103270002946204698472D68E2E700BF84080020D1
:1032800070B50A4604460368A17AD868012A22D19B
:10329000237A012B0CBF08230023EFF3108472B6AE
:1032A0000B44D0F89051DBB202FA03F12943C0F885
:1032B000901184F31088B0F99421531E9BB21F2BF8
:1032C00098BF264BBDE8704094BF53F82200002001
:1032D0000421FEF71FBA89B9D0F88C1189B1082AE8
:1032E00026D0092A0DD1CB689B060AD54B68224609
:1032F0009D680223A8471CBBFEF734FAD0F888313A
:1033000003B970BD996819B9D96841B91B68F7E765
:103310008D68AC4201D11969E0E70968F3E78D686F
:103320000DB90968F1E7AE68B442F4D02D68F7E74B
:103330004B689D682246AC460023BDE8704060475C
:103340002368002BD8D01B68054A5D6A01232046FC
:10335000AC461946BDE87040604700BF84080020B5
:1033600083A2000038B504460D464FF4D872002100
:1033700001F00BFCC4F8785138BD00001FB5029372
:10338000069B0193054B00930823FEF713F90028D1
:1033900001DCFEF7E7F905B05DF804FBC13300007E
:1033A00010B5D0F884310B60B0F89631C0F88411B4
:1033B0005C1CA0F896410B814A60184610BD0000C5
:1033C0002DE9F0474C4BB2B01B68C0F874310026B1
:1033D00003A9C0F87061C0F87C11044600F5B87804
:1033E00000F022FB454BD4F878511B88A4F89431A7
:1033F0000123A4F89631424B84F89A61C4F888619D
:103400006B60404BC5E902340DB9FEF7ABF92B6890
:1034100028461B6898473C4A04F118012046FFF7EC
:10342000BFFF3A4A04F10C012046FFF7B9FF384AC2
:1034300021462046FFF7B4FF04F5CE77082101A806
:10344000FFF77CF8082201A93846FEF7B5FD3A4699
:1034500004F124012046FFF7A3FF84F89861D4F813
:103460008C61F6B92B682B4ADE6801231946284681
:10347000B0474FF001090720FEF73CF981070646E7
:1034800003D52B6828461B699847720710D4F307A9
:10349000F1D54046FEF776FD0028ECD0436898470A
:1034A000E9E7736831461B68204698473668D8E7D5
:1034B000EFF3108372B60022D4F890A1C4F89021E3
:1034C00083F310881427BAF1000FE0D09AFAAAF318
:1034D000B3FA83F3072B09FA03F2CBBF083B07FBD0
:1034E000034307FB0343986BC8BFD3F8D8002AEA0D
:1034F000020AFFF754FEE6E73808002034080020EF
:10350000D13100008132000054A200005FA200000F
:1035100076A2000082A20000D0F8883110B5002207
:1035200000F5C47490B2013213B90883216010BD54
:103530001C461B68F6E7D0F88C3100F5C6720BB953
:10354000116070471A461B68F9E710B5806800B92A
:1035500010BD83685C7A8C4202D11B7A9342F7D00B
:103560000068F4E7F8B50446D0F87801069E0D46E9
:1035700011461A4608B9FEF7F5F803685F68334646
:10358000B847024690B1137A807A012B4FF01403AA
:103590000BBF03FB004003FB0044D03004F13000BC
:1035A0008681826015B1AB680360A860F8BD08B57C
:1035B00083689A7A0AB9FEF7D5F801210174184692
:1035C000BDE80840FFF7F7BD08B583689A7A0AB9E5
:1035D000FEF7C8F8002101741846BDE80840FFF75F
:1035E000EABD10B508B9FEF7BDF80368002BFAD0A4
:1035F0001B68BDE810409B691847F7B5CB6843F0DE
:1036000001030026CB60402701230C460E761A46A4
:10361000314600970546FFF7A5FF8368A36300972F
:103620003346012231462846FFF79CFF83686363D7
:1036300003B0F0BD10B50A4608B9FEF793F8036869
:10364000002BFAD01B681C6A0221A4460423BDE8A3
:103650001040604710B50A4608B9FEF783F80368C2
:10366000002BFAD01B685C6A0021A4460123BDE848
:103670001040604710B508B9FEF774F80368002BD6
:10368000FAD01B68BDE81040DB6A184710B50C463D
:10369000C2B980F89B210A76886BFFF7A2FF606BA6
:1036A000FFF79FFFA06B0849FFF7D4FF606B064947
:1036B000FFF7D0FF606B04F13C014022BDE81040F1
:1036C000FFF7D8BF10BD00BF94A200002DE9F3475B
:1036D0000C460B7C91F910100029054603DBE28AA9
:1036E000206B904210D803F01F02012A00F0C18025
:1036F000022A00F0DD80002A40F003810029637C6B
:1037000077DA43B1062B11D0D5F87801002840F0C4
:10371000F380FEF727F895F89B315B00022201A9A0
:103720002846ADF8043000F0B0F94AE0638A1A0A7E
:10373000013A052AE8D801A151F822F055370000D6
:10374000653700006D3700000937000009370000B9
:10375000DB370000284600F083FB0028D4DB00F0B4
:10376000D0802EE0284600F06FFAF6E7D5F88461A5
:10377000002EC9D013F0FF034FF003020CD1042335
:103780008DF801206946022228468DF8003000F0AD
:103790007CF940F20943C1E78DF8052032899A424D
:1037A00000F0B9803668002EF8D1ADE7284600F069
:1037B00099F90021284600F095F916F8011F002913
:1037C000F4D194F91030002B2EDA01232846237609
:1037D00002B0BDE8F04700F0A1B9D5F878010023A8
:1037E0008DF80430036801AA9E6804210123B047C4
:1037F0008AE7052B15D0092B86D10323D5F88861DC
:10380000DFF83891DFF838A185F89831002ED8D04C
:10381000B768C7B9D6F80C80B8F1000F1BD136686D
:10382000F4E7638A85F89A31E38A226B9A426BD275
:103830000323606B2376402204F13C0102B0BDE813
:10384000F047FFF717BFFB7B1BB1B8684946FFF78E
:1038500001FF3F68DDE7D8F8087017B9D8F8008095
:10386000DAE7FB7B1BB1B8685146FFF7F3FE3F6810
:10387000F3E7617CA28A03F060030B4302F00F02BE
:103880003FF44CAFD5F88831002B3FF43DAF198B96
:1038900091420BD119694868C6683EB1D5F87C21C0
:1038A00004F11003127E2846B04756E71B68EBE789
:1038B000A38A03F00F0000EB80001B06637C4FEA35
:1038C00080004CBFD0303030012B28440DD0032B6A
:1038D00004D0002B7FF418AF037C1FE7638A002B12
:1038E0007FF412AFFFF763FE6BE7638A002B7FF470
:1038F0000BAFFFF769FE64E703685B699847002335
:10390000237602B0BDE8F0870423A06B2376002263
:1039100004F17C0192E702278DF80470706801F0D1
:10392000EEFA013040008DF804003A4601A928461D
:1039300000F0ABF87668013E3FE700BF96A20000BA
:1039400095A2000073B505460C466BBB0B7E042B9D
:1039500013D8DFE803F0512B26400300137A012B24
:1039600022D190F89A318BB190F89831012B0DD17A
:10397000D0F8780105F5CD7208B9FDF7F3FE0168BE
:10398000CE680021B047022385F898310023606B90
:103990002376402204F13C0102B0BDE87040FFF7FD
:1039A00069BE137A002BF2D002B070BD167A012ED8
:1039B000FAD100F052F828B121462846FFF786FEDA
:1039C0002676F1E7606B402204F13C01FFF752FEDE
:1039D00002232376E8E7137A002BE5D1606B01938D
:1039E00001A9FFF727FE236B019A134423632146A5
:1039F0002846FFF76BFED7E7167A002ED4D1314662
:103A0000102204F11C0001F0C0F8E36B2361236C69
:103A10006361E38A266321462846E36202B0BDE87B
:103A20007040FFF753BE0000034B4B60D0F88C3161
:103A30000B60C0F88C11704784A2000010B5D0F85C
:103A40007C4109B9FDF78EFE237E032BFAD1606B12
:103A5000FFF7F0FD04F13C0010BDD0F87C319A6B0B
:103A6000D8695268196A024491420CD9D96A8842CD
:103A700009D2986A81424FF0000005D9C3E90720B6
:103A800058620120704700207047D0F87C01F8B5DB
:103A9000836BC7695D68036A9F423D4403EB020C78
:103AA00009D9AB4202D2FE1A964207D9C0F820C00B
:103AB00000242046F8BDAB42F8D20026AC452CBF0E
:103AC000EC1A941B426AC0F820C028BFA41B2244F1
:103AD000DB1B426233447C3022463144184401F0FF
:103AE00046F8E6E7D0F87C21D2E90703984210B502
:103AF00010D8946B64680444A3420BD21B1A13447D
:103B0000012083F87C10136A01331362536A013376
:103B1000536210BD013313620020FAE7D0F87C1124
:103B2000CB6ACA69486A9A1A82428B6A28BF0246DF
:103B3000886B134410B57C3141F8543C08B9FDF74B
:103B400011FE0368002BFAD01B68BDE81040DB6A49
:103B5000184770B506460C4600250CB9284670BDBE
:103B600062689368127B1AB1A16830469847034691
:103B700024681D44F1E770B506460C4600250CB9D3
:103B8000284670BD63681B681BB1A1683046984722
:103B9000034624681D44F2E770B506460C4600252E
:103BA0000CB9284670BD63685B681BB1A1683046DC
:103BB0009847034624681D44F2E700002DE9F743C7
:103BC0004FF00009DFF87C8005460C464E4607277B
:103BD0001CB9484603B0BDE8F08361682846FFF78A
:103BE000CAFFA268CDF803600523117A8DF8013071
:103BF000937A8DF80230012904BF63F07F038DF8BA
:103C00000230537A8DF80070013BDBB2032B17D8DA
:103C100018F803308DF80330A389ADF8043007227B
:103C2000A37B8DF8063069462846FFF72EFF6168B2
:103C30002846FFF7B1FF9DF8003024689944C7E794
:103C4000FDF790FD97A200002DE9F04F8DB00922FD
:103C500000238DF80C20ADF80E200122ADF81030B5
:103C60008DF8112080228DF81320322202218DF848
:103C70001420D0F888218DF8123004468DF80D10EC
:103C80005ABBD4F880118DF810302046FFF761FF41
:103C9000D4F8885100F1090615BB238C8DF8123039
:103CA000092203A92046ADF80E60FFF7EEFED4F816
:103CB00080112046FFF770FFD4F8886100F10903F6
:103CC0000193A946002E43D1019BBDF80E002B4461
:103CD000984200F0C280FDF745FD12680133CFE73E
:103CE00069682046FFF735FF00F109073744AE68E1
:103CF0004FF0000846B9D5F80C904744B9F1000FD1
:103D00000AD12D683E44C7E771682046FFF721FFBE
:103D1000073036688044EDE7D9F804102046FFF7F5
:103D200018FFD9F80880093006444FF0000AB8F1AE
:103D3000000F03D1D9F800905644DFE7D8F80410FB
:103D40002046FFF706FF0730D8F800808244EEE7F0
:103D500071682046FFF70FFF0923CDE906998DF81A
:103D6000183004238DF81930338B8DF81A30B37E58
:103D70008DF820908DF81D30F37E8DF81E30B268DE
:103D8000337F8DF81F3000F1090800231ABB8DF82E
:103D90001C30736913B11B898DF82030092206A9E4
:103DA0002046FFF772FE71682046FFF7F5FE454496
:103DB0000544B1682046FFF701FFD6F80C802F18A4
:103DC000012200254FF0090B0423B8F1000F05D1A3
:103DD00036683D4476E712680133D7E7318B8DF8BA
:103DE0002610B17ECDF828908DF82910F17E8DF83F
:103DF0002C908DF82A10317F8DF82B1002F1010ADA
:103E0000D8F808108DF827208DF824B08DF82530CB
:103E10005FFA8AFA0022E9B98DF82820D8F80C2038
:103E200012B112898DF82C20092209A92046FFF72A
:103E30002CFED8F804102046FFF7AEFE0930D8F863
:103E4000081005442046FFF7B9FED8F80080054465
:103E50005246B9E709680132DDE70DB0BDE8F08FE1
:103E600010B586B04FF40071ADF8061040218DF802
:103E70000B1041F20921ADF80C104FF4FA41ADF8E6
:103E80000E104FF480710022ADF810100189ADF8CA
:103E9000082012248DF80A208DF812100122818A40
:103EA000838D8DF805208DF813108DF8152001A94C
:103EB00022468DF804408DF81430FFF7E6FD2046C9
:103EC00006B010BD0AB981F87C20704713B50B23EA
:103ED0008DF801300B8D8DF80230082402238DF807
:103EE00003308DF804308DF80530224600236946F2
:103EF0008DF800408DF806308DF80730FFF7C5FDCE
:103F0000204602B010BD00002B4B2DE9F743C1F84D
:103F100084302A4B0962C1E9153140F202234B85F6
:103F200001F150034B610A230026A1F84A3001F148
:103F3000100808230E6581F82C6081F84C604E63F0
:103F400009640C4600930222012341460546FFF70F
:103F500009FB08B9FDF706FC40F2FF1304F1300736
:103F60004FF04009C3810322CDF800900123394668
:103F70002846FFF7F7FA86730028EBD00123C373B6
:103F80000322CDF80090334639462846FFF7EAFA77
:103F90000028DFD04FF48073C38141462846FFF7E5
:103FA000BBFA39462846FFF7B7FAE36843F0010346
:103FB000E36003B0BDE8F0834B4100009CA2000029
:103FC0002DE9F743052405460E4624274FF0000847
:103FD00020234FF00109224669468DF803308DF801
:103FE00000408DF804908DF801708DF80280FFF785
:103FF0004CFD02230422694628468DF800208DF8E6
:1040000002308DF803308DF80170FFF73EFD328DE0
:10401000B6F848308DF8032006218DF802102246AC
:10402000694628468DF804308DF800408DF80170FF
:10403000FFF72BFDB6F848308DF800402246694660
:1040400028468DF801708DF802908DF803808DF868
:104050000430FFF71AFD132003B0BDE8F08310B55C
:1040600008B9FDF77FFB0368002BFAD01B68BDE899
:104070001040DB6A1847F8B5436F93F89831032B6B
:1040800004460D4626D190F87C30012B22D1EFF367
:10409000108672B600F16407EFF3108172B6D4E9AE
:1040A0001B2381F310889A420AD03846FEF7FAFFA4
:1040B000A36F5A1C23443F2AA26783F8D000EBD990
:1040C00086F31088A26F04F1D0012846BDE8F840BD
:1040D000FFF7C5BFF8BD7FB51389B3F5407F0C4628
:1040E000154619D10AB9FDF73DFB1368002BFAD02C
:1040F0001B6803AA1E6A022104232846B047039ABC
:1041000004F1900122B1E36D019120469847019995
:1041100040222846FFF7A3FF2A8940F201339A4242
:1041200011D10023A367EFF3108172B6D4E91B23EA
:1041300081F310889A4206D02946204604B0BDE893
:104140007040FFF798BF04B070BD50F8083C80384D
:1041500023B9836B1B689968FFF78DBF70472DE902
:10416000F041034600F1640790F87C000D461446C8
:1041700048B1EFF3108472B63846FEF7E0FF84F3DF
:104180001088BDE8F081EFF3108672B6EFF310826D
:1041900072B6186FD3E91A130B44A3EB000882F32D
:1041A0001088444510D92118C91A3846FEF78FFFE8
:1041B00000EB0802A31A1D4429463846FEF7BFFF4C
:1041C00086F310882046DCE72246F5E7436F2BB1E3
:1041D00000F1800103F5B870FDF7B7BE70477FB5F9
:1041E0000C465978212933D0222937D020292BD1C8
:1041F000DB88072B28D1032A1BD1002303A90393B3
:10420000FFF71CFC039B072B05461DD143798279E0
:104210000168007900902046FEF7B3FF266E56B97C
:104220002B68C4F88830AB88A4F88C30AB7984F85C
:104230008E3001200AE028796B79AA7929680090EC
:104240002046B0470028EBDA4FF0FF3004B070BDD5
:10425000072204F18801FFF718FCEAE75B8813F0F6
:1042600001034FF0010514D084F87C500022032193
:1042700004F13000FFF769F908B9FDF773FA8068B7
:10428000402204F19001FFF7EAFE2046FFF79EFF6F
:10429000CFE784F87C30CCE72DE9F843DDE90896D8
:1042A0000C460546904600214FF4A87220461F4652
:1042B00000F06BFC65671EB1734236EA030301D060
:1042C000FDF750FA054B6360C4E91996C4E91787F6
:1042D00021462846BDE8F843FFF72DB9ACA20000FF
:1042E00070B5064E0C468D18AC4200D170BD14F866
:1042F000011B3046FDF794FFF6E700BF04020020E3
:1043000007B580230193054B0093054A0549002317
:10431000FFF7C2FF03B05DF804FB00BFAC10002044
:10432000E14200002C110020704700002DE9F0410F
:10433000DFF8248006460C460746224639464046AA
:10434000FFF70DFF05464046FFF740FF641B2F4473
:10435000F3D1B81BBDE8F0812C11002000F124013D
:10436000006A00F010B910B50446006A43690133D1
:1043700014D000F0CBF880B1636BA0FB033294F84B
:104380003800C0F12004A0F1200102FA04F423FA5D
:1043900000F0204322FA01F1084310BD83685B68F6
:1043A0009847E8E730B4426C90F840501144C26B33
:1043B000C5F12004A1FB021202FA04F4A5F12003C6
:1043C000E940214322FA03F341EA030230BC00F141
:1043D0002401006A00F0F0B82DE9F04104460F46D0
:1043E0001546002148221E4600F0CFFB1D4BA3605E
:1043F0001D4B2762C4E90B340DB9FDF7B3F9002E4C
:10440000FBD03246294604F13400FDF706FE2A4669
:10441000314604F13C00FDF700FEB5424FF0FF329B
:1044200019D294F83850616BC5F12000A1FB02123B
:10443000A5F12003E94002FA00F022FA03F3014358
:1044400019434B1C61610AD0A36820461B68BDE874
:10445000F04149081847B5FBF6F562616564BDE8AF
:10446000F08100BFBCA2000041460000036843B1D8
:104470000B6823B9C068431A58425841704701205D
:104480007047184670470346006848B1416831B923
:1044900002681A600AB9DA6070470160704700204C
:1044A0007047416902688368B1F1FF3F07D01B681C
:1044B00049081AB15268914228BF1146184712B1F3
:1044C0001B685168FAE79B68184710B50A4604460E
:1044D000FFF7CCFF08B9FDF745F920460146006813
:1044E00098B19042FAD1E368934204D1A14214BF3B
:1044F0000B460023E36013680B601BB159685068DA
:104500000144596000231360012010BD38B5436990
:1045100004460BB9FDF726F9EFF3108572B68368F0
:104520005B6898470246D4E90501E3698A423ABFCD
:104530000130801810465B1A1844C4E9062085F340
:10454000108838BD4269013201D0FFF7DFBF8368B0
:104550005B68184738B505464468FFF7F3FF2B68DA
:1045600033B1021B00245968914203D38A1A5A605E
:10457000686038BD521A5C601B68002BF8D059681F
:104580000029F9D0EFE7F8B505460E46EFF310879E
:1045900072B6FFF76BFF044650B12846FFF7DAFF0B
:1045A00031462846FFF791FF04462846FFF779FF7A
:1045B00087F310882046F8BD2DE9F04104460D46EA
:1045C0009046EFF3108772B6FFF7C4FF2946064600
:1045D0002046FFF74BFF10B12046FFF776FF218AF8
:1045E000414534BFA8EB0101002169602346002248
:1045F0009C461B68E3B9881A2B606860F3B1586861
:10460000521A02445A60CCF800502368AB420AD1D7
:1046100063695A1C03D05B08994228BF1946A368F6
:1046200020461B68984787F310883046BDE8F08124
:10463000586810448142DED30246D9E7E560E2E7DC
:104640004369013310B5044619D0FFF77BFF236897
:1046500083B161685B681944081A00280FDD61693D
:10466000A368490881421B6828BF01462046BDE86F
:10467000104018476169A36849081B68F6E723687A
:104680003BB92046FFF70DFFEFF30583DBB2BBB16B
:1046900010BD626859680A44626000225A60204670
:1046A000FFF7F1FE0028ECD0D0E902309847204611
:1046B000FFF7E9FE0028F5D12046FFF74BFFEEE7B4
:1046C000034B4FF080525A60BFF36F8FE0E700BF9B
:1046D00000ED00E010B50749084600F02DF8BDE8F0
:1046E0001040044904484FF400434FF47A72FFF736
:1046F00073BE00BFC41200207C120020FDF7E4BF8F
:10470000FDF7C8BF37B50C460190EFF3108572B6C0
:10471000FDF7C0FF022C2CBF00190230019A04499A
:1047200020F07F40FDF7BCFF85F3108803B030BD5B
:1047300035470000FFF784BF0A4B10B5044683607D
:104740006FF07F434361FDF791FFFDF7C5FF61699E
:104750004B1C06D0A36820461B68BDE810404908E2
:10476000184710BDCCA20000FCF70EBE10B586B0F5
:10477000EFF3058212F0FF0201D0FCF7F3FF4FF0D8
:10478000FF33CDE90132094B0493438A03928B42F4
:1047900038BFCA1A01AC02A90594FFF70DFF012129
:1047A0002046FCF7B9FD06B010BD00BF6947000008
:1047B0008A892DE9F041054610070C4658D44B680C
:1047C000002B05DC0B6C002B02DC0020BDE8F08127
:1047D000E66A002EF9D0002312F480522F682B6075
:1047E00032D0606DA3895A0705D56368C01A636B20
:1047F0000BB1236CC01A00230246E66A216A2846E0
:10480000B047431CA38906D129681D292CD82A4A00
:10481000CA40D60728D500226260D90422692260E6
:1048200004D5421C01D12B6803B96065616B2F6010
:104830000029CAD004F14403994202D0284600F06E
:10484000ADF900206063C1E7216A01232846B04723
:10485000411CC7D12B68002BC4D01D2B01D0162BB7
:1048600001D12F60B1E7A38943F04003A381ADE7F5
:104870000F69002FA9D093070E6808BF4B690F601E
:1048800018BF0023A6EB07088B60B8F1000F9CDD72
:10489000216AA66A43463A462846B047002806DC05
:1048A000A38943F04003A3814FF0FF308EE7074414
:1048B000A8EB0008E9E700BF0100402038B50B690C
:1048C00005460C4613B90025284638BD18B1836942
:1048D0000BB900F087F8144B9C421BD16C68B4F9FB
:1048E0000C30002BEFD0626ED00704D4990502D4AF
:1048F000A06D00F03AF928462146FFF759FF636E94
:10490000DA070546E0D4A3899B05DDD4A06D00F04D
:104910002DF9D9E7054B9C4201D1AC68DFE7044B88
:104920009C4208BFEC68DAE7F8A2000018A3000078
:10493000D8A20000002310B50446C0E90033C0E946
:104940000433836081814366C281836119460822F2
:104950005C3000F01AF9054B6362054BA362054B0E
:10496000E362054B2462236310BD00BF794E000053
:104970009B4E0000D34E0000F74E0000014900F0AE
:10498000AFB800BFBD48000070B568224D1E55434A
:104990000E4605F1740100F06DF9044640B10021A6
:1049A000C0E900160C30A06005F1680200F0EDF8D7
:1049B000204670BD014800F0D8B800BFE5120020C5
:1049C000014800F0D3B800BFE5120020014800F014
:1049D000CCB800BFE6120020014800F0C7B800BF05
:1049E000E612002010B50446FFF7F0FFA3691BB1E3
:1049F000BDE81040FFF7F0BFC4E912332365134B45
:104A0000134A1B68A262A34204BF0123A36120468C
:104A100000F020F86060204600F01CF8A0602046FE
:104A200000F018F80022E06004216068FFF782FFC0
:104A3000A06801220921FFF77DFFE0680222122110
:104A4000FFF778FF0123A361D2E700BF38A300007E
:104A50007D490000F8B50746FFF7ACFF1E4B1E6806
:104A6000B36913B93046FFF7BDFF4836D6E90134C4
:104A7000013B03D533680BB33668F7E7B4F90C5044
:104A8000D5B9164BE36004F15800656600F06CF888
:104A9000FFF796FFC4E90155C4E904552560A561F7
:104AA0000822294604F15C0000F06FF8C4E90D55B6
:104AB000C4E912552046F8BD6834D9E704213846C8
:104AC000FFF762FF044630600028D5D1FFF778FF7A
:104AD0000C233B60EEE700BF38A300000100FFFF9E
:104AE0002DE9F8430646884600F148040027D4E93A
:104AF0000195B9F1010905D52468002CF7D1384694
:104B0000BDE8F883AB89012B07D9B5F90E30013325
:104B100003D029463046C04707436835E9E700001F
:104B200070B50D4D0D4C641BA4100026A64209D192
:104B30000B4D0C4CFDF710FD641BA4100026A64283
:104B400005D170BD55F8043B98470136EEE755F89E
:104B5000043B98470136F2E778A3000078A30000F1
:104B600078A3000078A300007047704770470A449C
:104B7000914200F1FF3300D1704710B511F8014B9D
:104B800003F8014F9142F9D110BD0244034693420C
:104B900000D1704703F8011BF9E7000037B5002981
:104BA00044D051F8043C0190002BA1F10404B8BF9B
:104BB000E41800F0D3FA1E4A0198136833B9636011
:104BC000146003B0BDE8304000F0CEBAA34208D96B
:104BD000256861198B4201BF19685B68491921601A
:104BE000EDE71A465B680BB1A342FAD91168551874
:104BF000A5420BD1246821445418A3421160E0D18E
:104C00001C685B68536021441160DAE702D90C2309
:104C10000360D6E7256861198B4204BF19685B6899
:104C2000636004BF491921605460CAE703B030BD16
:104C3000E812002070B50E4E0C463168054611B9D9
:104C4000FDF792FC306021462846FDF78DFC431CA1
:104C50000AD0C41C24F00304A04207D0211A28461D
:104C6000FDF782FC013001D14FF0FF34204670BDCA
:104C7000EC1200202DE9F041CD1C25F0030508358C
:104C80000C2D38BF0C25002D074601DBA94205D9A4
:104C90000C233B6000263046BDE8F0812E4E00F02C
:104CA0005DFA33681C4634BB29463846FFF7C2FF1D
:104CB000431C04464DD134682646002E40D123685B
:104CC0003146384604EB0308FDF74EFC80453AD1E7
:104CD000216803356D1A25F0030508350C2D38BF02
:104CE0000C2529463846FFF7A5FF01302BD0236855
:104CF0002B4423600EE02268521B1ED40B2A16D9C7
:104D00006119A342256018BF5960636808BF31600C
:104D100062514B60384604F10B0600F025FA26F08C
:104D20000706231DF21AB6D09B1BA350B3E7626897
:104D3000A3420CBF32605A60ECE723466468B2E7D6
:104D400034467668B9E70C233B60384600F00CFA2D
:104D5000A1E72560DEE700BFE81200200FB40A4B90
:104D600013B51C6824B1A36913B92046FFF73AFEB6
:104D700005AB049AA1680193204600F025FA02B021
:104D8000BDE8104004B070471802002070B50E4610
:104D9000054618B183690BB9FFF724FEAB69AC680F
:104DA00013B92846FFF71EFE2C4B9C4220D16C689D
:104DB000636EDB0705D4A389980502D4A06DFFF7C5
:104DC000D4FEA38919071DD52369DBB1013EA36871
:104DD00016F8011F013BA36039BB002B38DA2246CD
:104DE0000A21284600F094F8013011D00A2511E07C
:104DF0001B4B9C4201D1AC68DAE71A4B9C4208BFBE
:104E0000EC68D5E72146284600F0D4F80028DDD02C
:104E10004FF0FF35636EDA0705D4A3899B0502D4F2
:104E2000A06DFFF7A3FE284670BD002B04DAA2692F
:104E30009A4206DC0A2904D023685A1C22601970A1
:104E4000C5E72246284600F063F80130BFD1DFE70E
:104E500023680A255A1C22601D70DBE7F8A20000B7
:104E600018A30000D8A20000024B01461868FFF703
:104E70008DBF00BF1802002010B50C46B1F90E100E
:104E8000FDF792FB0028ABBF636DA3891B1823F4C9
:104E90008053ACBF6365A38110BD2DE9F0411F466F
:104EA0008B89DB0505460C46164605D5B1F90E1073
:104EB00002230022FDF785FBA389B4F90E1023F429
:104EC0008053A38132463B462846BDE8F041FDF7BA
:104ED0006FBB10B50C46B1F90E10FDF772FB431C09
:104EE000A38915BF606523F4805343F48053A381E5
:104EF00018BFA38110BDB1F90E10FDF75DBB0346CD
:104F000013F8012B002AFBD1181A01387047000052
:104F1000F8B50E461446054618B183690BB9FFF77C
:104F200061FD214B9C422BD16C68A369A360A389CE
:104F30001A072FD523696BB323692068C01A6369E8
:104F4000F6B28342374604DC21462846FFF7B6FC1A
:104F500030BBA368013BA36023685A1C22601E700B
:104F600063690130834204D0A389DB0706D50A2E8A
:104F700004D121462846FFF7A1FC88B93846F8BD80
:104F80000A4B9C4201D1AC68CFE7094B9C4208BF59
:104F9000EC68CAE72146284600F00CF80028CBD080
:104FA0004FF0FF37EAE700BFF8A2000018A30000A7
:104FB000D8A20000324B70B51D6806460C4625B1DC
:104FC000AB6913B92846FFF70DFD2E4B9C420FD15C
:104FD0006C68A389B4F90C2019072CD4DD0611D410
:104FE0000923336042F04003A3814FF0FF303EE0DD
:104FF000254B9C4201D1AC68EBE7244B9C4208BF97
:10500000EC68E6E7580712D5616B41B104F144033F
:10501000994202D03046FFF7C1FD00236363A389A4
:1050200023F02403A3810023636023692360A38901
:1050300043F00803A38123694BB9A38903F42073C8
:10504000B3F5007F03D02146304600F047F8A08931
:10505000B4F90C2010F001030AD00023A3606369A7
:105060005B42A361236943B910F08000BAD170BDDF
:10507000810758BF6369A360F4E70020F7E700BF2A
:1050800018020020F8A2000018A30000D8A2000017
:1050900070B50E46B1F90E10002996B014461D46A3
:1050A00008DAB6F90C3000222A601A0610D44FF440
:1050B00080630EE06A46FDF789FA0028F1DB019A69
:1050C00002F47042A2F500535A425A412A60EEE7B8
:1050D00040230020236016B070BD00008B8973B59B
:1050E0009D0706460C4607D504F14703236023615C
:1050F0000123636102B070BD01AB6A46FFF7C8FFD0
:10510000009905463046FFF7B5FD48B9B4F90C30B3
:105110009A05EFD423F0030343F00203A381E3E7EE
:105120000D4BB362A389206043F08003A381009BF1
:105130006361019B20615BB1B4F90E103046FDF74D
:105140004AFA28B1A38923F0030343F00103A381A2
:10515000A0890543A581CDE77D4900000148FFF7FF
:1051600004BD00BFE41200200148FFF7FFBC00BFF0
:10517000E41200209368013B002B10B4936008DA1E
:105180009469A34201DB0A2903D15DF8044BFFF7C0
:10519000BFBE1368581C1060197008465DF8044BB8
:1051A0007047F8B506460F461446D518AC4201D1F3
:1051B000002007E014F8011B3A463046FFF7DAFFFB
:1051C000431CF3D1F8BD00002DE9F04F0D469DB012
:1051D00014469846064618B183690BB9FFF702FCDE
:1051E000894B9D421BD175686B6ED90705D4AB897D
:1051F0009A0502D4A86DFFF7B8FCAB891B0701D54F
:105200002B69EBB929463046FFF7D4FEC0B16B6E6F
:10521000DC070ED54FF0FF301DB0BDE8F08F7B4BA3
:105220009D4201D1B568DFE7794B9D4208BFF56823
:10523000DAE7AB899805EDD4A86DFFF797FCE9E7AD
:105240000023099320238DF82930CDF80C803023DA
:10525000DFF8C0818DF82A304FF0010923469A46C5
:1052600013F8012B0AB1252AF9D1BAEB040B0BD0A4
:105270005B46224629463046FFF793FF013000F097
:10528000AA80099A5A4409929AF80030002B00F03B
:10529000A28000234FF0FF32CDE905230AF1010A75
:1052A000049307938DF853301A935446052214F84B
:1052B000011B584800F04CFA049AD8B9D10644BFF3
:1052C00020238DF85330130744BF2B238DF8533020
:1052D0009AF800302A2B15D0079A544600204FF038
:1052E0000A0C214611F8013B303B092B4ED9B0B1D5
:1052F000079214E0A0EB080309FA03F313430493A5
:10530000A246D2E7039B191D1B680391002BBBBF6C
:105310005B4242F0020207930793B8BF04922378DE
:105320002E2B0CD163782A2B35D1039B1A1D1B68B9
:105330000392002BB8BF4FF0FF3302340593DFF820
:10534000E4A021780322504600F002FA40B1402345
:10535000A0EB0A0003FA00F0049B0343013404931A
:1053600014F8011B2C488DF82810062200F0F0F9E3
:1053700000283FD0294B1BBB039B073323F00703B7
:1053800008330393099B3B44099367E70CFB023204
:105390000C460120A5E700230134059319464FF080
:1053A0000A0C204610F8012B303A092A03D9002BA9
:1053B000C5D00591C3E70CFB012104460123F0E7AA
:1053C00003AB00932A46164B04A93046AFF3008086
:1053D0000746781CD6D16B6ED90705D4AB899A05E0
:1053E00002D4A86DFFF7C2FBAB895B063FF512AF95
:1053F000099811E703AB00932A46094B04A93046EC
:1054000000F080F8E4E700BFF8A2000018A3000055
:10541000D8A200003CA3000046A30000000000004A
:10542000A351000042A300002DE9F047164699461B
:105430008A680B69DDF820809342B8BF1346336059
:1054400091F8432007460C460AB1013333602368C4
:10545000990642BF336802333360256815F00605AC
:1054600006D104F1190AE36832689B1AAB4226DCC4
:1054700094F84320131E226818BF012392062BD4F0
:1054800004F1430249463846C04701301ED0236824
:10549000E568326803F00603042B08BFAD1AA36861
:1054A00022690CBF25EAE57500259342C4BF9B1A0B
:1054B000ED1800261A34B5421AD1002008E0012365
:1054C000524649463846C047013003D14FF0FF30BD
:1054D000BDE8F0870135C6E7E1185A1C302081F895
:1054E0004300224494F8451082F843100233C7E782
:1054F0000123224649463846C0470130E6D00136EE
:10550000D9E700002DE9FF470F7E0C9D782F9146CB
:1055100080460C469A4601F1430207D8622F0AD80A
:10552000002F00F0D880582F00F0A38004F142052E
:1055300084F842703AE0A7F16303152BF6D801A175
:1055400051F823F09D550000B15500002D55000085
:105550002D5500002D5500002D550000B1550000BF
:105560002D5500002D5500002D5500002D55000033
:10557000BD560000E15500009F5600002D5500006B
:105580002D550000DF5600002D550000E1550000AC
:105590002D5500002D550000A75600002B681A1D40
:1055A0001B682A6004F1420584F842300123A3E01D
:1055B00020682968060601F104030AD50E682B60ED
:1055C000002E03DA2D23764284F843305E480A2306
:1055D00019E00E682B6010F0400F18BF36B2EFE7ED
:1055E0002B682068191D2960010601D51E6802E09C
:1055F0004606FBD51E8854486F2F0CBF08230A238C
:10560000002184F843106568A560002DA2BF2168C1
:1056100021F0040121600EB9002D4DD01546B6FBD6
:10562000F3F103FB1167C75D05F8017D3746BB4207
:105630000E46F4D9082B0BD12368DE0708D5236961
:1056400061689942DEBF302305F8013C05F1FF3562
:10565000521B2261CDF800A04B4603AA21464046CA
:10566000FFF7E2FE01304CD14FF0FF3004B0BDE84F
:10567000F087354881F845702968236851F8046B34
:1056800029601D0614D5DF0744BF43F020032360C3
:105690001EB9236823F0200323601023B0E723689A
:1056A00043F0200323607823284884F84530E3E75B
:1056B000590648BFB6B2E6E71546BBE72B68266831
:1056C0006169181D286035061B6801D5196002E064
:1056D0007006FBD51980002323611546BAE72B68B5
:1056E0001A1D2A601D6862680021284600F030F803
:1056F00008B1401B606063682361002384F8433075
:10570000A8E723692A4649464046D0470130ABD036
:1057100023689B0713D4E068039B9842B8BF1846E0
:10572000A4E70123324649464046D04701309BD08A
:105730000135E36803995B1AAB42F2DCEBE7002525
:1057400004F11906F5E700BF4DA300005EA30000B9
:1057500001F0FF01102A2BDB10F0070F08D010F822
:10576000013B013A8B422DD010F0070F42B3F6D126
:10577000F0B441EA012141EA014122F007047FF03F
:1057800000070023F0E80256083C85EA010586EA96
:10579000010685FA47F5A3FA87F586FA47F6A5FAD2
:1057A00087F68EB9EED1F0BC01F0FF0102F00702DE
:1057B00032B110F8013B013A83EA010313B1F8D189
:1057C0000020704701387047002D06BF354603386A
:1057D000073815F0010F07D1013015F4807F02BFA3
:1057E000013015F4C03F0130F0BC0138704700BFF4
:1057F0006C63642054465420646973706C61792032
:1058000074657374206170706C69636174696F6E24
:1058100000496E697469616C697A696E67206469B0
:1058200073706C61792E2E2E005B4F4B5D006C63A4
:10583000642054465420646973706C6179206669F1
:105840006C6C696E67206D6170006C6364205446F7
:105850005420646973706C6179206D617020666991
:105860006C6C65640044726177696E6720626C7568
:10587000652072656374616E676C65004472617760
:10588000696E6720677265656E2072656374616E0C
:10589000676C650044726177696E67207265642089
:1058A00072656374616E676C65006C636420544656
:1058B0005420646973706C617920696E76657274C6
:1058C0006564006C63642054465420646973706C92
:1058D0006179206E6F726D616C006C636420544658
:1058E0005420646973706C617920636C6561722007
:1058F00073637265656E005B4661696C65645D002B
:105900000000000000000040001B1AFF00004001E2
:10591000F000E000000000000000000000000000B7
:105920000000000000000000000000000000000077
:105930000000000000000000000000000000000067
:105940000000000000000000000000000000000057
:105950000000000000000000000000000000000047
:105C70002010412061286230613041202010000056
:105C80000000000000000000000000000000000014
:105C90000000000000000000000000000000000004
:105CA00000000000000000000000000000000000F4
:105CB00000000000000000000000000000000000E4
:105CC00000000000000000000000000000000000D4
:105CD00000000000000000000000000000000000C4
:105CE00000000000000000000000000000000000B4
:105CF00000000000000000000000000000000000A4
:105D00000000000000000000000000000000000093
:105D10000000000000000000000000000000000083
:105D20000000000000000000000000000000000073
:105D30000000000000000000000000000000000063
:105D40000000000000000000000000000000000053
:105D50000000000000000000000000000000000043
:105D6000000000000000000000004118A348057971
:105D7000669986B187B187B987B987B166A1047979
:105D8000A2482010000000000000000000000000F9
:105D90000000000000000000000000000000000003
:105DA00000000000000000000000000000000000F3
:105DB00000000000000000000000000000000000E3
:105DC00000000000000000000000000000000000D3
:105DD00000000000000000000000000000000000C3
:105DE00000000000000000000000000000000000B3
:105DF00000000000000000000000000000000000A3
:105E00000000000000000000000000000000000092
:105E10000000000000000000000000000000000082
:105E20000000000000000000000000000000000072
:105E30000000000000000000000000000000000062
:105E40000000000000000000000000000000000052
:105E50000000000000000000000000000000000042
:105E60000000000000004120E47066A9A7B9A7C1A6
:105E7000A7C1A7B9A7B9A7B9A7B9A7B9A7C1A7C10A
:105E8000A7B96699A35000080000000000000000B8
:105E90000000000000000000000000000000000002
:105EA00000000000000000000000000000000000F2
:105EB00000000000000000000000000000000000E2
:105EC00000000000000000000000000000000000D2
:105ED00000000000000000000000000000000000C2
:105EE00000000000000000000000000000000000B2
:105EF00000000000000000000000000000000000A2
:105F00000000000000000000000000000000000091
:105F10000000000000000000000000000000000081
:105F20000000000000000000000000000000000071
:105F30000000000000000000000000000000000061
:105F40000000000000000000000000000000000051
:105F50000000000000000000000000000000000041
:105F600000002008C36086A9A7C1A7C1A7B9A7B927
:105F7000A7B9A7B9A7B9A7B9A7B9A7B9A7B9A7B921
:105F8000A7B9A7C1A7B925894120000000000000DA
:105F90000000000000000000000000000000000001
:105FA00000000000000000000000000000000000F1
:105FB00000000000000000000000000000000000E1
:105FC00000000000000000000000000000000000D1
:105FD00000000000000000000000000000000000C1
:105FE00000000000000000000000000000000000B1
:105FF00000000000000000000000000000000000A1
:106000000000000000000000000000000000000090
:106010000000000000000000000000000000000080
:106020000000000000000000000000000000000070
:106030000000000000000000000000000000000060
:106040000000000000000000000000000000000050
:106050000000000000000000000000000000000040
:1060600041202589A7B9A7C1A7B9A7B9A7B9A7B9D9
:10607000A7B9A7B9A7B9A7B9A7B9A7B9A7B9A7B920
:10608000A7B9A7B9A7B9A7C166A1613000000000F0
:106090000000000000000000000000000000000000
:1060A00000000000000000000000000000000000F0
:1060B00000000000000000000000000000000000E0
:1060C00000000000000000000000000000000000D0
:1060D00000000000000000000000000000000000C0
:1060E00000000000000000000000000000000000B0
:1060F00000000000000000000000000000000000A0
:10610000000000000000000000000000000000008F
:10611000000000000000000000000000000000007F
:10612000000000000000000000000000000000006F
:10613000000000000000000000000000000000005F
:10614000000000000000000000000000000000004F
:1061500000000000000000000000000000006230AD
:1061600066A1A7C1A7B9A7B9A7B9A7B9A7B9A7B980
:10617000A7B9A7B9A7B9A7B9A7B9A7B9A7B9A7B91F
:10618000A7B9A7B9A7B9A7B9A7C166A141280000B7
:1061900000000000000000000000000000000000FF
:1061A00000000000000000000000000000000000EF
:1061B00000000000000000000000000000000000DF
:1061C00000000000000000000000000000000000CF
:1061D00000000000000000000000000000000000BF
:1061E00000000000000000000000000000000000AF
:1061F000000000000000000000000000000000009F
:10620000000000000000000000000000000000008E
:10621000000000000000000000000000000000007E
:10622000000000000000000000000000000000006E
:10623000000000000000000000000000000000005E
:10624000000000000000000000000000000000004E
:10625000000000000000000000000000613066A99E
:10626000A7C1A7B9A7B9A7B9A7B9A7B9A7B9A7B926
:10627000A7B9A7C1A7C1A7C1A7C1A7C1A7B9A7B9F6
:10628000A7B9A7B9A7B9A7B9A7B9A7C145912010C0
:1062900000000000000000000000000000000000FE
:1062A00000000000000000000000000000000000EE
:1062B00000000000000000000000000000000000DE
:1062C00000000000000000000000000000000000CE
:1062D00000000000000000000000000000000000BE
:1062E00000000000000000000000000000000000AE
:1062F000000000000000000000000000000000009E
:10630000000000000000000000000000000000008D
:10631000000000000000000000000000000000007D
:10632000000000000000000000000000000000006D
:10633000000000000000000000000000000000005D
:10634000000000000000000000000000000000004D
:1063500000000000000000000000412066A1A7C16D
:10636000A7B9A7B9A7B9A7B9A7B9A7B9A7B9A7C125
:1063700087B14699258104792581669987B9A7C196
:10638000A7B9A7B9A7B9A7B9A7B9A7B9A7C1E46819
:1063900000000000000000000000000000000000FD
:1063A00000000000000000000000000000000000ED
:1063B00000000000000000000000000000000000DD
:1063C00000000000000000000000000000000000CD
:1063D00000000000000000000000000000000000BD
:1063E00000000000000000000000000000000000AD
:1063F000000000000000000000000000000000009D
:10640000000000000000000000000000000000008C
:10641000000000000000000000000000000000007C
:10642000000000000000000000000000000000006C
:10643000000000000000000000000000000000005C
:10644000000000000000000000000000000000004C
:10645000000000000000000000082581A7C1A7B9C6
:10646000A7B9A7B9A7B9A7B9A7B9A7C186A9E46869
:1064700061282008000000000000201082384591AB
:10648000A7B9A7B9A7B9A7B9A7B9A7B9A7B987B134
:10649000613000000000000000000000000000006B
:1064A00000000000000000000000000000000000EC
:1064B00000000000000000000000000000000000DC
:1064C00000000000000000000000000000000000CC
:1064D00000000000000000000000000000000000BC
:1064E00000000000000000000000000000000000AC
:1064F000000000000000000000000000000000009C
:10650000000000000000000000000000000000008B
:10651000000000000000000000000000000000007B
:10652000000000000000000000000000000000006B
:10653000000000000000000000000000000000005B
:10654000000000000000000000000000000000004B
:106550000000000000000000A350A7B9A7B9A7B928
:10656000A7B9A7B9A7B9A7B9A7B925814120000044
:1065700000000000000000000000000000002010EB
:106580000479A7B9A7B9A7B9A7B9A7B9A7B9A7C1E6
:10659000047900000000000000000000000000007E
:1065A00000000000000000000000000000000000EB
:1065B00000000000000000000000000000000000DB
:1065C00000000000000000000000000000000000CB
:1065D00000000000000000000000000000000000BB
:1065E00000000000000000000000000000000000AB
:1065F000000000000000000000000000000000009B
:10660000000000000000000000000000000000008A
:10661000000000000000000000000000000000007A
:10662000000000000000000000000000000000006A
:10663000000000000000000000000000000000005A
:10664000000000000000000000000000000000004A
:10665000000000000000201066A1A7C1A7B9A7B9DB
:10666000A7B9A7B9A7B9A7B9E46800080000000056
:10667000000000000000000000000000000000001A
:1066800020082589A7C1A7B9A7B9A7B9A7B9A7B9EC
:1066900086A941200000000000000000000000006A
:1066A00000000000000000000000000000000000EA
:1066B00000000000000000000000000000000000DA
:1066C00000000000000000000000000000000000CA
:1066D00000000000000000000000000000000000BA
:1066E00000000000000000000000000000000000AA
:1066F000000000000000000000000000000000009A
:106700000000000000000000000000000000000089
:106710000000000000000000000000000000000079
:106720000000000000000000000000000000000069
:106730000000000000000000000000000000000059
:106740000000000000000000000000000000000049
:10675000000000000000A350A7B9A7B9A7B9A7B9C6
:10676000A7B9A7B9A7B9E4680000000000000000BD
:106770000000000000000000000000000000000019
:106780000000412886A9A7B9A7B9A7B9A7B9A7B991
:10679000A7B9A350000000000000000000000000A6
:1067A00000000000000000000000000000000000E9
:1067B00000000000000000000000000000000000D9
:1067C00000000000000000000000000000000000C9
:1067D00000000000000000000000000000000000B9
:1067E00000000000000000000000000000000000A9
:1067F0000000000000000000000000000000000099
:106800000000000000000000000000000000000088
:106810000000000000000000000000000000000078
:106820000000000000000000000000000000000068
:106830000000000000000000000000000000000058
:106840000000000000000000000000000000000048
:106850000000000000084591A7C1A7B9A7B9A7B9D2
:10686000A7B9A7C12589200800000000000000008A
:106870000000000000000000000000000000000018
:1068800000000000E470A7C1A7B9A7B9A7B9A7B9CC
:10689000A7C1047900000000000000000000000013
:1068A00000000000000000000000000000000000E8
:1068B00000000000000000000000000000000000D8
:1068C00000000000000000000000000000000000C8
:1068D00000000000000000000000000000000000B8
:1068E00000000000000000000000000000000000A8
:1068F0000000000000000000000000000000000098
:106900000000000000000000000000000000000087
:106910000000000000000000000000000000000077
:106920000000000000000000000000000000000067
:106930000000000000000000000000000000000057
:106940000000000000000000000000000000000047
:1069500000000000412087B1A7B9A7B9A7B9A7B91E
:10696000A7B987B1623000000000000000000000FD
:106970000000000000000000000000000000000017
:10698000000000008238A7B9A7B9A7B9A7B9A7B96D
:10699000A7C14591000800000000000000000000B1
:1069A00000000000000000000000000000000000E7
:1069B00000000000000000000000000000000000D7
:1069C00000000000000000000000000000000000C7
:1069D00000000000000000000000000000000000B7
:1069E00000000000000000000000000000000000A7
:1069F0000000000000000000000000000000000097
:106A00000000000000000000000000000000000086
:106A10000000000000000000000000000000000076
:106A20000000000000000000000000000000000066
:106A30000000000000000000000000000000000056
:106A40000000000000000000000000000000000046
:106A500000000000A248A7B9A7B9A7B9A7B9A7B96C
:106A6000A7C1258900000000000000000000000010
:106A70000000000000000000000000000000000016
:106A800000000000411886A9A7B9A7B9A7B9A7B9FE
:106A9000A7C166A120100000000000000000000057
:106AA00000000000000000000000000000000000E6
:106AB00000000000000000000000000000000000D6
:106AC00000000000000000000000000000000000C6
:106AD00000000000000000000000000000000000B6
:106AE00000000000000000000000000000000000A6
:106AF0000000000000000000000000000000000096
:106B00000000000000000000000000000000000085
:106B10000000000000000000000000000000000075
:106B20000000000000000000000000000000000065
:106B30000000000000000000000000000000000055
:106B40000000000000000000000000000000000045
:106B500000000000E460A7C1A7B9A7B9A7B9A7B909
:106B6000A7C1A350000000000000000000000000CA
:106B70000000000000000000000000000000000015
:106B800000000000201066A1A7C1A7B9A7B9A7B946
:106B9000A7B986A94118000000000000000000000D
:106BA00000000000000000000000000000000000E5
:106BB00000000000000000000000000000000000D5
:106BC00000000000000000000000000000000000C5
:106BD00000000000000000000000000000000000B5
:106BE00000000000000000000000000000000000A5
:106BF0000000000000000000000000000000000095
:106C00000000000000000000000000000000000084
:106C10000000000000000000000000000000000074
:106C20000000000000000000000000000000000064
:106C30000000000000000000000000000000000054
:106C40000000000000000000000000000000000044
:106C5000000000000479A7C1A7B9A7B9A7B9A7B9CF
:106C600087B9623000000000000000000000000052
:106C70000000000000000000000000000000000014
:106C800000000000201066A1A7C1A7B9A7B9A7B945
:106C9000A7B986A94118000000000000000000000C
:106CA00000000000000000000000000000000000E4
:106CB00000000000000000000000000000000000D4
:106CC00000000000000000000000000000000000C4
:106CD00000000000000000000000000000000000B4
:106CE00000000000000000000000000000000000A4
:106CF0000000000000000000000000000000000094
:106D00000000000000000000000000000000000083
:106D10000000000000000000000000000000000073
:106D20000000000000000000000000000000000063
:106D30000000000000000000000000000000000053
:106D40000000000000000000000000000000000043
:106D5000000000000579A7C1A7B9A7B9A7B9A7B9CD
:106D600087B1412800000000000000000000000082
:106D70000000000000000000000000000000000013
:106D800000000000412086A9A7B9A7B9A7B9A7B9F3
:106D9000A7C166A120100000000000000000000054
:106DA00000000000000000000000000000000000E3
:106DB00000000000000000000000000000000000D3
:106DC00000000000000000000000000000000000C3
:106DD00000000000000000000000000000000000B3
:106DE00000000000000000000000000000000000A3
