:101000000002002015190000A1180000B11800000E
:10101000C1180000D1180000E11800000000000015
:101020000000000000000000000000008518000023
:10103000F11800000000000039180000011900003C
:10104000A3220000A3220000A32200002D1B000009
:10105000491B0000A3220000A3220000A3220000DD
:10106000A3220000A3220000A3220000A32200006C
:10107000A3220000A3220000A3220000A32200005C
:10108000A3220000A1230000A3220000A32200004D
:10109000A3220000A3220000A3220000A32200003C
:1010A000A3220000A3220000A3220000A32200002C
:1010B000A3220000A32200000000000000000000A6
:1010C000A3220000A3220000A3220000651B000051
:1010D000A3220000A3220000A3220000352B000061
:1010E000A3220000A3220000A322000000000000B1
:1010F00000000000A322000000000000811B00008F
:101100007FB5504B5048029303F02CFC4F4803F03E
:10111000A3FB4F4902A800F055FF0446002840F009
:101120008B804C4803F01EFC4B4803F01BFC039BD8
:10113000DA8901941B8A00932146234602A800F015
:1011400090FF464803F00EFC454803F00BFC039B60
:101150001F21DA8901911B8A009303252346B2FBE4
:10116000F5F2214602A800F07CFF3E4B1E684FF4CA
:101170007A71304603F07EF83B4803F0F3FB039BA3
:101180004FF4FC60D98901901B8AB1FBF5F14A004C
:1011900092B2009302A8234600F063FF4FF47A71E5
:1011A000304603F067F8314803F0DCFB039B4FF453
:1011B0007840DA890190B2FBF5F11B8A009349006F
:1011C000234689B202A800F04CFF4FF47A713046F2
:1011D00003F050F802A800F0C6FF254803F0C2FB58
:1011E0004FF47A71304603F045F802A800F0C6FFCC
:1011F000204803F0B7FB204803F0B4FB039BDA89D7
:1012000001941B8A00932146234602A800F029FF7F
:10121000039B1A4AD9891B8A01925B084908223B21
:101220004039DBB203F14402C9B2009202A801F1D5
:101230007F0200F053FFFEE7114803F093FB01200B
:1012400004B070BD349A0000F05200001153000049
:1012500000540000295300002E5300004A530000A0
:1012600065530000249B00007C5300009453000051
:10127000AA530000C3530000DA53000018540000C2
:10128000F753000070B5064E064CA41BA4080025B9
:10129000AC4200D170BD56F8253098470135F7E7CC
:1012A000CC9B0000D49B000013B5002001F02CFC67
:1012B000084C0146204601F06BFE204602F0BAFDC4
:1012C000054B0648009401224FF4806101F06CFE4A
:1012D00002B010BD80060020189900008002002096
:1012E0004FF080435722C3F81C25BFF34F8F0549A9
:1012F000054BCA6802F4E0621343CB60BFF34F8F23
:1013000000BFFDE700ED00E00400FA0570470000B3
:10131000F8B504460D46EFF3108772B603683BB983
:101320004FF0FF33036087F3108801252846F8BD8E
:1013300011B987F31088F9E70D4B1E680321304679
:1013400000F076F8236801330DD106F10C03236019
:101350000023F36087F31088064B4FF080525A60E9
:10136000BFF36F8FE2E73146204600F0DDF8F1E78A
:101370003808002000ED00E070B50546EFF3108658
:1013800072B6046814B986F3108870BD631C02D16C
:1013900000230360F7E754F80C3903600C21204662
:1013A00000F046F82B6813B94FF0FF332B606079DB
:1013B00086F31088BDE8704000F07AB870B5174D1C
:1013C000174E2B68346833BB24B123790B2B04BF31
:1013D0000C23237100F05EFA2B68002BFAD0002357
:1013E000104A002111602A680F49B2FA82F251F8BE
:1013F000222010680C380B22844202710AD023B1DB
:101400001A790B2A04BF0C221A71084BB0F9062076
:101410001A80306070BD2346E2E700BF300800202C
:10142000380800203C080020440800203408002030
:101430000A2930B503791AD90A2B14D842791A4BE4
:1014400053F8225000F10C047DB12D68C56053F8AB
:1014500022502C6043F82240144C4FF00043D340FC
:10146000226813432360017130BDC460F2E70A2B88
:10147000F9D945790C4C54F825303BB11A689342A0
:101480000BBF0023126844F825301A60427954F8E3
:101490002230002BE7D1054C4FF0004323FA02F233
:1014A000236823EA0203DDE7440800203008002017
:1014B0000B4B1B681A790A2A02D95B7983420DD932
:1014C000EFF30583DBB21BB1064B01221A607047B4
:1014D000054B4FF080525A60BFF36F8F704700BFCB
:1014E000380800203C08002000ED00E008B5EFF3CC
:1014F000108372B6084B094A1B88094C1BB20021A5
:1015000042F82310074A20681368013B1360FFF775
:101510008FFF216000F07AF9340800208408002051
:10152000380800204008002030B54C7901F10C0249
:101530000346006818B110F8075CA542F8D9C860E6
:101540001A6030BD0F2A2DE9F84316461F4626D8EB
:1015500010F003031EBF0439C918C3F10402A1F13E
:10156000280118BF801821F00303C418EFF3108975
:1015700072B62149012251F822500FFA82F88DB13A
:101580000132212AF7D189F310886FF08A082FE001
:1015900002212046FFF74CFF89F3108828E06FF006
:1015A000150825E041F822400246A4F80680DDE94E
:1015B000080100F0F7F8114A20604FF0FF33C4E94A
:1015C00008351368667101331360FB07C4E90355DE
:1015D000C4E905552571E561DAD40C212046FFF7F1
:1015E00027FF7A07D8D489F310883046FFF760FFC9
:1015F0004046BDE8F88300BF840800204008002072
:1016000010B50346EFF3108472B6028902EA0100B6
:1016100022EA01021A8184F3108810BD0C4B10B528
:101620001B68EFF3108472B61A8910420DD118614D
:1016300007211846FFF7FCFE84F31088054B4FF096
:1016400080525A60BFF36F8F10BD84F31088FBE7A0
:101650003808002000ED00E013B5064B01901C682F
:10166000FFF7DCFF0199204602B0BDE81040FFF70C
:10167000C7BF00BF3808002010B5EFF3108472B662
:10168000038902791943072A038A018104D0082AB1
:1016900013D084F310880FE01942FAD00C21FFF721
:1016A000C7FE074B01221A6084F31088054B4FF0E8
:1016B00080525A60BFF36F8F10BD8B43E9D1EDE7C5
:1016C0003C08002000ED00E008B5FFF7DBFD034813
:1016D00003F048F9FFF714FD002008BD1E99000033
:1016E0001FB5EFF3108372B6074B029300230193EB
:1016F000064B009307220C234FF4C0610448FFF708
:1017000021FF00F083F800BF57990000C9160000C0
:101710000809002008B501F0B5FABDE8084002F05C
:101720009DBB704708B50B4B1A680C4652B9012295
:101730001A60FFF7F6FF0848214603F08DF80748C6
:1017400003F010F9EFF3108372B600F029F800F0FF
:101750001DF900BF080F00205C9900007899000077
:101760000C4B0D4A10B540219A600C4CE02283F8D6
:101770002220D9770022A0180132302A80F80013E5
:10178000F9D11A6942F010021A615A6942F40072E2
:101790005A6110BD00ED00E00010000000E100E023
:1017A000704700001A4422F0030210B54FF077345E
:1017B00042F8044C540758BF4FF08834A2F1040398
:1017C0005CBF42F8084CA2F108034FF0807243E975
:1017D00002020D4A43F80C2C0020032243E90520A5
:1017E00043F8201C01220224194643E907246FF024
:1017F000020241F8242D0B2241F8042D013A032A5C
:10180000FAD1A3F1440010BDED1400000023E1EE75
:10181000103AEFF3148323F0040383F31488BFF327
:101820006F8FEFF3108362B6024B4FF080525A6015
:10183000BFF36F8F00ED00E0114910B50C6872B670
:10184000FFF7BCFD62B6A04208BF10BD2146BDE84F
:10185000104049B1EFF309821EF0100F08BF22EDCE
:10186000108A22E9F04F0A600068B0E8F04F1EF0DD
:10187000100F08BFB0EC108A80F309887047000091
:1018800038080020024B4FF080525A60704700BF6A
:1018900000ED00E030BF62B6BFF36F8F72B67047E5
:1018A00008B502490620FFF73DFF00BF8A990000F6
:1018B00008B502490720FFF735FF00BF96990000E1
:1018C00008B502490520FFF72DFF00BFA9990000C8
:1018D00008B502490820FFF725FF00BFBC990000AA
:1018E00008B502490920FFF71DFF00BFCE9900008F
:1018F00008B502490A20FFF715FF00BFE299000072
:1019000008B502490B20FFF70DFF00BFF499000056
:1019100070477047174A08B5D2F8883043F470030F
:10192000C2F88830FFF7F4FF134B1448DA1C121A80
:10193000C11E22F00302994288BF0022104902F022
:1019400094FE104B1048DA1C121AC11E22F003023A
:10195000994288BF0022002102F095FEFFF7D9FFCF
:1019600000F042F8FFF7D2FC02F058FEBDE8084054
:10197000FFF7B6BE00ED00E080020020000200206C
:10198000D49B0000F012002080020020BFF34F8F94
:101990000549064BCA6802F4E0621343CB60BFF30B
:1019A0004F8F00BFFDE700BF00ED00E00400FA0527
:1019B0004FF0704393F8E02F062A12D1D3F8E40FCA
:1019C00010F00F000DD1D3F8E82F02F0F002302A0A
:1019D00008D1D3F8EC3F13F0F00F0CBF012000202A
:1019E000704700207047000008B5FFF7E1FF30B1F5
:1019F000134AD2F8FC3023F08073C2F8FC30FFF7B2
:101A0000D7FF20B14FF080430322C3F8A025FFF792
:101A1000CFFF30B14FF080430022C3F80C21C3F850
:101A2000102100F0BBF8074B0122C3F84025FFF757
:101A300097FEFFF76FFEBDE8084001F019B900BF3F
:101A400000ED00E000E00140044B1B682BB1044BAB
:101A50004FF080525A60BFF36F8F70473C080020F0
:101A600000ED00E00B4B98420DD0B0F1402F0CD0B0
:101A700003F5003398420AD003F5404398420CBF67
:101A8000032000207047002070470120704702208B
:101A9000704700BF0030004008B5FFF7E3FF0A4B76
:101AA00043F82010094B43F82020094B1B56002B0C
:101AB00008DB0122590903F01F0302FA03F3054A68
:101AC00042F8213008BD00BF0C0F00201C0F002081
:101AD000029A000000E100E070B5FFF7C3FF044682
:101AE00007480E4600EB840001211546FFF710FC65
:101AF000044B43F82460044B43F8245070BD00BFEE
:101B00002C0F00200C0F00201C0F0020FFF7E4BF5B
:101B100008B5FFF7A7FF034B03EB8000BDE80840C3
:101B2000FFF72ABC2C0F0020FFF7F2BF08B5044ACC
:101B3000044B10681B689847BDE80840FFF784BF56
:101B40001C0F00200C0F002008B5044A044B5068FD
:101B50005B689847BDE80840FFF776BF1C0F002080
:101B60000C0F002008B5044A044B90689B68984706
:101B7000BDE80840FFF768BF1C0F00200C0F0020D5
:101B800008B5044A044BD068DB689847BDE80840B4
:101B9000FFF75ABF1C0F00200C0F002070474FF0BA
:101BA0008043D3F8182412F4803214D1C3F81825D6
:101BB000C3F8042101229A60D3F80421002AFBD043
:101BC0000022C3F80C2101221A614FF08042D2F8A2
:101BD0000C31002BFBD07047036802463BB11868FC
:101BE000834219BF02681A600023136070471846C9
:101BF0007047EFF3108272B60B6833B903685BB1BC
:101C00001B680B60036819600160406882F31088EC
:101C100020B10121FFF730BD0960F5E7704708B535
:101C2000EFF3108172B6FFF7D7FF81F3108808B188
:101C30000023036008BD000038B1054B0A0901F01C
:101C40000F019A5C5B5C027043700220704700BF1A
:101C5000069A0000F8B50D465700064610B18C18DC
:101C6000A54201D13846F8BD304615F8011BFFF7F3
:101C7000E3FF0644F4E790B1D9B1002340EA010242
:101C8000D2070ED5C20710D5CA0710D581423EBF74
:101C9000024608461146091AF6D100FA03F1084631
:101CA0007047400849080133E8E74008EAE7490877
:101CB000EAE70146F3E72DE9F8430C4607461146EB
:101CC00020461546FFF7D7FF84423BD3B5FBF0F91A
:101CD000B4FBF0F00026B0FA80FE4FF00048CEF1E1
:101CE000200528FA0EF834463346B446CEF15F0E8E
:101CF000DB184CEB0C0110EA080F18BF43F001038E
:101D00004B4571F100028C464FEA44044FEA5808F3
:101D100011D3B3EB090361F1000C44F00104002C72
:101D20000CDA53EA0C0300D00134C5F120053C6005
:101D30003D71BDE8F883002CF1D1013D01367645B7
:101D4000D6D3EEE700252C46EFE7000073B5044636
:101D500000250E46019500F0D6F82A462B460121B3
:101D6000204600F0E1F84B4B7821186802F082FA27
:101D70002B462A462821204600F0D6F827238DF846
:101D8000043001AA0123C021204600F0CDF8102321
:101D90008DF8043001AA0123C121204600F0C4F8C7
:101DA0003E238DF8043014238DF8053001AA022358
:101DB000C521204600F0B8F886238DF8043001AA2A
:101DC0000123C721204600F0AFF8626892F9123073
:101DD000127BAA4214BF2A46082213438DF804300E
:101DE00001AA01233621204600F09EF818238DF821
:101DF000053001AA0223B12120468DF8045000F0DD
:101E000093F808238DF8043082238DF80530F38988
:101E1000DB08013B8DF8063001AA0323B6212046DA
:101E200000F082F855238DF8043001AA01233A21ED
:101E3000204600F079F8012301AA262120468DF8DA
:101E4000043000F071F8144A0F23E021204600F01E
:101E50006BF80F23114AE121204600F065F8636812
:101E60005B7B2BB12B462A462121204600F05CF8F3
:101E700000231A462046112100F056F800231A4686
:101E80002921204600F050F8204600F046F80020B6
:101E900002B070BD249B0000259A0000169A000035
:101EA00038B5054600F065FF044605F11000FFF760
:101EB00063FA204638BD13B50468B4F1FF3F08D07B
:101EC00001930023009313460A46417A204600F00E
:101ED0003DFB02B010BD13B5CDE9002141680446B9
:101EE000887A00F011FA61680868431C04D0DDE9C3
:101EF0000023497A00F0F1FE6368987A02B0BDE8E9
:101F0000104000F0F1B941680868431C04D04B68E8
:101F10000A7A497A00F0F4BA704743681868431C9B
:101F200001D000F009BB704770B516461A1E1C465A
:101F300018BF01220546FFF7CEFF3CB16868234673
:101F400032460021BDE87040FFF7B5BF70BD2DE9F6
:101F5000F3410468BDF82050D4F804E080460F46F1
:101F600016469C46BEF1000F05D0F446089502B017
:101F7000BDE8F04160474368DA7C1B7D17440CEBF9
:101F800003041D44164404230DEB03027FBA76BA02
:101F90002A21ADF80470ADF80660A4B2FFF7C4FFC3
:101FA000ADB2042364BA6DBA0DEB03022B21404697
:101FB000ADF80440ADF80650FFF7B6FF02B0BDE83B
:101FC000F08100000B68013370B504460D46416096
:101FD0000CD00321A87A00F067F96368597A186871
:101FE00000F066FE28B14FF0FF3070BD114802F0DE
:101FF00033FC6368D87A104BFF281E680ED003218B
:1020000000F052F96368D87A00F07EF93046782102
:1020100002F030F96368D87A00F066F9304678212A
:1020200002F028F92368294620461B68BDE8704065
:10203000184700BF3C9A0000249B00001FB50446CF
:10204000CDE902210193FFF75EFF2046DDE9013271
:102050000399FFF769FF204604B0BDE81040FFF781
:102060005CBF2DE9F04385B01E46BDF83090A9EB6A
:102070000303A2EB010807460C460133154608FB93
:102080000338FFF740FF334621462A463846CDF84D
:102090000090FFF75CFF01222C213846FFF71BFF61
:1020A000BDF834300CAA5BBA22F8043F002408F1D2
:1020B000FF38444578684FF0020308DB0021FFF742
:1020C000FAFE3846FFF729FF05B0BDE8F08301218D
:1020D00003920134FFF7EFFE039AEAE72DE9FF4789
:1020E000BDF830A0DDF834909846AAEB0303541AEB
:1020F00005460E461746013304FB0334FFF703FF82
:102100003A46314643462846CDF800A0FFF71FFF68
:1021100001222C212846FFF7DEFE0026671EB7426B
:10212000686813D804F10043013B0DF10E0239F841
:1021300013305BBAADF80E3000210223FFF7BBFE6F
:10214000284604B0BDE8F047FFF7E7BE39F816307F
:102150005BBAADF80E300DF10E0202230121FFF73C
:10216000AAFE0136DBE743685B7B002B4FF00003E0
:102170001A4614BF20212121FFF760BF43685B7B13
:10218000002B4FF000031A4614BF21212021FFF736
:1021900055BF73B50A460C462321054602F073FA73
:1021A000684600F05DFD6946002241F2055311F8D2
:1021B000010B03EB43130344B2FBF4F004FB1020C8
:1021C00001322E5C082A86EA03062E54EFD1002342
:1021D00041F205529C4201D102B070BDE95C02EBB4
:1021E00042120A44B3FBF4F104FB11310133685C81
:1021F00050406854EEE7000010B50446FFF7C9FFF1
:10220000034A1378591C117022785340237010BD73
:102210003C0F0020014B186802F062B91802002040
:102220007047000030B50346EFF3108472B60A4AD7
:102230000A4D10680144A94206D90C221A604FF0D9
:10224000FF3084F3108830BD054DA942F5D31160ED
:10225000421CF6D1F1E700BF00020020000004207C
:10226000F01200201946104600F048BD19461046ED
:1022700001F0F6BD132303604FF0FF3070471323C6
:1022800003604FF0FF307047132303604FF0FF30BF
:10229000704702294FF0000303608CBF002001202B
:1022A0007047FFF72DBB00000C2908D801238B4095
:1022B00041F21902134206D14FF0FF30704740F24D
:1022C0000C639942F8D110F0200F00F01F00054B6D
:1022D00000F5E07008BF4FF0A04343F82010002045
:1022E000704700BF0003005000F01F03012210F0F0
:1022F000200F02FA03F2034B08BF4FF0A043C3F8CC
:10230000082570470003005000F01F03012210F061
:10231000200F02FA03F2034B08BF4FF0A043C3F8AB
:102320000C2570470003005008B5FFF738FC064B3A
:1023300001225A6005494FF4003008600021C3F8BB
:1023400008151A6008BD00BF0010014000E100E060
:10235000014BD3F80405704700100140064B19608B
:10236000064B1A60064B20F07F404FF48032C3F8D2
:102370004005C3F804237047440F0020400F00209D
:1023800000100140024B4FF48032C3F8082370471D
:1023900000100140014B01221A60704700100140FB
:1023A00010B5134CD4F84031012B0BD10023C4F8E5
:1023B00040314FF480330F4AC4F808330E4B106895
:1023C0001B689847D4F80431012B07D100230B4A2E
:1023D000C4F804310A4B10681B689847094B1B6806
:1023E0002BB1094B4FF080525A60BFF36F8F10BD75
:1023F00000100140400F0020440F0020480F002033
:102400004C0F00203C08002000ED00E0074B53F883
:10241000302003EBC0000379C2F808354379C2F8D5
:102420000C358379C2F81035704700BF7C9A0000E4
:1024300010B50446054800EB8400FEF79DFF044BF1
:1024400053F834300022C3F8182110BD900F00203B
:102450007C9A00002DE9F0410E4D4FEAC00805EBD3
:10246000C0000C4646798779FF2E03D0098838468C
:10247000FFF71AFFFF2F03D061883046FFF714FFE4
:1024800045442879FF2802D0A188FFF70DFF0020DE
:10249000BDE8F0817C9A00001FB50B4B024618681E
:1024A00002909B88ADF80C3002A910460192FFF70C
:1024B000D1FF019A054B064953F83200FFF7ECFAB9
:1024C00005B05DF804FB00BF749A00007C9A000020
:1024D0003124000010B504460848002340F8243099
:1024E000012100EB8400FEF713FF2046FFF7D4FF25
:1024F0002046BDE81040FFF789BF00BF900F0020C5
:10250000F8B51E460A4B0B4953F83050044617469F
:1025100002462846FFF7FAFA2046FFF777FF07231F
:10252000C5F85475C5F82465C5F80035F8BD00BF79
:102530007C9A000031240000034B53F83000002344
:10254000C0F80035FFF7F0BA7C9A00002DE9F74F8C
:10255000FF29DDE90C9883460F4600921C4602D005
:102560000846FFF7D1FE2C4B2C4853F83B60402324
:10257000C6F804332A4B03EB8B1A00EB8B0B454652
:10258000FF2D28BFFF25EDB2002C3BD0A2003CD48C
:10259000402D2A46214628BF40225046019202F093
:1025A00064F8019A51461546B9F1000F14BF2B4645
:1025B0000023C6F844150193C6F83495C6F848259B
:1025C000C6F838350023C6F818310123336119469F
:1025D0005846FEF79DFE002C019B14BF2A460022A0
:1025E000B8EB050814449944C9D14023FF2FC6F81D
:1025F00008330DD0009B5BB9384603B0BDE8F04FFF
:10260000FFF772BE21462246CEE721462A46CBE797
:1026100003B0BDE8F08F00BF7C9A0000900F00204F
:10262000500F00200268837A007AD2F8D020012867
:102630000CBF8020002003F00703002943EA0003B9
:1026400014BF4FF4807100210B43C2F81835704756
:10265000FFF7E8BF0A4A03688221C2F81C1C817A8E
:10266000D3F8D03003EB810301219962D3F8301104
:102670000029FBD00021C3F83011C2F81C1C7047A0
:1026800000700240032904D0042902D06FF08500B5
:10269000704701201070704701290AD11278D0F8D4
:1026A000D0301AB1C3F8041508467047C3F80425A2
:1026B000FAE76FF0850070470129F0B504460BD1A9
:1026C000012A0CBF103004F17000002585720460EF
:1026D00002724172436003E0881E012801D9002084
:1026E000F0BD04F11C050126012A0CBF284605F1A6
:1026F0006000477A3FB986720136082E05D00C3546
:102700000028F1D0E3E70020F6E70028E7D0DEE775
:10271000017A0368827A012907D12AB9D3F8D03027
:102720004FF48062C3F804237047002AFCD1D3F829
:10273000D0304FF40002F5E7017A0368827A01296C
:1027400007D12AB9D3F8D0304FF48062C3F80823F8
:102750007047002AFCD1D3F8D0304FF40002F5E7DF
:10276000D0F8D03001225A6570470268837AD2F8D7
:10277000D02010B40BB9C2F85C31047A0121994021
:1027800014B94C3342F823405DF8044BC2F86C1482
:10279000FFF7BEBF012904D0022918D06FF08500D1
:1027A00070470368D3F8D010837A007A50B903F5E4
:1027B000887301EB83035B68003B18BF0123137030
:1027C0000120704703F5847351F82330F4E7036860
:1027D000817A007AD3F8D03030B901F5947153F88A
:1027E0002130136004207047142000FB0133D3F81C
:1027F0000836F6E770B50568847AD5F8D030007AE7
:10280000164674BB012816D172B995F8D420022A55
:102810000AD118650146AB6805F1100098470423FA
:1028200085F8D430304670BD0122C3F80016C3F8D5
:1028300004665A60F6E7C3F80017C3F8042795F852
:10284000D410012908D11965032385F8D43005F186
:102850007000AB689847E5E70229E3D10122DA640A
:10286000E0E71422012802FB043214D1C2F800165A
:1028700003EB8403C2F804660C4A8221C2F81C1CD4
:102880005860D3F808110029FBD00021C3F80811C3
:10289000C2F81C1CC6E704F59474C2F80017C2F80D
:1028A0000467012243F82420BCE700BF0070024007
:1028B00038B5D0F8D030D3F8002104466AB10022F0
:1028C000C3F800210421436880F8D4209847D4F845
:1028D000D0300122C3F8042338BDD3F85821002A90
:1028E000FAD0D3F80054EA0502D543680621984788
:1028F000AB0503D56368072120469847D4F8D0304C
:102900000022C3F8582140F60172C3F800244FF4A6
:102910008002DFE738B505460C4621B101292BD0EE
:102920006FF0850038BD03681278D3F8D010837A31
:10293000047A012000FA03F382B14CB9D1F81425CE
:102940001343C1F814352846FFF70FFF0120E9E7CC
:10295000D1F810251343C1F81035F4E7DB432CB947
:10296000D1F814251340C1F81435DBE7D1F8102550
:102970001340C1F81035D5E71178FFF753FE204614
:10298000D0E7F8B5837A0568027A0446002B5DD15A
:1029900095F8D410002A4CD1032908D185F8D42009
:1029A00008212368C9B29B682046984734E0D5F8CF
:1029B000D030D3F85C11A1B3C3F85C21D3F8001771
:1029C000D3F880740F70D3F88404C0B24870D3F881
:1029D0008864D3F88CC446EA0C264E80D3F8906401
:1029E000D3F894C446EA0C268E80D3F89864D3F8C2
:1029F0009CC417F0800F46EA0C26CE8014BF01213C
:102A00000221052814BF85F8D41085F8D420D3F806
:102A10008434DBB2052BC3D12046BDE8F840FFF774
:102A200077BED3F82821BAB3C3F82811FFF712FEF6
:102A3000B6E7042902D185F8D430B1E7D5F8D02023
:102A4000D2F8281141B3C2F82831A9E7012AD5F8F4
:102A5000D0100FD1D1F86C0402FA03F318421BD046
:102A6000C1F86C340023C1F860314FF08073C1F8B5
:102A7000043395E7D1F86C241033012606FA03F3EA
:102A8000134209D0FFF7E6FD837AD5F8D020103342
:102A90009E40C2F86C6483E74FF0FF3181E700008D
:102AA000174AD0F8D03010B549F275310324C2F876
:102AB000001CC2F8144DC2F8001C0121C3F8001517
:102AC000D3F800140905FBD5D3F8001421F40061F4
:102AD000C3F8001449F275340021C2F8004CC2F862
:102AE000141DC2F8004C0122C3F8002502F1A072A7
:102AF00080F8D410C3F80023024B80225A6010BD26
:102B000000E0064000E100E0024BD82202FB00306A
:102B1000704700BF940F0020034B044A1A60044A18
:102B2000C3F8D020704700BF940F0020849A0000A3
:102B3000007002402DE9F041444CD4F8D030D3F875
:102B40000021A2B1D3F80023D00710D50121C3F88A
:102B500008136368204698473D4B1B682BB13D4BDB
:102B60004FF080525A60BFF36F8FBDE8F081D3F809
:102B700058215AB1D3F80023510207D54FF48002EF
:102B8000C3F80823314863680121E4E7D3F85C21E6
:102B900052B1D3F800331A0206D52F48A368012199
:102BA00098472D48FFF7C8FDD4F8D030D3F8282136
:102BB000C2B1D3F800335B0514D594F8D4100129C1
:102BC00005D12648A36898472448FFF7B5FD94F837
:102BD000D430022B06D12048A368012198471F4812
:102BE000FFF7AAFDD4F8D030D3F86021002AB3D083
:102BF000D3F86C24002AAFD00022C3F86021D3F8A8
:102C00006C840C260127B8F1000FA5D098FAA8F51E
:102C1000B5FA85F5102D10DDA5F1100070432318CD
:102C200093F8793023B17030A3680121204498478C
:102C300007FA05F528EA0508E5E706FB05F023187D
:102C40005B7E002BF4D01030EEE700BF940F002025
:102C50003C08002000ED00E004100020A40F00203C
:102C6000024A034603CA18605960704760000010AA
:102C700008B50020FFF72EFCFFF756FBBDE8084023
:102C8000FFF74ABF10B50321084C2920FFF70CFBC2
:102C90004FF40073C4F80C3503212A20FFF704FB1E
:102CA0004FF48063C4F80C3510BD00BF0003005022
:102CB00038B50D46044650B9FF290BD003212846EC
:102CC000FFF7F2FA2846FFF70FFB204638BD6FF0FA
:102CD0000500FBE76FF01500F8E77FB58DF80F30C2
:102CE000012301930DF1170300930DF10F03FFF77B
:102CF0002DFC9DF8170007B05DF804FB6FF0850010
:102D0000704782680168531C83604368013B13402D
:102D1000C85C704710B5EFF3108472B6EFF3108102
:102D200072B6D0E9022381F310889A4204D0FFF7EB
:102D3000E8FF84F3108810BD4FF0FF30F9E7F8B5D5
:102D400004460E46EFF3108772B60D4645B1EFF319
:102D5000108172B6D4E9022381F310889A4203D11C
:102D600087F31088701BF8BD2046FFF7CAFF013DAE
:102D7000ECE730B5EFF3108472B6EFF3108572B65E
:102D8000D0E902239B1A426885F3108893420BD046
:102D9000C2680568531CC3604368013B13400020B0
:102DA000E95484F3108830BD4FF0FF30F9E7F0B5F7
:102DB000EFF3108772B6144654B1EFF3108672B673
:102DC000D0E902535B1B456886F31088AB4203D100
:102DD00087F31088101BF0BDC66811F801CB056899
:102DE000731CC3604368013B3340013C05F803C0DA
:102DF000E2E7B1F5167F08B506D0B1F5966F01D1BF
:102E0000FEF76EFA002008BDFEF7C0FDFEE70000E9
:102E10000129F8B5C4680ED1B4F99421531E9BB2B0
:102E20001F2B96BF234B002053F822000221BDE840
:102E3000F840FEF721BC062921D0072928D0042913
:102E40001CD10123D4F8780184F89831002584F846
:102E50009A5102682946D66804F5CD72B0472346D8
:102E600004F1A00283F8405083F8E05014339A42F2
:102E7000F8D101260027D4F88C5185B9F8BD94F813
:102E8000983184F89931042684F898610227F2E792
:102E900094F8993184F8983108260327EBE7EB681A
:102EA0001E4205D06B683A465B6829462046984723
:102EB0002D68E2E78408002070B50A4604460368DE
:102EC000A17AD868012A22D1237A012B0CBF0823CA
:102ED0000023EFF3108472B60B44D0F89051DBB2AC
:102EE00002FA03F12943C0F8901184F31088B0F975
:102EF0009421531E9BB21F2B98BF234BBDE87040FB
:102F000094BF53F8220000200421FEF7B5BBC9B9D5
:102F1000D0F88C11C9B1082A2ED0092A15D1CB6856
:102F20009B0612D54B6822469D680223A84723685A
:102F3000164A1B685D6A01232046AC461946BDE867
:102F400070406047D0F8883103B970BD996819B9ED
:102F5000D96841B91B68F7E78D68AC4201D119699E
:102F6000D8E70968F3E78D680DB90968F1E7AE683D
:102F7000B442F4D02D68F7E74B689D682246AC4612
:102F80000023BDE87040604784080020E39A0000F9
:102F900038B504460D464FF4D872002101F073FB9A
:102FA000C4F8785138BD00001FB50293069B019309
:102FB000034B00930823FEF7C5FA05B05DF804FB48
:102FC000E52F000010B5D0F884310B60B0F89631D1
:102FD000C0F884115C1CA0F896410B814A60184629
:102FE00010BD00002DE9F0474C4BB2B000261B6825
:102FF000C0F8743103A9C0F87C11C0F870610446B0
:1030000000F5B87800F0E6FA454BD4F878511B8803
:10301000A4F894310123A4F89631424B84F89A61C4
:10302000C4F888616B60404BC5E902342B682846C0
:103030001B6898473D4A04F118012046FFF7C2FF7C
:103040003B4A04F10C012046FFF7BCFF394A2146F8
:103050002046FFF7B7FF04F5CE77082101A8FFF758
:10306000CBF8082201A93846FEF7F4FD3A4604F1F0
:1030700024012046FFF7A6FF84F89861D4F88C61FC
:10308000F6B92B682C4ADE68012319462846B0475A
:103090004FF001090720FEF7DFFA8107064603D546
:1030A0002B6828461B699847720710D4F307F1D59F
:1030B0004046FEF7B4FD0028ECD043689847E9E7A6
:1030C000736831461B68204698473668D8E7EFF3A7
:1030D000108372B60022D4F890A1C4F8902183F333
:1030E00010881427BAF1000FE0D09AFAAAF3B3FAC5
:1030F00083F3072B09FA03F2CBBF083B07FB03431B
:1031000007FB0343986BC8BFD3F8D80003681B685C
:103110009B6A2AEA020A9847E4E700BF38080020C1
:1031200034080020112E0000B92E0000B49A0000CF
:10313000BF9A0000D69A0000E29A0000D0F88831C9
:1031400010B5002200F5C47490B2013213B908839F
:10315000216010BD1C461B68F6E7D0F88C3100F5E5
:10316000C6720BB9116070471A461B68F9E710B5B3
:10317000806800B910BD83685C7A8C4202D11B7AEA
:103180009342F7D00068F4E7F8B50446D0F8780128
:10319000069E0D4611461A4603685F683346B847D7
:1031A000034678B1827A017A02EB82029200012909
:1031B0000CBFD0323032A0188681836015B1AB6865
:1031C0000360A860F8BD01210174806803681B6872
:1031D000DB69184700210174806803681B68DB699C
:1031E0001847F7B5CB6843F001030026CB604027B2
:1031F00001230C460E761A46314600970546FFF726
:10320000C3FF8368A36300973346012231462846F3
:10321000FFF7BAFF8368636303B0F0BD03681B6800
:1032200010B45C6A0A46A44601235DF8044B0021F1
:10323000604703681B68DB6A184700002DE9F34705
:103240000C460B7C91F910100029054603DBE28A3D
:10325000206B90420ED803F01F02012A00F0C280BA
:10326000022A00F0DE8062B90029637C7ADA5BB161
:10327000062B14D0D5F8780103685B6998470023C2
:10328000237602B0BDE8F08795F89B315B000222FF
:1032900001A92846ADF8043000F0CCF94AE0638A71
:1032A0001A0A013A052AE5D801A151F822F000BF17
:1032B000C9320000D7320000DF3200007532000052
:1032C000753200004D330000284600F07FFB0028D7
:1032D000D0DBD6D02EE0284600F079FAF7E7D5F813
:1032E0008461002EC6D013F0FF034FF003020CD10F
:1032F00004238DF801206946022228468DF800300B
:1033000000F098F940F20943C1E78DF805203289B1
:103310009A4200F0B1803668002EF8D1AAE728461C
:1033200000F0B5F90021284600F0B1F916F8011FA8
:103330000029F4D194F91030002B2EDA012328460D
:10334000237602B0BDE8F04700F0BDB9D5F87801AA
:1033500000238DF80430036801AA9E68042101232C
:10336000B04787E7052B15D0092B83D10323D5F868
:103370008861DFF82891DFF828A185F89831002EC0
:10338000D8D0B768C7B9D6F80C80B8F1000F1BD1F8
:103390003668F4E7638A85F89A31E38A226B9A42A9
:1033A00063D20323606B2376402204F13C0102B018
:1033B000BDE8F047FFF73DBFFB7B1BB1B86849464E
:1033C000FFF72CFF3F68DDE7D8F8087017B9D8F889
:1033D0000080DAE7FB7B1BB1B8685146FFF71EFFA0
:1033E0003F68F3E7617CA28A03F060030B4302F0BD
:1033F0000F023FF44CAFD5F88831002B3FF43AAFC1
:10340000198B91420BD119694868C6683EB1D5F84D
:103410007C2104F11003127E2846B04757E71B6851
:10342000EBE7A38A03F00F0000EB80001B06637C30
:103430004FEA80004CBFD0303030012B28440DD0F3
:10344000032B04D0002B7FF415AF037C1FE7638AA6
:10345000002B7FF40FAFFFF7B6FE6BE7638A002BFC
:103460007FF408AFFFF7B6FE64E70423A06B237672
:10347000002204F17C019AE702278DF8047070683D
:1034800001F0BBFA013040008DF804003A4601A972
:10349000284600F0CFF87668013E47E7F69A00002C
:1034A000F59A000073B505460C4653BB0B7E042B02
:1034B00027D8DFE803F05328233D0300137A012BBC
:1034C0001FD190F89A3173B190F89831012B0AD13D
:1034D000D0F8780102680021D66805F5CD72B047B2
:1034E000022385F898310023606B2376402204F193
:1034F0003C0102B0BDE87040FFF79BBE137A002B81
:10350000F2D002B070BD167A012EFAD100F07AF82E
:1035100028B121462846FFF791FE2676F1E7606B39
:10352000402204F13C01FFF784FE02232376E8E702
:10353000137A002BE5D1606B019303681B681E6A48
:1035400004230DEB03020221B047236B019A1344BD
:10355000236321462846FFF771FED2E7167A002E34
:10356000CFD13146102204F11C0001F08CF8E36B3E
:103570002361236C6361E38A266321462846E36264
:1035800002B0BDE87040FFF759BE000010B50C4610
:10359000E2B980F89B21886B0A7603681B689B69F7
:1035A0009847606B03681B689B699847A06B084944
:1035B000FFF734FE606B0649FFF730FE606B04F1E5
:1035C0003C014022BDE81040FFF733BE10BD00BFF4
:1035D000F49A0000034B4B60D0F88C310B60C0F8BC
:1035E0008C117047E49A000038B5D0F87C41606BCC
:1035F00003681B680A461D6A02210423A84704F1D8
:103600003C0038BDD0F87C319A6BD8695268196A91
:10361000024491420CD9D96A884209D2986A8142FF
:103620004FF0000005D9C3E9072058620120704718
:1036300000207047D0F87C01F8B5836BC7695D68DE
:10364000036A9F423D4403EB020C09D9AB4202D20C
:10365000FE1A964207D9C0F820C000242046F8BDC3
:10366000AB42F8D20026AC452CBFEC1A941B426A40
:10367000C0F820C028BFA41B2244DB1B4262334495
:103680007C3022463144184400F0EFFFE6E7D0F8E2
:103690007C21D2E90703984210B510D8946B646876
:1036A0000444A3420BD21B1A1344012083F87C105C
:1036B000136A01331362536A0133536210BD01333D
:1036C00013620020FAE7D0F87C11CB6ACA69486A15
:1036D0009A1A82428B6A28BF0246886B13448B6217
:1036E00003681B687C31DB6A184770B506460C46D8
:1036F00000250CB9284670BD62689368127B1AB128
:10370000A16830469847034624681D44F1E770B528
:1037100006460C4600250CB9284670BD63681B6838
:103720001BB1A16830469847034624681D44F2E760
:1037300070B506460C4600250CB9284670BD636876
:103740005B681BB1A16830469847034624681D4456
:10375000F2E72DE9F34105460C464FF00008072635
:1037600005271CB9404602B0BDE8F08161682846D3
:10377000FFF7CDFFA2688DF80060117A937A8DF87B
:103780000230012904BF63F07F038DF80230537AC1
:103790008DF801709A1E022A9ABFC3F10503DBB2AD
:1037A00000238DF80330A389ADF804300722A37BF2
:1037B0008DF8063069462846FFF73CFF61682846C9
:1037C000FFF7B6FF9DF8003024689844C9E72DE95B
:1037D000F04F8DB0092200238DF80C20ADF80E209B
:1037E0000122ADF810308DF8112080228DF81320C1
:1037F000322202218DF81420D0F888218DF8123061
:1038000004468DF80D1032BBD4F880118DF81030BD
:103810002046FFF76AFFD4F8885100F10906EDB998
:10382000238CADF80E60092203A920468DF81230D2
:10383000FFF700FFD4F880112046FFF779FFD4F896
:10384000886100F10909A846002E3FD109EB050067
:103850000DB0BDE8F08F12680133D4E769682046E7
:10386000FFF743FF00F109073744AE684FF0000847
:1038700046B9D5F80C904744B9F1000F0AD12D682C
:103880003E44CCE771682046FFF72FFF07303668CB
:103890008044EDE7D9F804102046FFF726FFD9F859
:1038A0000880093006444FF0000AB8F1000F03D138
:1038B000D9F800905644DFE7D8F804102046FFF707
:1038C00014FF0730D8F800808244EEE77168204684
:1038D000FFF71DFF0923CDE906888DF81830042372
:1038E0008DF81930338B8DF81A30B37E8DF8208027
:1038F0008DF81D30F37E8DF81E30B268337F8DF861
:103900001F3000F1090700231ABB8DF81C307369C2
:1039100013B11B898DF82030092206A92046FFF734
:1039200089FE71682046FFF703FF3D440544B168F6
:103930002046FFF70EFFF7682B18019301220025A0
:103940004FF0090B04233FB9019B36682B441D46F9
:103950007AE712680133D7E7318B8DF82610B17EF4
:10396000CDF828808DF82910F17E8DF82C808DF807
:103970002A10317F8DF82B1002F1010AB9688DF8F9
:1039800027208DF824B08DF825305FFA8AFA0022BE
:10399000C9B98DF82820FA6812B112898DF82C2047
:1039A000092209A92046FFF745FE79682046FFF75E
:1039B000BFFE0930B96805442046FFF7CAFE3F68DC
:1039C00005445246BEE709680132E1E710B586B00A
:1039D0004FF40071ADF8061040218DF80B1041F244
:1039E0000921ADF80C104FF4FA41ADF80E104FF468
:1039F00080710022ADF810100189ADF80820122462
:103A00008DF80A208DF812100122818A838D8DF89D
:103A100005208DF813108DF8152001A922468DF888
:103A200004408DF81430FFF705FE204606B010BDA7
:103A30000AB981F87C20704713B50B238DF801304B
:103A40000B8D8DF80230082402238DF803308DF899
:103A500004308DF805302246002369468DF8004079
:103A60008DF806308DF80730FFF7E4FD204602B0F0
:103A700010BD0000284B2DE9F347C1F88430274BD7
:103A80000962C1E9153140F202234B8501F150036F
:103A90004B610A230026A1F84A3001F110080823DF
:103AA0000C460E6581F82C6081F84C604E63096409
:103AB00002220093414601230546FFF765FB04F10E
:103AC00030074FF0400A40F2FF13C3813946CDF86A
:103AD00000A0012303222846FFF756FB4FF480790C
:103AE0003346A0F80E9003223946CDF800A02846B0
:103AF000FFF74AFB4146A0F80E902846FFF71EFB51
:103B000039462846FFF71AFBE36843F00103E360F8
:103B100002B0BDE8F08700BF913C0000F89A0000B9
:103B20002DE9F743052405460E4624274FF00008EB
:103B300020234FF00109224669468DF803308DF8A5
:103B400000408DF804908DF801708DF80280FFF729
:103B500071FD02230422694628468DF800208DF865
:103B600002308DF803308DF80170FFF763FD328D60
:103B7000B6F848308DF8032006218DF80210224651
:103B8000694628468DF804308DF800408DF80170A4
:103B9000FFF750FDB6F848308DF8004022466946E0
:103BA00028468DF801708DF802908DF803808DF80D
:103BB0000430FFF73FFD132003B0BDE8F083036836
:103BC0001B68DB6A1847F8B5436F93F89831032BED
:103BD00004460D4626D190F87C30012B22D1EFF31C
:103BE000108672B600F16407EFF3108172B6D4E963
:103BF0001B2381F310889A420AD03846FFF78AF8CF
:103C0000A36F5A1C23443F2AA26783F8D000EBD944
:103C100086F31088A26F04F1D0012846BDE8F84071
:103C2000FFF7CDBFF8BD7FB51389B3F5407F0C46D4
:103C3000154614D113681B6803AA1E6A02210423C7
:103C40002846B047039A04F1900122B1E36D019137
:103C500020469847019940222846FFF7B0FF2A895D
:103C600040F201339A4211D10023A367EFF3108190
:103C700072B6D4E91B2381F310889A4206D02946F4
:103C8000204604B0BDE87040FFF79DBF04B070BD92
:103C900050F8083C803823B9836B1B689968FFF79C
:103CA00092BF70472DE9F041034600F1640790F898
:103CB0007C000D46144648B1EFF3108472B63846C6
:103CC000FFF775F884F31088BDE8F081EFF31086F4
:103CD00072B6EFF3108272B6186FD3E91A130B4461
:103CE000A3EB000882F31088444510D92118C91AA3
:103CF0003846FFF724F800EB0802A31A1D442946B2
:103D00003846FFF754F886F310882046DCE7224651
:103D1000F5E7436F2BB100F1800103F5B870FDF7B3
:103D200068BF70477FB50C465978212933D02229C6
:103D300037D020292BD1DB88072B28D1032A1BD190
:103D4000002303A90393FFF74FFC039B072B0546B2
:103D50001DD1437982790168007900902046FFF7F0
:103D600048F8266E56B92B68C4F88830AB88A4F89A
:103D70008C30AB7984F88E3001200AE028796B7999
:103D8000AA79296800902046B0470028EBDA4FF066
:103D9000FF3004B070BD072204F18801FFF74AFC30
:103DA000EAE75B8813F001034FF0010511D084F8B6
:103DB0007C500022032104F13000FFF7D8F94022A3
:103DC000806804F19001FFF7FAFE2046FFF7A1FF9B
:103DD000D2E784F87C30CFE72DE9F8430C46DDE9E3
:103DE000089805461746002120464FF4A8721E4643
:103DF00000F049FC064B6567C4E91998C4E91776D9
:103E0000636021462846BDE8F843FFF7A6B900BF26
:103E1000089B000070B5064E0C468D18AC4200D1D0
:103E200070BD14F8011B3046FEF73AF8F6E700BF04
:103E30000402002007B580230193054B0093054A37
:103E400005490023FFF7C8FF03B05DF804FB00BF7E
:103E5000AC100020153E00002C110020704700001F
:103E60002DE9F041DFF8248006460C46074622463D
:103E700039464046FFF716FF05464046FFF749FF23
:103E8000641B2F44F3D1B81BBDE8F0812C11002036
:103E900000F12401006A00F0F3B810B50446006A8E
:103EA0004369013314D000F0B2F880B1636BA0FB1A
:103EB000033294F83800C0F12004A0F1200102FA86
:103EC00004F423FA00F0204322FA01F1084310BD64
:103ED00083685B689847E8E730B4426C90F84050DC
:103EE0001144C26BC5F12004A1FB021202FA04F4D2
:103EF000A5F12003E940214322FA03F341EA03023A
:103F000030BC00F12401006A00F0D6B82DE9F04180
:103F1000044615460F46482200211E4600F0B3FB1A
:103F20001A4BA3601A4B2762C4E90B343246294668
:103F300004F13400FDF7BFFE04F13C002A4631468F
:103F4000FDF7B9FEB5424FF0FF3019D294F8385062
:103F5000616BC5F12002A1FB0010A5F12003E9402F
:103F600000FA02F220FA03F3114319434B1C61617A
:103F70000AD0A36820461B68BDE8F04149081847ED
:103F8000B5FBF6F560616564BDE8F081189B000043
:103F90004941000003461A461B680BB91846704792
:103FA0008B42F8D1C3688B4204D1824214BF1346BE
:103FB0000023C3600B6813601BB15A684868024451
:103FC0005A6000230B60012070470346006848B127
:103FD000416831B902681A600AB9DA607047016055
:103FE000704700207047416902688368B1F1FF3F64
:103FF00007D01B6849081AB15268914228BF114680
:10400000184712B11B685168FAE79B68184738B522
:104010000446EFF3108572B683685B6898470246E2
:10402000D4E90501E3698A423ABF0130801810469D
:104030005B1A1844C4E9062085F3108838BD42692C
:10404000013201D0FFF7E3BF83685B68184738B5DA
:1040500005464468FFF7F3FF2B6833B1021B0024C9
:104060005968914203D38A1A5A60686038BD521A5F
:104070005C601B68002BF8D059680029F9D0EFE785
:10408000F8B505460E46EFF3108772B604687CB1AA
:104090000C6814B9C3688B420AD12846FFF7D7FFD2
:1040A00031462846FFF776FF04462846FFF79BFF78
:1040B00087F310882046F8BD2DE9F04104460D46EF
:1040C0009046EFF3108772B6FFF7C1FF23680646EC
:1040D00043B12B6813B9E368AB4203D129462046AC
:1040E000FFF758FF228A424534BFA8EB02020022A4
:1040F0006A60234600219C461B68EBB9501A2B606E
:104100006860FBB15868891A01445960CCF80050C6
:104110002368AB420BD16369591C03D05B089A42F8
:1041200028BF1A46A36811461B682046984787F3A4
:1041300010883046BDE8F081586808448242DDD3DB
:104140000146D8E7E560E1E74369013310B504466D
:1041500019D0FFF774FF236883B161685B68194465
:10416000081A00280FDD6169A368490881421B68AD
:1041700028BF01462046BDE8104018476169A36882
:1041800049081B68F6E723683BB92046FFF72BFF79
:10419000EFF30583DBB2BBB110BD626859680A4416
:1041A000626000225A602046FFF70FFF0028ECD023
:1041B000D0E9023098472046FFF707FF0028F5D1E5
:1041C0002046FFF744FFEEE7034B4FF080525A6062
:1041D000BFF36F8FE0E700BF00ED00E010B50749C7
:1041E000084600F02DF8BDE81040044904484FF49B
:1041F00000434FF47A72FFF789BE00BFC41200205B
:104200007C120020FEF7BEB8FEF7A2B837B50C4608
:104210000190EFF3108572B6FEF79AF8022C2CBFCE
:1042200000190230019A044920F07F40FEF796F809
:1042300085F3108803B030BD3D420000FFF784BF16
:104240000A4B10B5044683606FF07F434361FEF76D
:104250006BF8FEF79FF861694B1C06D0A3682046F7
:104260001B68BDE810404908184710BD289B000096
:10427000FDF782B810B5002286B04FF0FF33CDE9CC
:104280000132094B0493438A03928B4238BFCA1A06
:1042900001AC02A90594FFF70FFF01212046FDF7AD
:1042A00037F806B010BD00BF714200008A892DE9C1
:1042B000F041054610070C4658D44B68002B05DC2E
:1042C0000B6C002B02DC0020BDE8F081E66A002EBA
:1042D000F9D0002312F480522F682B6032D0606D29
:1042E000A3895A0705D56368C01A636B0BB1236CA9
:1042F000C01A00230246E66A216A2846B047431CDA
:10430000A38906D129681D292CD82A4ACA40D60774
:1043100028D500226260D9042269226004D5421C9B
:1043200001D12B6803B96065616B2F600029CAD089
:1043300004F14403994202D0284600F0ADF9002070
:104340006063C1E7216A01232846B047411CC7D1F9
:104350002B68002BC4D01D2B01D0162B01D12F6050
:10436000B1E7A38943F04003A381ADE70F69002FB4
:10437000A9D093070E6808BF4B690F6018BF0023D0
:10438000A6EB07088B60B8F1000F9CDD216AA66AD6
:1043900043463A462846B047002806DCA38943F046
:1043A0004003A3814FF0FF308EE70744A8EB0008DD
:1043B000E9E700BF0100402038B50B6905460C460F
:1043C00013B90025284638BD18B183690BB900F030
:1043D00087F8144B9C421BD16C68B4F90C30002B4D
:1043E000EFD0626ED00704D4990502D4A06D00F01E
:1043F0003AF928462146FFF759FF636EDA0705466A
:10440000E0D4A3899B05DDD4A06D00F02DF9D9E798
:10441000054B9C4201D1AC68DFE7044B9C4208BFCE
:10442000EC68DAE7549B0000749B0000349B0000AA
:10443000002310B50446C0E90033C0E904338360AB
:1044400081814366C2818361194608225C3000F095
:104450001AF9054B6362054BA362054BE362054BFA
:104460002462236310BD00BF754900009749000016
:10447000CF490000F3490000014900F0AFB800BF88
:10448000B943000070B568224D1E55430E4605F134
:10449000740100F06DF9044640B10021C0E9001636
:1044A0000C30A06005F1680200F0EDF8204670BD08
:1044B000014800F0D8B800BFE5120020014800F024
:1044C000D3B800BFE5120020014800F0CCB800BF0F
:1044D000E6120020014800F0C7B800BFE612002035
:1044E00010B50446FFF7F0FFA3691BB1BDE810400B
:1044F000FFF7F0BFC4E912332365134B134A1B685F
:10450000A262A34204BF0123A361204600F020F869
:104510006060204600F01CF8A060204600F018F80B
:104520000022E06004216068FFF782FFA06801229A
:104530000921FFF77DFFE06802221221FFF778FFD3
:104540000123A361D2E700BF949B000079440000DF
:10455000F8B50746FFF7ACFF1E4B1E68B36913B9E9
:104560003046FFF7BDFF4836D6E90134013B03D59D
:1045700033680BB33668F7E7B4F90C50D5B9164B6E
:10458000E36004F15800656600F06CF8FFF796FFF1
:10459000C4E90155C4E904552560A56108222946EE
:1045A00004F15C0000F06FF8C4E90D55C4E9125540
:1045B0002046F8BD6834D9E704213846FFF762FF8A
:1045C000044630600028D5D1FFF778FF0C233B600C
:1045D000EEE700BF949B00000100FFFF2DE9F843C8
:1045E0000646884600F148040027D4E90195B9F150
:1045F000010905D52468002CF7D13846BDE8F883B9
:10460000AB89012B07D9B5F90E30013303D0294608
:104610003046C04707436835E9E7000070B50D4DE7
:104620000D4C641BA4100026A64209D10B4D0C4C66
:10463000FDF7F0FD641BA4100026A64205D170BD55
:1046400055F8043B98470136EEE755F8043B984788
:104650000136F2E7D49B0000D49B0000D49B0000FD
:10466000D49B00007047704770470A44914200F1A4
:10467000FF3300D1704710B511F8014B03F8014F1B
:104680009142F9D110BD02440346934200D17047D4
:1046900003F8011BF9E7000037B5002944D051F8B1
:1046A000043C0190002BA1F10404B8BFE41800F011
:1046B000D3FA1E4A0198136833B96360146003B0DB
:1046C000BDE8304000F0CEBAA34208D92568611990
:1046D0008B4201BF19685B6849192160EDE71A46F2
:1046E0005B680BB1A342FAD911685518A5420BD1EA
:1046F000246821445418A3421160E0D11C685B680F
:10470000536021441160DAE702D90C230360D6E735
:10471000256861198B4204BF19685B68636004BF38
:10472000491921605460CAE703B030BDE812002087
:1047300070B50E4E0C463168054611B9FDF772FD95
:10474000306021462846FDF76DFD431C0AD0C41C8D
:1047500024F00304A04207D0211A2846FDF762FD89
:10476000013001D14FF0FF34204670BDEC12002023
:104770002DE9F041CD1C25F0030508350C2D38BF7F
:104780000C25002D074601DBA94205D90C233B600F
:1047900000263046BDE8F0812E4E00F05DFA336809
:1047A0001C4634BB29463846FFF7C2FF431C04466B
:1047B0004DD134682646002E40D123683146384614
:1047C00004EB0308FDF72EFD80453AD1216803353F
:1047D0006D1A25F0030508350C2D38BF0C25294628
:1047E0003846FFF7A5FF01302BD023682B44236008
:1047F0000EE02268521B1ED40B2A16D96119A3425F
:10480000256018BF5960636808BF316062514B6012
:10481000384604F10B0600F025FA26F00706231DA2
:10482000F21AB6D09B1BA350B3E76268A3420CBF39
:1048300032605A60ECE723466468B2E73446766833
:10484000B9E70C233B60384600F00CFAA1E725607D
:10485000DEE700BFE81200200FB40A4B13B51C6856
:1048600024B1A36913B92046FFF73AFE05AB049AB9
:10487000A1680193204600F025FA02B0BDE810407F
:1048800004B070471802002070B50E46054618B1F6
:1048900083690BB9FFF724FEAB69AC6813B92846EE
:1048A000FFF71EFE2C4B9C4220D16C68636EDB0729
:1048B00005D4A389980502D4A06DFFF7D4FEA3897F
:1048C00019071DD52369DBB1013EA36816F8011F46
:1048D000013BA36039BB002B38DA22460A21284667
:1048E00000F094F8013011D00A2511E01B4B9C42D6
:1048F00001D1AC68DAE71A4B9C4208BFEC68D5E7F7
:104900002146284600F0D4F80028DDD04FF0FF35CE
:10491000636EDA0705D4A3899B0502D4A06DFFF767
:10492000A3FE284670BD002B04DAA2699A4206DC79
:104930000A2904D023685A1C22601970C5E7224650
:10494000284600F063F80130BFD1DFE723680A256D
:104950005A1C22601D70DBE7549B0000749B000012
:10496000349B0000024B01461868FFF78DBF00BF63
:104970001802002010B50C46B1F90E10FDF772FCBC
:104980000028ABBF636DA3891B1823F48053ACBF11
:104990006365A38110BD2DE9F0411F468B89DB05BE
:1049A00005460C46164605D5B1F90E100223002225
:1049B000FDF765FCA389B4F90E1023F48053A3819D
:1049C00032463B462846BDE8F041FDF74FBC10B5E6
:1049D0000C46B1F90E10FDF752FC431CA38915BF1C
:1049E000606523F4805343F48053A38118BFA381EF
:1049F00010BDB1F90E10FDF73DBC034613F8012BB5
:104A0000002AFBD1181A013870470000F8B50E468D
:104A10001446054618B183690BB9FFF761FD214BB8
:104A20009C422BD16C68A369A360A3891A072FD578
:104A300023696BB323692068C01A6369F6B28342A5
:104A4000374604DC21462846FFF7B6FC30BBA36896
:104A5000013BA36023685A1C22601E706369013009
:104A6000834204D0A389DB0706D50A2E04D1214650
:104A70002846FFF7A1FC88B93846F8BD0A4B9C428E
:104A800001D1AC68CFE7094B9C4208BFEC68CAE78C
:104A90002146284600F00CF80028CBD04FF0FF3715
:104AA000EAE700BF549B0000749B0000349B0000A9
:104AB000324B70B51D6806460C4625B1AB6913B97B
:104AC0002846FFF70DFD2E4B9C420FD16C68A38941
:104AD000B4F90C2019072CD4DD0611D40923336056
:104AE00042F04003A3814FF0FF303EE0254B9C4253
:104AF00001D1AC68EBE7244B9C4208BFEC68E6E7C9
:104B0000580712D5616B41B104F14403994202D0B8
:104B10003046FFF7C1FD00236363A38923F024031C
:104B2000A3810023636023692360A38943F0080302
:104B3000A38123694BB9A38903F42073B3F5007FE4
:104B400003D02146304600F047F8A089B4F90C2084
:104B500010F001030AD00023A36063695B42A361E4
:104B6000236943B910F08000BAD170BD810758BFE6
:104B70006369A360F4E70020F7E700BF1802002094
:104B8000549B0000749B0000349B000070B50E46DF
:104B9000B1F90E10002996B014461D4608DAB6F990
:104BA0000C3000222A601A0610D44FF480630EE005
:104BB0006A46FDF769FB0028F1DB019A02F47042B6
:104BC000A2F500535A425A412A60EEE740230020E2
:104BD000236016B070BD00008B8973B59D07064633
:104BE0000C4607D504F14703236023610123636169
:104BF00002B070BD01AB6A46FFF7C8FF00990546D9
:104C00003046FFF7B5FD48B9B4F90C309A05EFD43A
:104C100023F0030343F00203A381E3E70D4BB362E8
:104C2000A389206043F08003A381009B6361019B03
:104C300020615BB1B4F90E103046FDF72AFB28B1B4
:104C4000A38923F0030343F00103A381A089054353
:104C5000A581CDE7794400000148FFF704BD00BFFE
:104C6000E41200200148FFF7FFBC00BFE41200205F
:104C70009368013B002B10B4936008DA9469A34257
:104C800001DB0A2903D15DF8044BFFF7BFBE1368AF
:104C9000581C1060197008465DF8044B7047F8B551
:104CA00006460F461446D518AC4201D1002007E055
:104CB00014F8011B3A463046FFF7DAFF431CF3D1E4
:104CC000F8BD00002DE9F04F0D469DB01446984602
:104CD000064618B183690BB9FFF702FC894B9D4268
:104CE0001BD175686B6ED90705D4AB899A0502D4C0
:104CF000A86DFFF7B8FCAB891B0701D52B69EBB991
:104D000029463046FFF7D4FEC0B16B6EDC070ED5E6
:104D10004FF0FF301DB0BDE8F08F7B4B9D4201D1BD
:104D2000B568DFE7794B9D4208BFF568DAE7AB89E4
:104D30009805EDD4A86DFFF797FCE9E700230993E8
:104D400020238DF82930CDF80C803023DFF8C08186
:104D50008DF82A304FF0010923469A4613F8012BAB
:104D60000AB1252AF9D1BAEB040B0BD05B462246D7
:104D700029463046FFF793FF013000F0AA80099AD8
:104D80005A4409929AF80030002B00F0A2800023C8
:104D90004FF0FF32CDE905230AF1010A049307938E
:104DA0008DF853301A935446052214F8011B5848C5
:104DB00000F04EFA049AD8B9D10644BF20238DF8EA
:104DC0005330130744BF2B238DF853309AF800302B
:104DD0002A2B15D0079A544600204FF00A0C214682
:104DE00011F8013B303B092B4ED9B0B1079214E0CA
:104DF000A0EB080309FA03F313430493A246D2E796
:104E0000039B191D1B680391002BBBBF5B4242F043
:104E1000020207930793B8BF049223782E2B0CD17C
:104E200063782A2B35D1039B1A1D1B680392002B34
:104E3000B8BF4FF0FF3302340593DFF8E4A02178C8
:104E40000322504600F004FA40B14023A0EB0A00D0
:104E500003FA00F0049B03430134049314F8011B8C
:104E60002C488DF82810062200F0F2F900283FD0D7
:104E7000294B1BBB039B073323F007030833039322
:104E8000099B3B44099367E70CFB02320C46012067
:104E9000A5E700230134059319464FF00A0C20467C
:104EA00010F8012B303A092A03D9002BC5D00591FF
:104EB000C3E70CFB012104460123F0E703AB009399
:104EC0002A46164B04A93046AFF300800746781CEB
:104ED000D6D16B6ED90705D4AB899A0502D4A86DDB
:104EE000FFF7C2FBAB895B063FF512AF099811E7EC
:104EF00003AB00932A46094B04A9304600F080F822
:104F0000E4E700BF549B0000749B0000349B00004A
:104F1000989B0000A29B0000000000009F4C000036
:104F20009E9B00002DE9F047164699468A680B695A
:104F3000DDF820809342B8BF1346336091F84320D8
:104F400007460C460AB1013333602368990642BF15
:104F5000336802333360256815F0060506D104F185
:104F6000190AE36832689B1AAB4226DC94F84320A6
:104F7000131E226818BF012392062BD404F14302AA
:104F800049463846C04701301ED02368E56832687C
:104F900003F00603042B08BFAD1AA36822690CBFF7
:104FA00025EAE57500259342C4BF9B1AED1800263B
:104FB0001A34B5421AD1002008E00123524649466E
:104FC0003846C047013003D14FF0FF30BDE8F087CD
:104FD0000135C6E7E1185A1C302081F8430022440D
:104FE00094F8451082F843100233C7E701232246A4
:104FF00049463846C0470130E6D00136D9E70000BF
:105000002DE9FF470F7E0C9D782F914680460C4678
:105010009A4601F1430207D8622F0AD8002F00F008
:10502000D880582F00F0A38004F1420584F8427024
:105030003AE0A7F16303152BF6D801A151F823F04C
:1050400099500000AD500000295000002950000088
:105050002950000029500000AD50000029500000E8
:10506000295000002950000029500000B9510000CB
:10507000DD5000009B510000295000002950000025
:10508000DB51000029500000DD50000029500000D5
:1050900029500000A35100002B681A1D1B682A60CC
:1050A00004F1420584F842300123A3E02068296816
:1050B000060601F104030AD50E682B60002E03DA00
:1050C0002D23764284F843305E480A2319E00E68A7
:1050D0002B6010F0400F18BF36B2EFE72B68206846
:1050E000191D2960010601D51E6802E04606FBD5A0
:1050F0001E8854486F2F0CBF08230A23002184F810
:1051000043106568A560002DA2BF216821F004014D
:1051100021600EB9002D4DD01546B6FBF3F103FB0F
:105120001167C75D05F8017D3746BB420E46F4D9CD
:10513000082B0BD12368DE0708D5236961689942E3
:10514000DEBF302305F8013C05F1FF35521B22611B
:10515000CDF800A04B4603AA21464046FFF7E2FEE9
:1051600001304CD14FF0FF3004B0BDE8F087354836
:1051700081F845702968236851F8046B29601D0681
:1051800014D5DF0744BF43F0200323601EB9236812
:1051900023F0200323601023B0E7236843F02003AB
:1051A00023607823284884F84530E3E7590648BF50
:1051B000B6B2E6E71546BBE72B6826686169181D9D
:1051C000286035061B6801D5196002E07006FBD522
:1051D0001980002323611546BAE72B681A1D2A603F
:1051E0001D6862680021284600F032F808B1401BB3
:1051F000606063682361002384F84330A8E7236973
:105200002A4649464046D0470130ABD023689B0729
:1052100013D4E068039B9842B8BF1846A4E7012363
:10522000324649464046D04701309BD00135E368BD
:1052300003995B1AAB42F2DCEBE7002504F1190697
:10524000F5E700BFA99B0000BA9B0000000000002A
:1052500001F0FF01102A2BDB10F0070F08D010F827
:10526000013B013A8B422DD010F0070F42B3F6D12B
:10527000F0B441EA012141EA014122F007047FF044
:1052800000070023F0E80256083C85EA010586EA9B
:10529000010685FA47F5A3FA87F586FA47F6A5FAD7
:1052A00087F68EB9EED1F0BC01F0FF0102F00702E3
:1052B00032B110F8013B013A83EA010313B1F8D18E
:1052C0000020704701387047002D06BF354603386F
:1052D000073815F0010F07D1013015F4807F02BFA8
:1052E000013015F4C03F0130F0BC0138704700BFF9
:1052F0006C63642054465420646973706C61792037
:1053000074657374206170706C69636174696F6E29
:1053100000496E697469616C697A696E67206469B5
:1053200073706C61792E2E2E005B4F4B5D006C63A9
:10533000642054465420646973706C6179206669F6
:105340006C6C696E67206D6170006C6364205446FC
:105350005420646973706C6179206D617020666996
:105360006C6C65640044726177696E6720626C756D
:10537000652072656374616E676C65004472617765
:10538000696E6720677265656E2072656374616E11
:10539000676C650044726177696E6720726564208E
:1053A00072656374616E676C65006C63642054465B
:1053B0005420646973706C617920696E76657274CB
:1053C0006564006C63642054465420646973706C97
:1053D0006179206E6F726D616C006C63642054465D
:1053E0005420646973706C617920636C656172200C
:1053F00073637265656E005B4661696C65645D0030
:105400000000000000000040001B1AFF00004001E7
:10541000F000E000000000000000000000000000BC
:10542000000000000000000000000000000000007C
:10543000000000000000000000000000000000006C
:10544000000000000000000000000000000000005C
:10545000000000000000000000000000000000004C
:10577000201041206128623061304120201000005B
:105780000000000000000000000000000000000019
:105790000000000000000000000000000000000009
:1057A00000000000000000000000000000000000F9
:1057B00000000000000000000000000000000000E9
:1057C00000000000000000000000000000000000D9
:1057D00000000000000000000000000000000000C9
:1057E00000000000000000000000000000000000B9
:1057F00000000000000000000000000000000000A9
:105800000000000000000000000000000000000098
:105810000000000000000000000000000000000088
:105820000000000000000000000000000000000078
:105830000000000000000000000000000000000068
:105840000000000000000000000000000000000058
:105850000000000000000000000000000000000048
:10586000000000000000000000004118A348057976
:10587000669986B187B187B987B987B166A104797E
:10588000A2482010000000000000000000000000FE
:105890000000000000000000000000000000000008
:1058A00000000000000000000000000000000000F8
:1058B00000000000000000000000000000000000E8
:1058C00000000000000000000000000000000000D8
:1058D00000000000000000000000000000000000C8
:1058E00000000000000000000000000000000000B8
:1058F00000000000000000000000000000000000A8
:105900000000000000000000000000000000000097
:105910000000000000000000000000000000000087
:105920000000000000000000000000000000000077
:105930000000000000000000000000000000000067
:105940000000000000000000000000000000000057
:105950000000000000000000000000000000000047
:105960000000000000004120E47066A9A7B9A7C1AB
:10597000A7C1A7B9A7B9A7B9A7B9A7B9A7C1A7C10F
:10598000A7B96699A35000080000000000000000BD
:105990000000000000000000000000000000000007
:1059A00000000000000000000000000000000000F7
:1059B00000000000000000000000000000000000E7
:1059C00000000000000000000000000000000000D7
:1059D00000000000000000000000000000000000C7
:1059E00000000000000000000000000000000000B7
:1059F00000000000000000000000000000000000A7
:105A00000000000000000000000000000000000096
:105A10000000000000000000000000000000000086
:105A20000000000000000000000000000000000076
:105A30000000000000000000000000000000000066
:105A40000000000000000000000000000000000056
:105A50000000000000000000000000000000000046
:105A600000002008C36086A9A7C1A7C1A7B9A7B92C
:105A7000A7B9A7B9A7B9A7B9A7B9A7B9A7B9A7B926
:105A8000A7B9A7C1A7B925894120000000000000DF
:105A90000000000000000000000000000000000006
:105AA00000000000000000000000000000000000F6
:105AB00000000000000000000000000000000000E6
:105AC00000000000000000000000000000000000D6
:105AD00000000000000000000000000000000000C6
:105AE00000000000000000000000000000000000B6
:105AF00000000000000000000000000000000000A6
:105B00000000000000000000000000000000000095
:105B10000000000000000000000000000000000085
:105B20000000000000000000000000000000000075
:105B30000000000000000000000000000000000065
:105B40000000000000000000000000000000000055
:105B50000000000000000000000000000000000045
:105B600041202589A7B9A7C1A7B9A7B9A7B9A7B9DE
:105B7000A7B9A7B9A7B9A7B9A7B9A7B9A7B9A7B925
:105B8000A7B9A7B9A7B9A7C166A1613000000000F5
:105B90000000000000000000000000000000000005
:105BA00000000000000000000000000000000000F5
:105BB00000000000000000000000000000000000E5
:105BC00000000000000000000000000000000000D5
:105BD00000000000000000000000000000000000C5
:105BE00000000000000000000000000000000000B5
:105BF00000000000000000000000000000000000A5
:105C00000000000000000000000000000000000094
:105C10000000000000000000000000000000000084
:105C20000000000000000000000000000000000074
:105C30000000000000000000000000000000000064
:105C40000000000000000000000000000000000054
:105C500000000000000000000000000000006230B2
:105C600066A1A7C1A7B9A7B9A7B9A7B9A7B9A7B985
:105C7000A7B9A7B9A7B9A7B9A7B9A7B9A7B9A7B924
:105C8000A7B9A7B9A7B9A7B9A7C166A141280000BC
:105C90000000000000000000000000000000000004
:105CA00000000000000000000000000000000000F4
:105CB00000000000000000000000000000000000E4
:105CC00000000000000000000000000000000000D4
:105CD00000000000000000000000000000000000C4
:105CE00000000000000000000000000000000000B4
:105CF00000000000000000000000000000000000A4
:105D00000000000000000000000000000000000093
:105D10000000000000000000000000000000000083
:105D20000000000000000000000000000000000073
:105D30000000000000000000000000000000000063
:105D40000000000000000000000000000000000053
:105D5000000000000000000000000000613066A9A3
:105D6000A7C1A7B9A7B9A7B9A7B9A7B9A7B9A7B92B
:105D7000A7B9A7C1A7C1A7C1A7C1A7C1A7B9A7B9FB
:105D8000A7B9A7B9A7B9A7B9A7B9A7C145912010C5
:105D90000000000000000000000000000000000003
:105DA00000000000000000000000000000000000F3
:105DB00000000000000000000000000000000000E3
:105DC00000000000000000000000000000000000D3
:105DD00000000000000000000000000000000000C3
:105DE00000000000000000000000000000000000B3
:105DF00000000000000000000000000000000000A3
:105E00000000000000000000000000000000000092
:105E10000000000000000000000000000000000082
:105E20000000000000000000000000000000000072
:105E30000000000000000000000000000000000062
:105E40000000000000000000000000000000000052
:105E500000000000000000000000412066A1A7C172
:105E6000A7B9A7B9A7B9A7B9A7B9A7B9A7B9A7C12A
:105E700087B14699258104792581669987B9A7C19B
:105E8000A7B9A7B9A7B9A7B9A7B9A7B9A7C1E4681E
:105E90000000000000000000000000000000000002
:105EA00000000000000000000000000000000000F2
:105EB00000000000000000000000000000000000E2
:105EC00000000000000000000000000000000000D2
:105ED00000000000000000000000000000000000C2
:105EE00000000000000000000000000000000000B2
:105EF00000000000000000000000000000000000A2
:105F00000000000000000000000000000000000091
:105F10000000000000000000000000000000000081
:105F20000000000000000000000000000000000071
:105F30000000000000000000000000000000000061
:105F40000000000000000000000000000000000051
:105F5000000000000000000000082581A7C1A7B9CB
:105F6000A7B9A7B9A7B9A7B9A7B9A7C186A9E4686E
:105F700061282008000000000000201082384591B0
:105F8000A7B9A7B9A7B9A7B9A7B9A7B9A7B987B139
:105F90006130000000000000000000000000000070
:105FA00000000000000000000000000000000000F1
:105FB00000000000000000000000000000000000E1
:105FC00000000000000000000000000000000000D1
:105FD00000000000000000000000000000000000C1
:105FE00000000000000000000000000000000000B1
:105FF00000000000000000000000000000000000A1
:106000000000000000000000000000000000000090
:106010000000000000000000000000000000000080
:106020000000000000000000000000000000000070
:106030000000000000000000000000000000000060
:106040000000000000000000000000000000000050
:106050000000000000000000A350A7B9A7B9A7B92D
:10606000A7B9A7B9A7B9A7B9A7B925814120000049
:1060700000000000000000000000000000002010F0
:106080000479A7B9A7B9A7B9A7B9A7B9A7B9A7C1EB
:106090000479000000000000000000000000000083
:1060A00000000000000000000000000000000000F0
:1060B00000000000000000000000000000000000E0
:1060C00000000000000000000000000000000000D0
:1060D00000000000000000000000000000000000C0
:1060E00000000000000000000000000000000000B0
:1060F00000000000000000000000000000000000A0
:10610000000000000000000000000000000000008F
:10611000000000000000000000000000000000007F
:10612000000000000000000000000000000000006F
:10613000000000000000000000000000000000005F
:10614000000000000000000000000000000000004F
:10615000000000000000201066A1A7C1A7B9A7B9E0
:10616000A7B9A7B9A7B9A7B9E4680008000000005B
:10617000000000000000000000000000000000001F
:1061800020082589A7C1A7B9A7B9A7B9A7B9A7B9F1
:1061900086A941200000000000000000000000006F
:1061A00000000000000000000000000000000000EF
:1061B00000000000000000000000000000000000DF
:1061C00000000000000000000000000000000000CF
:1061D00000000000000000000000000000000000BF
:1061E00000000000000000000000000000000000AF
:1061F000000000000000000000000000000000009F
:10620000000000000000000000000000000000008E
:10621000000000000000000000000000000000007E
:10622000000000000000000000000000000000006E
:10623000000000000000000000000000000000005E
:10624000000000000000000000000000000000004E
:10625000000000000000A350A7B9A7B9A7B9A7B9CB
:10626000A7B9A7B9A7B9E4680000000000000000C2
:10627000000000000000000000000000000000001E
:106280000000412886A9A7B9A7B9A7B9A7B9A7B996
:10629000A7B9A350000000000000000000000000AB
:1062A00000000000000000000000000000000000EE
:1062B00000000000000000000000000000000000DE
:1062C00000000000000000000000000000000000CE
:1062D00000000000000000000000000000000000BE
:1062E00000000000000000000000000000000000AE
:1062F000000000000000000000000000000000009E
:10630000000000000000000000000000000000008D
:10631000000000000000000000000000000000007D
:10632000000000000000000000000000000000006D
:10633000000000000000000000000000000000005D
:10634000000000000000000000000000000000004D
:106350000000000000084591A7C1A7B9A7B9A7B9D7
:10636000A7B9A7C12589200800000000000000008F
:10637000000000000000000000000000000000001D
:1063800000000000E470A7C1A7B9A7B9A7B9A7B9D1
:10639000A7C1047900000000000000000000000018
:1063A00000000000000000000000000000000000ED
:1063B00000000000000000000000000000000000DD
:1063C00000000000000000000000000000000000CD
:1063D00000000000000000000000000000000000BD
:1063E00000000000000000000000000000000000AD
:1063F000000000000000000000000000000000009D
:10640000000000000000000000000000000000008C
:10641000000000000000000000000000000000007C
:10642000000000000000000000000000000000006C
:10643000000000000000000000000000000000005C
:10644000000000000000000000000000000000004C
:1064500000000000412087B1A7B9A7B9A7B9A7B923
:10646000A7B987B162300000000000000000000002
:10647000000000000000000000000000000000001C
:10648000000000008238A7B9A7B9A7B9A7B9A7B972
:10649000A7C14591000800000000000000000000B6
:1064A00000000000000000000000000000000000EC
:1064B00000000000000000000000000000000000DC
:1064C00000000000000000000000000000000000CC
:1064D00000000000000000000000000000000000BC
:1064E00000000000000000000000000000000000AC
:1064F000000000000000000000000000000000009C
:10650000000000000000000000000000000000008B
:10651000000000000000000000000000000000007B
:10652000000000000000000000000000000000006B
:10653000000000000000000000000000000000005B
:10654000000000000000000000000000000000004B
:1065500000000000A248A7B9A7B9A7B9A7B9A7B971
:10656000A7C1258900000000000000000000000015
:10657000000000000000000000000000000000001B
:1065800000000000411886A9A7B9A7B9A7B9A7B903
:10659000A7C166A12010000000000000000000005C
:1065A00000000000000000000000000000000000EB
:1065B00000000000000000000000000000000000DB
:1065C00000000000000000000000000000000000CB
:1065D00000000000000000000000000000000000BB
:1065E00000000000000000000000000000000000AB
:1065F000000000000000000000000000000000009B
:10660000000000000000000000000000000000008A
:10661000000000000000000000000000000000007A
:10662000000000000000000000000000000000006A
:10663000000000000000000000000000000000005A
:10664000000000000000000000000000000000004A
:1066500000000000E460A7C1A7B9A7B9A7B9A7B90E
:10666000A7C1A350000000000000000000000000CF
:10667000000000000000000000000000000000001A
:1066800000000000201066A1A7C1A7B9A7B9A7B94B
:10669000A7B986A941180000000000000000000012
:1066A00000000000000000000000000000000000EA
:1066B00000000000000000000000000000000000DA
:1066C00000000000000000000000000000000000CA
:1066D00000000000000000000000000000000000BA
:1066E00000000000000000000000000000000000AA
:1066F000000000000000000000000000000000009A
:106700000000000000000000000000000000000089
:106710000000000000000000000000000000000079
:106720000000000000000000000000000000000069
:106730000000000000000000000000000000000059
:106740000000000000000000000000000000000049
:10675000000000000479A7C1A7B9A7B9A7B9A7B9D4
:1067600087B9623000000000000000000000000057
:106770000000000000000000000000000000000019
:1067800000000000201066A1A7C1A7B9A7B9A7B94A
:10679000A7B986A941180000000000000000000011
:1067A00000000000000000000000000000000000E9
:1067B00000000000000000000000000000000000D9
:1067C00000000000000000000000000000000000C9
:1067D00000000000000000000000000000000000B9
:1067E00000000000000000000000000000000000A9
:1067F0000000000000000000000000000000000099
:106800000000000000000000000000000000000088
:106810000000000000000000000000000000000078
:106820000000000000000000000000000000000068
:106830000000000000000000000000000000000058
:106840000000000000000000000000000000000048
:10685000000000000579A7C1A7B9A7B9A7B9A7B9D2
:1068600087B1412800000000000000000000000087
:106870000000000000000000000000000000000018
:1068800000000000412086A9A7B9A7B9A7B9A7B9F8
:10689000A7C166A120100000000000000000000059
:1068A00000000000000000000000000000000000E8
:1068B00000000000000000000000000000000000D8
:1068C00000000000000000000000000000000000C8
:1068D00000000000000000000000000000000000B8
:1068E00000000000000000000000000000000000A8
:1068F0000000000000000000000000000000000098
:106900000000000000000000000000000000000087
:106910000000000000000000000000000000000077
:106920000000000000000000000000000000000067
:106930000000000000000000000000000000000057
:106940000000000000000000000000000000000047
:10695000000000000581A7C1A7B9A7B9A7B9A7B9C9
:1069600087B141200000000000000000000000008E
:106970000000000000000000000000000000000017
:10698000000000008240A7B9A7B9A7B9A7B9A7B965
:10699000A7C14591000800000000000000000000B1
:1069A00000000000000000000000000000000000E7
:1069B00000000000000000000000000000000000D7
:1069C00000000000000000000000000000000000C7
:1069D00000000000000000000000000000000000B7
:1069E00000000000000000000000000000000000A7
:1069F0000000000000000000000000000000000097
:106A00000000000000000000000000000000000086
:106A10000000000000000000000000000000000076
:106A20000000000000000000000000000000000066
:106A30000000000000000000000000000000000056
:106A40000000000000000000000000000000000046
:106A5000000000000479A7C1A7B9A7B9A7B9A7B9D1
:106A600087B141200000000000000000000000008D
:106A70000000000000000000000000000000000016
:106A8000000000002581A7C1A7B9A7B9A7B9A7B978
:106A9000A7C1047100000000000000000000000019
:106AA00000000000000000000000000000000000E6
:106AB00000000000000000000000000000000000D6
:106AC00000000000000000000000000000000000C6
:106AD00000000000000000000000000000000000B6
:106AE00000000000000000000000000000000000A6
:106AF0000000000000000000000000000000000096
:106B00000000000000000000000000000000000085
:106B10000000000000000000000000000000000075
:106B20000000000000000000000000000000000065
:106B30000000000000000000000000000000000055
:106B40000000000000000000000000000000000045
:106B5000000000000479A7C1A7B9A7B9A7B9A7B9D0
:106B600087B1412800000000000000000000000084
:106B70000000000000000000000000000000000015
:106B80000000824087B9A7B9A7B9A7B9A7B9A7B923
:106B9000A7B9A248000000000000000000000000AB
:106BA00000000000000000000000000000000000E5
:106BB00000000000000000000000000000000000D5
:106BC00000000000000000000000000000000000C5
:106BD00000000000000000000000000000000000B5
:106BE00000000000000000000000000000000000A5
:106BF0000000000000000000000000000000000095
:106C00000000000000000000000000000000000084
:106C10000000000000000000000000000000000074
:106C20000000000000000000000000000000000064
:106C30000000000000000000000000000000000054
:106C40000000000000000000000000000000000044
:106C5000000000000479A7C1A7B9A7B9A7B9A7B9CF
:106C600087B1412800000000000000000000000083
:106C70000000000000000000000000000000000014
:106C8000412066A1A7C1A7B9A7B9A7B9A7B9A7C14C
:106C900066A12118000000000000000000000000B4
:106CA00000000000000000000000000000000000E4
:106CB00000000000000000000000000000000000D4
:106CC00000000000000000000000000000000000C4
:106CD00000000000000000000000000000000000B4
:106CE00000000000000000000000000000000000A4
:106CF0000000000000000000000000000000000094
:106D00000000000000000000000000000000000083
:106D10000000000000000000000000000000000073
:106D20000000000000000000000000000000000063
:106D30000000000000000000000000000000000053
:106D40000000000000000000000000000000000043
:106D5000000000000471A7C1A7B9A7B9A7B9A7B9D6
:106D600087B1612800000000000000000000000062
:106D700000000000000000000000000000002118DA
:106D80004589A7C1A7B9A7B9A7B9A7B9A7B9A7C185
:106D9000E4680000000000000000000000000000A7
:106DA00000000000000000000000000000000000E3
:106DB00000000000000000000000000000000000D3
:106DC00000000000000000000000000000000000C3
:106DD00000000000000000000000000000000000B3
:106DE00000000000000000000000000000000000A3
